:020000040800F2
:10000000000002209D840008994900089B490008CF
:100010009D4900089F490008A14900080000000010
:10002000000000000000000000000000A3490008DC
:10003000A549000800000000A7490008A9490008D8
:10004000ED840008ED840008ED840008ED840008CC
:10005000ED840008ED840008ED840008ED840008BC
:10006000ED840008ED840008ED840008B149000823
:10007000ED840008ED840008ED840008ED8400089C
:10008000ED840008ED840008ED840008ED8400088C
:10009000354A0008ED840008ED840008ED8400086E
:1000A000ED840008C1490008ED840008ED840008D3
:1000B000ED840008ED840008ED840008ED8400085C
:1000C000ED840008ED840008ED840008ED8400084C
:1000D000ED840008ED840008ED840008ED8400083C
:1000E000ED840008ED840008ED840008ED8400082C
:1000F000ED840008ED840008ED840008D149000873
:10010000ED840008ED840008ED840008ED8400080B
:10011000ED840008E1490008054A0008154A000876
:10012000254A0008ED840008ED840008ED840008ED
:10013000ED8400080000000000000000ED840008CD
:10014000ED840008ED840008ED840008ED840008CB
:10015000ED840008ED840008ED840008ED840008BB
:10016000ED840008ED840008ED840008ED840008AB
:10017000ED840008ED84000800000000000000008D
:08018000ED840008ED84000885
:1001900010B5054C237833B9044B13B10448AFF3C1
:1001A00000800123237010BD6C04002000000000BB
:1001B000ACC0000808B5034B1BB103490348AFF3BB
:1001C000008008BD0000000070040020ACC00008E2
:1001D000034613F8012B002AFBD1181A0138704787
:1001E00001F0FF01102A2BDB10F0070F08D010F8E8
:1001F000013B013A8B422DD010F0070F42B3F6D1EC
:10020000F0B441EA012141EA014122F007047FF004
:1002100000070023F0E80256083C85EA010586EA5B
:10022000010685FA47F5A3FA87F586FA47F6A5FA97
:1002300087F68EB9EED1F0BC01F0FF0102F00702A3
:1002400032B110F8013B013A83EA010313B1F8D14E
:100250000020704701387047002D06BF354603382F
:10026000073815F0010F07D1013015F4807F02BF68
:10027000013015F4C03F0130F0BC0138704700BFB9
:1002800081F0004102E000BF83F0004330B54FEA47
:1002900041044FEA430594EA050F08BF90EA020FB4
:1002A0001FBF54EA000C55EA020C7FEA645C7FEA47
:1002B000655C00F0E2804FEA5454D4EB5555B8BF6A
:1002C0006D420CDD2C4480EA020281EA030382EADB
:1002D000000083EA010180EA020281EA0303362D6D
:1002E00088BF30BD11F0004F4FEA01314FF4801C40
:1002F0004CEA113102D0404261EB410113F0004F52
:100300004FEA03334CEA133302D0524263EB430308
:1003100094EA050F00F0A780A4F10104D5F1200EA6
:100320000DDB02FA0EFC22FA05F2801841F1000101
:1003300003FA0EF2801843FA05F359410EE0A5F1D5
:1003400020050EF1200E012A03FA0EFC28BF4CF006
:10035000020C43FA05F3C01851EBE37101F00045BC
:1003600007D54FF0000EDCF1000C7EEB00006EEBC9
:100370000101B1F5801F1BD3B1F5001F0CD3490853
:100380005FEA30004FEA3C0C04F101044FEA4452AA
:1003900012F5800F80F09A80BCF1004F08BF5FEA31
:1003A000500C50F1000041EB045141EA050130BD11
:1003B0005FEA4C0C404141EB0101013C28BFB1F523
:1003C000801FE9D291F0000F04BF01460020B1FA6E
:1003D00081F308BF2033A3F10B03B3F120020CDA41
:1003E0000C3208DD02F1140CC2F10C0201FA0CF01F
:1003F00021FA02F10CE002F11402D8BFC2F1200C84
:1004000001FA02F120FA0CFCDCBF41EA0C01904039
:10041000E41AA2BF01EB0451294330BD6FEA040482
:100420001F3C1CDA0C340EDC04F11404C4F120026D
:1004300020FA04F001FA02F340EA030021FA04F37F
:1004400045EA030130BDC4F10C04C4F1200220FAD6
:1004500002F001FA04F340EA0300294630BD21FA14
:1004600004F0294630BD94F0000F83F4801306BFDA
:1004700081F480110134013D4EE77FEA645C18BFCE
:100480007FEA655C29D094EA050F08BF90EA020F65
:1004900005D054EA000C04BF1946104630BD91EA5D
:1004A000030F1EBF0021002030BD5FEA545C05D160
:1004B0004000494128BF41F0004130BD14F580049F
:1004C0003CBF01F5801130BD01F0004545F0FE4113
:1004D00041F470014FF0000030BD7FEA645C1ABF48
:1004E000194610467FEA655C1CBF0B46024650EA7F
:1004F000013406BF52EA033591EA030F41F40021AB
:1005000030BD00BF90F0000F04BF0021704730B530
:100510004FF4806404F132044FF000054FF0000105
:1005200050E700BF90F0000F04BF0021704730B5C6
:100530004FF4806404F1320410F0004548BF40429B
:100540004FF000013EE700BF42004FEAE2014FEAF0
:1005500031014FEA02701FBF12F07F4393F07F4FCB
:1005600081F06051704732F07F4208BF704793F0CE
:100570007F4F04BF41F40021704730B54FF46074E1
:1005800001F0004521F000411CE700BF50EA0102E4
:1005900008BF704730B54FF000050AE050EA01028D
:1005A00008BF704730B511F0004502D5404261EBFD
:1005B00041014FF4806404F132045FEA915C3FF43E
:1005C000D8AE4FF003025FEADC0C18BF03325FEADB
:1005D000DC0C18BF033202EBDC02C2F1200300FA8C
:1005E00003FC20FA02F001FA03FE40EA0E0021FAB1
:1005F00002F11444BDE600BF70B54FF0FF0C4CF49F
:10060000E06C1CEA11541DBF1CEA135594EA0C0F50
:1006100095EA0C0F00F0DEF82C4481EA030621EA8B
:100620004C5123EA4C5350EA013518BF52EA0335C6
:1006300041F4801143F4801338D0A0FB02CE4FF078
:100640000005E1FB02E506F00042E0FB03E54FF0A8
:100650000006E1FB03569CF0000F18BF4EF0010EA0
:10066000A4F1FF04B6F5007F64F5407404D25FEA9C
:100670004E0E6D4146EB060642EAC62141EA55514F
:100680004FEAC52040EA5E504FEACE2EB4F1FD0C91
:1006900088BFBCF5E06F1ED8BEF1004F08BF5FEA0F
:1006A000500E50F1000041EB045170BD06F00046C1
:1006B00046EA010140EA020081EA0301B4EB5C046E
:1006C000C2BFD4EB0C0541EA045170BD41F4801166
:1006D0004FF0000E013C00F3AB8014F1360FDEBF8B
:1006E000002001F0004170BDC4F10004203C35DA67
:1006F0000C341BDC04F11404C4F1200500FA05F3EA
:1007000020FA04F001FA05F240EA020001F000428A
:1007100021F0004110EBD37021FA04F642EB060100
:100720005EEA430E08BF20EAD37070BDC4F10C042A
:10073000C4F1200500FA04F320FA05F001FA04F2EE
:1007400040EA020001F0004110EBD37041F10001DA
:100750005EEA430E08BF20EAD37070BDC4F12005E5
:1007600000FA05F24EEA020E20FA04F301FA05F24D
:1007700043EA020321FA04F001F0004121FA04F2F5
:1007800020EA020000EBD3705EEA430E08BF20EAC5
:10079000D37070BD94F0000F0FD101F000464000FF
:1007A00041EB010111F4801F08BF013CF7D041EA81
:1007B000060195F0000F18BF704703F00046520085
:1007C00043EB030313F4801F08BF013DF7D043EA56
:1007D0000603704794EA0C0F0CEA135518BF95EA0C
:1007E0000C0F0CD050EA410618BF52EA4306D1D193
:1007F00081EA030101F000414FF0000070BD50EAB2
:10080000410606BF1046194652EA430619D094EA3B
:100810000C0F02D150EA013613D195EA0C0F05D125
:1008200052EA03361CBF104619460AD181EA030179
:1008300001F0004141F0FE4141F470014FF0000031
:1008400070BD41F0FE4141F4780170BD70B54FF0CC
:10085000FF0C4CF4E06C1CEA11541DBF1CEA13554C
:1008600094EA0C0F95EA0C0F00F0A7F8A4EB05042E
:1008700081EA030E52EA03354FEA013100F0888025
:100880004FEA03334FF0805545EA131343EA1263EE
:100890004FEA022245EA111545EA10654FEA0026A3
:1008A0000EF000419D4208BF964244F1FD0404F55C
:1008B000407402D25B084FEA3202B61A65EB0305B8
:1008C0005B084FEA32024FF480104FF4002CB6EB75
:1008D000020E75EB030E22BFB61A754640EA0C00F5
:1008E0005B084FEA3202B6EB020E75EB030E22BF35
:1008F000B61A754640EA5C005B084FEA3202B6EB76
:10090000020E75EB030E22BFB61A754640EA9C0034
:100910005B084FEA3202B6EB020E75EB030E22BF04
:10092000B61A754640EADC0055EA060E18D04FEAC2
:10093000051545EA16754FEA06164FEAC30343EA62
:1009400052734FEAC2025FEA1C1CC0D111F4801F2F
:100950000BD141EA00014FF000004FF0004CB6E728
:1009600011F4801F04BF01430020B4F1FD0C88BFC7
:10097000BCF5E06F3FF6AFAEB5EB030C04BFB6EBD2
:10098000020C5FEA500C50F1000041EB045170BDC5
:100990000EF0004E4EEA113114EB5C04C2BFD4EBF2
:1009A0000C0541EA045170BD41F480114FF0000E76
:1009B000013C90E645EA060E8DE60CEA135594EAF2
:1009C0000C0F08BF95EA0C0F3FF43BAF94EA0C0FF5
:1009D0000AD150EA01347FF434AF95EA0C0F7FF46A
:1009E00025AF104619462CE795EA0C0F06D152EABE
:1009F00003353FF4FDAE1046194622E750EA4106A2
:100A000018BF52EA43067FF4C5AE50EA41047FF4B2
:100A10000DAF52EA43057FF4EBAE12E74FF0FF3C17
:100A200006E000BF4FF0010C02E000BF4FF0010CE8
:100A30004DF804CD4FEA410C7FEA6C5C4FEA430C61
:100A400018BF7FEA6C5C1BD001B050EA410C0CBFB0
:100A500052EA430C91EA030F02BF90EA020F002012
:100A6000704710F1000F91EA030F58BF994208BF79
:100A700090422CBFD8176FEAE37040F00100704736
:100A80004FEA410C7FEA6C5C02D150EA013C07D18D
:100A90004FEA430C7FEA6C5CD6D152EA033CD3D0D8
:100AA0005DF8040B704700BF8446104662468C46D2
:100AB0001946634600E000BF01B5FFF7B7FF002805
:100AC00048BF10F1000F01BD4DF808EDFFF7F4FF2E
:100AD0000CBF012000205DF808FB00BF4DF808EDB9
:100AE000FFF7EAFF34BF012000205DF808FB00BFDC
:100AF0004DF808EDFFF7E0FF94BF012000205DF8FE
:100B000008FB00BF4DF808EDFFF7CEFF94BF0120B2
:100B100000205DF808FB00BF4DF808EDFFF7C4FFAB
:100B200034BF012000205DF808FB00BF4FEA410CF4
:100B30007FEA6C5C02D150EA013C0AD14FEA430CD7
:100B40007FEA6C5C02D152EA033C02D14FF0000014
:100B500070474FF0010070474FEA410212F5001252
:100B600015D211D56FF47873B3EB625212D94FEAF4
:100B7000C12343F0004343EA505311F0004F23FADE
:100B800002F018BF404270474FF00000704750EA33
:100B9000013005D111F0004008BF6FF000407047F0
:100BA0004FF00000704700BF4A0011D212F500124A
:100BB00011D20DD56FF47873B3EB62520ED44FEAB5
:100BC000C12343F0004343EA505323FA02F0704735
:100BD0004FF00000704750EA013002D14FF0FF3073
:100BE00070474FF0000070474FEA4102B2F1E04316
:100BF00024BFB3F5001CDCF1FE5C0DD901F0004C04
:100C00004FEAC0024CEA5070B2F1004F40EB830053
:100C100008BF20F00100704711F0804F21D113F17F
:100C20003872BCBF01F00040704741F480114FEAB8
:100C30005252C2F11802C2F1200C10FA0CF320FA41
:100C400002F018BF40F001004FEAC1234FEAD3235E
:100C500003FA0CFC40EA0C0023FA02F34FEA4303C8
:100C6000CCE77FEA625307D150EA01331EBF4FF051
:100C7000FE4040F44000704701F0004040F0FE406C
:100C800040F40000704700BF53B94AB9002908BFBB
:100C900000281CBF4FF0FF314FF0FF3000F0A4B927
:100CA000ADF1080C6DE904CE00F03CF8DDF804E08D
:100CB000DDE9022304B0704738B500220023044662
:100CC0000D46FFF70BFF28B920462946BDE83840FE
:100CD00000F00AB8204605F1004100F005F8404256
:100CE00061EB410138BD00BFD0B50C4B0022064678
:100CF0000F46FFF781FCFFF757FF0446FFF702FCA2
:100D0000074B0022FFF778FC02460B463046394677
:100D1000FFF7BAFAFFF748FF2146D0BD0000F03DCB
:100D20000000F0412DE9F047089D04468C46002B59
:100D300040F083808A42174647D9B2FA82F242B124
:100D4000C2F1200024FA00F09140974040EA010CE3
:100D500094404FEA1748230CBCFBF8F61FFA87FEB5
:100D600008FB16C143EA014306FB0EF1994209D97B
:100D7000FB1806F1FF3080F01981994240F216818C
:100D8000023E3B445B1AA4B2B3FBF8F008FB1033FD
:100D900044EA034400FB0EFEA64509D93C1900F1C4
:100DA000FF3380F00581A64540F2028102383C44C1
:100DB00040EA0640A4EB0E0400261DB1D4400023F7
:100DC000C5E900433146BDE8F08702B9FFDEB2FA5B
:100DD00082F2002A50D1CB1B4FEA174E1FFA87F838
:100DE0000126B3FBFEFC210C0EFB1C3341EA034140
:100DF00008FB0CF38B4207D979180CF1FF3002D2B3
:100E00008B4200F2E9808446C91AA3B2B1FBFEF01E
:100E10000EFB101143EA014408FB00F8A04507D976
:100E20003C1900F1FF3302D2A04500F2D9801846E8
:100E3000A4EB080440EA0C40BFE78B4209D9002D1F
:100E400000F0B1800026C5E9000130463146BDE81A
:100E5000F087B3FA83F6002E4AD18B4202D3824246
:100E600000F2B880841A61EB030101208C46002D4A
:100E7000A8D0C5E9004CA5E7C2F1200320FA03F68B
:100E8000974001FA02F04FEA174ED9403043030C65
:100E9000B1FBFEF61FFA87F80EFB161143EA014379
:100EA00006FB08F1994204FA02F409D9FB1806F18D
:100EB000FF3C80F08D80994240F28A80023E3B44A4
:100EC0005B1A81B2B3FBFEF00EFB103341EA034123
:100ED00000FB08F38B4207D9791800F1FF3C73D26D
:100EE0008B4271D902383944CB1A40EA064678E77A
:100EF000C6F1200C03FA06F422FA0CF31C4320FA84
:100F00000CF701FA06F34FEA144E21FA0CF11F43D5
:100F10003B0CB1FBFEF91FFA84F80EFB191143EAF2
:100F2000014109FB08FA8A4502FA06F200FA06F3C3
:100F300008D9611809F1FF3048D28A4546D9A9F18C
:100F400002092144A1EB0A01BFB2B1FBFEF00EFB86
:100F5000101147EA014700FB08F8B84507D9E7191F
:100F600000F1FF312ED2B8452CD90238274440EA8F
:100F70000940A7EB0807A0FB02894F45C646494632
:100F80001AD317D05DB1B3EB0E0267EB010707FA76
:100F90000CFCF2404CEA0202F740C5E900270026AB
:100FA0003146BDE8F0872E4628460BE70646E9E6BF
:100FB0001846FDE64345E5D2B8EB020E69EB0401A5
:100FC0000138DFE70846D2E760468DE78146B9E79A
:100FD000664675E730464AE7ACF1020C394413E740
:100FE00002383C4424E700BF704700BF30B595B0DD
:100FF0003022002108A807F0BFFA002403940494CB
:1010000005940694079401941C4B1A6C42F080528C
:101010001A641B6C03F080530193019B0294184BDC
:101020001A6842F480421A601B6803F480430293FA
:10103000029B012308934FF48033099302250E95F8
:101040004FF480030F9304231093A8231193129558
:101050000723139308A804F0BBF80F230393049508
:1010600005944FF4A05306934FF480530793052142
:1010700003A804F009FB15B030BD00BF00380240E2
:101080000070004008B505F0ABF9FFF7AFFF06F0C0
:10109000C5FE00F001FD02F09FFE02F0E7FE02F047
:1010A00017FF02F031FE03F043FB03F053F903F0A6
:1010B000BBFB03F003F903F025F9022211461148A6
:1010C00000F076F8104800F0A9F8012001F010F8BF
:1010D00006F0E0FE40220D490D4800F003FB01F050
:1010E000A5F902F0A7FF0B4800F098F80A4B01227F
:1010F0001A7001E000F014F9084B1B78002BFBD0AC
:10110000F8E700BF600A0020C8C0000800040240E1
:10111000840B0020D8C0000888040020520500205D
:101120007047000008B50A460D4B1B78012B0BD009
:10113000022B0FD003B108BD4FF47A730146094862
:10114000006806F064FBF6E70146064B186806F0F7
:10115000CFFBF0E70146034B186806F01BFCEAE7FB
:10116000890400209004002008B50D4B1B78012B4A
:1011700002D0022B07D008BD01220A490A4B186889
:1011800006F0DAFBF7E7084B18680268D36843F00B
:101190001003D3601D22054906F042FCEBE700BFB7
:1011A00000000020B9050020900400203405002034
:1011B00008B5054B1970054B1A70054B186002F005
:1011C00031FDFFF7D1FF08BD890400200000002099
:1011D0009004002000B585B08DED000ACDED010A28
:1011E0008DED021ACDED031A0B480D2303750A236A
:1011F0004375102383700623C370009B4360019BDB
:101200008360029BC360039B03611621FFF78AFF83
:1012100005B05DF804FB00BF040000200FB410B55A
:1012200082B004AB53F8042B0193094C652120468E
:1012300008F02CFD4FF47A7382B22146054800680D
:1012400006F0E5FA02B0BDE8104004B0704700BFF8
:1012500054050020900400200FB410B582B004ABF8
:1012600053F8042B0193074C6521204608F00EFD2E
:1012700081B22046FFF756FF02B0BDE8104004B02F
:10128000704700BF54050020114B1B68834200D0FB
:10129000704710B50F4B1B680F4A11780F4AD15495
:1012A0005C1E125D0D2A01D10A2907D00133094ABB
:1012B00013600122084906F03FFB10BD0023074AD6
:1012C0001355074A01211170024A1360F5E700BF68
:1012D000900400208C040020B90500203405002073
:1012E0005205002010B582B0044600230193036824
:1012F0001A6801925B680193019B074B1868A04232
:1013000001D002B010BD06F0DFFB23681A685B68ED
:10131000024B01221A70F4E79004002052050020CD
:1013200008B5044800F0FCF8FFF71EFF024B00224E
:101330001A7008BD34050020520500202DE9F8433D
:1013400007460E469146102007F0F8F8C9F800004D
:10135000102007F0F3F80446002505E0142007F0FC
:10136000EDF844F825000135032DF7DD102007F0D6
:10137000E5F88046002505E0142007F0DFF848F87E
:1013800025000135032DF7DDC6F8008000210E464B
:101390000D4608460A4612E054F825100B70013538
:1013A0000021012009E0022823D005F1804C0CF136
:1013B000FF3C54F82CC00CF8013001310132BB5C09
:1013C000B3B30D2B34D0042D32DC042E30DC1329C2
:1013D0002EDC202B16D00028E5D12F49595C11F0C6
:1013E000030FD9D058F826100B70013600210220C7
:1013F000E3E706F1804C0CF1FF3C58F82CC00CF8E8
:101400000130DAE7022803D0012809D00020D5E70F
:1014100006F18043013B58F8233000205854CDE7B3
:1014200005F18043013B54F8233000205854C5E7B0
:10143000022803D0012809D0002723E006F18043C9
:10144000013B58F8233000225A54F5E705F1804358
:10145000013B54F8233000225A54EDE74FEA870845
:1014600054F8270007F043F851EC100BD9F800307E
:101470009844FFF7B9FBC8F8000054F8270007F0BC
:1014800065F80137032FE9DD204607F05FF845EAEC
:10149000062000B2BDE8F883D5CE0008084BD3F88B
:1014A000C830312B0ADC064A42F8230003F132002F
:1014B00002EB800041600133C2F8C830704700BFC2
:1014C000BC05002030B4002300E001331D46C25C9F
:1014D0002AB1CC5C1CB1A242F7D0002006E04A5DE4
:1014E000202A02D00AB10D2A02D1D8B230BC7047EE
:1014F0000020FBE710B4002300E00133C25CCC5CA9
:10150000A24202D10AB1002CF7D112B92CB10020AD
:1015100000E000205DF8044B70470120FAE700006E
:1015200030B583B005460024184BD3F8C830A34229
:1015300026DD2946154B53F82400FFF7C3FF08B9F1
:101540000134F1E76A4601A92818FFF7F7FE3234A3
:101550000E4B03EB84046368009A01999847009846
:1015600006F0F4FF002405E0019B53F8240006F088
:10157000EDFF0134032CF7DD019806F0E7FF02E0F0
:101580000348FFF769FE03B030BD00BFBC05002073
:10159000E8C0000800BF00BF704710B40022114629
:1015A000144600E001320E2A06DC0123934099B272
:1015B0000342F7D00134F5E714F0010F04D04900DD
:1015C00088B25DF8044B70470020FAE710B540EA96
:1015D000813084B22046FFF7E0FF204380B210BD87
:1015E0002DE9F04F83B08B46924601934FF00009EE
:1015F00045E04FF6FF764AE0294B01229A6111E05F
:10160000284B4FF480029A61FFF7C4FF08F10108EC
:10161000B8F10F0F2CDC16F4004FEDD1204B4FF436
:1016200080329A617600B6B21E4C4023A361FFF768
:10163000B1FF8021204604F0BDFB074600BF80219A
:10164000204604F0B7FB074400BF8021204604F089
:10165000B1FB074400BF8021204604F0ABFB0744E8
:1016600000BF6D00ADB2012FCADD45F00105C7E72F
:10167000BAF1000F01D02AF8195009F10109019BB4
:101680004B4508DDBBF1000FB3D03BF819604FF0BC
:1016900000084546BCE7002003B0BDE8F08F00BF5E
:1016A0000008024000040240F0B583B006460D4633
:1016B0001746480006F042FF04460097074B1F6894
:1016C0002B460246314606480068B8470546204684
:1016D00006F03CFF284603B0F0BD00BFA004002088
:1016E00050070020074B1860074B1960074B1A8002
:1016F00018B1074B074A1A607047054B064A1A6033
:10170000704700BF50070020980400209404002078
:10171000A0040020BD810008E11500082DE9F04F6C
:1017200085B007460026ADF80C6001210846FFF79A
:101730004DFFADF80E00304D304C32462988206800
:1017400004F03FFB642201210DF10E00FFF7ACFF16
:10175000DFF8B08088F8000001222988206804F0B2
:1017600030FB01213846FFF731FFADF80E0032465D
:101770002988206804F025FBDFF88C90DFF88CA026
:101780004FF0640BCDF800B001231D4A0DF10E019E
:10179000D9F80000DAF80070B84788F80000012294
:1017A0002988206804F00DFB01213046FFF70EFF69
:1017B000ADF80E0032462988206804F002FBCDF80F
:1017C00000B0DAF80060012303AA0DF10E01D9F888
:1017D0000000B04788F8000001222988206804F042
:1017E000F0FA98F8003023B9BDF80C0005B0BDE858
:1017F000F08F0020FAE700BF940400209804002036
:10180000540700209C04002050070020A004002062
:1018100008B543F6FF70FFF781FF10F4804F02D147
:10182000C0F30D0008BD4FF6FF70FBE700EE100A95
:1018300051B9B8EEC00ADFED0A7A20EE270ADFEDD3
:10184000097A20EE270A7047B8EEC00ADFED067A63
:1018500020EE270ADFED037A20EE270A704700BF4B
:10186000DA0FC940000080380000B4432DE9F04F82
:1018700085B0834601210846FFF7A8FEADF80E00AB
:10188000364D374C00222988206804F09AFA6422E9
:1018900001210DF10E00FFF707FF012229882068C2
:1018A00004F08FFA00211820FFF790FEADF80E002B
:1018B00000222988206804F084FADFF8AC80DFF881
:1018C000AC90284F4FF0640ACDF800A001234246A7
:1018D0000DF10E01D9F800003E68B04701222988B9
:1018E000206804F06EFA4FEA8B00002100F0FC0043
:1018F000FFF76CFEADF80E0000222988206804F086
:1019000060FACDF800A0012342460DF10E01D9F88E
:1019100000003E68B04701222988206804F051FA8F
:1019200001210020FFF752FEADF80E0000222988A9
:10193000206804F046FACDF800A03F680123424633
:101940000DF10E01D9F80000B8470122298820685E
:1019500004F037FA05B0BDE8F08F00BF9404002012
:1019600098040020A0040020A404002050070020B8
:1019700070EE600A90ED047A30EEC77AD0ED076A17
:10198000C7EE267A9FED230A27EE800AD0ED067A6D
:101990009FED217A67EE877A77EE807AC0ED040AB0
:1019A00090ED027A9FED1D6AB4EEC67AF1EE10FA60
:1019B00012DDD0ED055A85EE876A66EEA06AD0ED9D
:1019C000035A76EEA56AC0ED036AF4EEC66AF1EE3C
:1019D00010FA14DD80ED036AC0ED067A90ED000A7E
:1019E00060EE200A90ED010A60EE277A70EEA70AF9
:1019F00090ED030A27EE000A30EE800A7047B1EE40
:101A0000466AF4EEC66AF1EE10FAE5D580ED036A97
:101A1000E2E700BFA69BC43EA4701D3F17B7D138B4
:101A200008B50C4B1B7823B102780B4B1B789A42FC
:101A300000D008BD43688268C1680069D0ED001A13
:101A400091ED001AD2ED000A93ED000AFFF7C2FBF8
:101A5000EFE700BFA60400201A00002007EE900A5E
:101A6000F8EEE77A9FED020A27EE800A704700BF82
:101A70000000003807EE900AF8EEE77A9FED040ABE
:101A800067EE807A9FED030A27EE800A704700BF59
:101A9000000000430000003830B58BB000240594EE
:101AA00006940794089409940094264B1A6B42F00C
:101AB00080021A631A6B02F080020092009A01946D
:101AC0001A6B42F004021A631A6B02F004020192CC
:101AD000019A02941A6B42F001021A631A6B02F027
:101AE00001020292029A03941A6B42F002021A63F4
:101AF0001A6B02F002020392039A04941A6B42F0EA
:101B000008021A631B6B03F008030493049B0E4D39
:101B100022464FF40071284604F053F94FF4007345
:101B20000593012306930794089405A9284604F019
:101B30005BF84023059305A9044804F055F80BB061
:101B400030BD00BF003802400008024000040240DF
:101B500030B40D461446013805280CD8DFE800F0F3
:101B6000030D161F28311B4B0FCB85E80F001A4BB6
:101B70000FCB84E80F0030BC7047174B0FCB85E8C4
:101B80000F00164B0FCB84E80F00F4E7134B0FCB7D
:101B900085E80F00124B0FCB84E80F00EBE7104BEA
:101BA0000FCB85E80F000F4B0FCB84E80F00E2E767
:101BB0000C4B0FCB85E80F000B4B0FCB84E80F00CD
:101BC000D9E7094B0FCB85E80F00024B0FCB84E818
:101BD0000F00D0E79C000020BC0000207C0000200B
:101BE0008C0000206C000020AC000020013805288B
:101BF0005BD8DFE800F003121F303F4CDFED2B7A9B
:101C000060EEA77A30EE670A81ED000ADFED287AF0
:101C100060EEA70AC2ED000A7047DFED247A60EE9D
:101C2000A70A70EE807AC1ED007A70EEC00AC2EDAC
:101C3000000A7047DFED1E7A60EEA77AC1ED007AE8
:101C4000B1EE400ADFED197A60EEA70A70EE600A85
:101C5000C2ED000A7047DFED157A60EEA77A37EE25
:101C6000C00A81ED000ADFED137A60EEA70AC2ED2B
:101C7000000A7047DFED107A60EEA70A70EEC07AB6
:101C8000C1ED007A70EE200AC2ED000A7047DFED68
:101C9000097A60EEA77AC1ED007ADFED047A60EE92
:101CA000A77A77EE800AC2ED000A704736CD133F5F
:101CB00036CD933F36CD93BF36CD13BF84B08DED77
:101CC000010ACDED020A8DED031A124BD3ED0B7A0A
:101CD000F8EE677A27EE800ABCEEC00A83ED0D0AA3
:101CE000D3ED0B7AF8EE677A9DED027A67EE877A8C
:101CF000FCEEE77AC3ED0E7AD3ED0B7AF8EE677A55
:101D00009DED037A67EE877AFCEEE77AC3ED0F7AF2
:101D100004B070470000014010B588B06C4684E8FC
:101D20000F00F0EE407A9FED127AB4EEC70AF1EEA2
:101D300010FA01DDF0EE477A9DF8003000EE103A1F
:101D4000B8EEC00A9DF8013000EE903AF8EEE00AD5
:101D50009DF8023001EE103AB8EEC11A20EE270AC3
:101D600060EEA70A21EE271AFFF7A8FF08B010BD02
:101D70003333733F84B038B52DED028B054607AC85
:101D800084E80E00B0EE408A94E80F00FFF7C4FF2D
:101D9000284604F051FB064BB0EE480A0FCBFFF784
:101DA000BBFFBDEC028BBDE8384004B0704700BFFC
:101DB000B404002010B48FB004AC84E80F00F7EE38
:101DC000007A77EEC07A77EEE07AB6EE007A27EE08
:101DD000877A344B1A7807EE902AF8EEE77A67EEA6
:101DE000877A9DF8102006EE902AF8EEE66A66EEF5
:101DF000806A77EEA67A9DF8402006EE902AF8EEEB
:101E0000E66A66EEA06A77EEA67ACDED087A5A7891
:101E100007EE902AF8EEE77A67EE877A9DF81120B0
:101E200006EE902AF8EEE66A66EE806A77EEA67A0B
:101E30009DF8412006EE902AF8EEE66A66EEA06A6A
:101E400077EEA67ACDED097A9B7807EE903AF8EE18
:101E5000E77A67EE877A9DF8123007EE103AB8EE0F
:101E6000C77A27EE000A37EE800A9DF8423007EE67
:101E7000903AF8EEE77A67EEA00A70EE200ACDED10
:101E80000A0A08AB93E807000EAB03E907009DEDD3
:101E90000B0ADDED0C0A9DED0D1A0FB05DF8044B39
:101EA000704700BFCC00002010B52DED028B90B024
:101EB000F0EE408AB0EE608ADFED327AB4EEE70AE7
:101EC000F1EE10FA14DDFDEEC07A17EE903A2E4ACC
:101ED00082FB03121A44DB17C3EB22234FF4B472C4
:101EE00002FB03F307EE903AF8EEE77A70EE678AAA
:101EF000FCEEE87A17EE904A244BA3FB0434640905
:101F00000134E4B208AA0CA92046FFF721FE07A974
:101F100006A8B0EE680A00F025F9DFED1D7AB4EEF0
:101F2000E78AF1EE10FA01DDB0EE678A9DED070A4F
:101F300028EE000A8DED070ADDED060A68EE200A9C
:101F4000CDED060A04AA05A92046FFF74FFE08AB0F
:101F50000FCB8DE80F0010AB13E90F00DDED040A85
:101F60009DED050AFFF726FF0A4B83ED000AC3ED3E
:101F7000010A83ED021AFFF7A1FE10B0BDEC028B3F
:101F800010BD00BF0000B443B7600BB689888888D5
:101F90003333733FA804002008B52DED048BB0EE59
:101FA000409AF0EE608AB0EE418A20EE000A60EEC0
:101FB000A07A30EE270A09F07FFEF0EE409AF0EEAC
:101FC000490AB0EE680A09F075FEDFED117A60EE9D
:101FD000277A9FED107A87EE870AB5EEC00AF1EEF8
:101FE00010FA10D438EE088AF0EE087AC8EE270A04
:101FF000DFED097A60EEA70AC9EEA00AFFF754FFE9
:10200000BDEC048B08BDDFED057A30EE270AE9E769
:1020100000003443DA0F4940F6285C3F0000B44327
:1020200010B5044601780E48FFF7F8F86068FEF72F
:102030008BFA02460B460B48FFF7F0F8217A0A4864
:10204000FFF7ECF86069FEF77FFA02460B46074897
:10205000FFF7E4F8217E0648FFF7E0F810BD00BF67
:10206000FCC0000810C1000828C1000844C10008D5
:102070005CC1000870B58EB00026089601AC174D03
:102080000FCD0FC42B682360154B1B680693154BAF
:102090001B788DF81C3003F05FFC099602230D932A
:1020A00006230B9301230C9308A909A803F052FD02
:1020B00010B901AD0C4C0AE0FFF732F8F9E755F81A
:1020C000042B00232146022003F098FC0434074B24
:1020D0009C42F4D903F058FC0EB070BD40010020C2
:1020E0005401002088020020000004081B0004089E
:1020F00070B588B0064601AC154D0FCD0FC495E8FC
:10210000070084E807009DF80430FF2B0ED111482A
:10211000FFF784F856B1FFF7ADFF01AC0C4D0FCDC2
:102120000FC495E8070084E80700ECE701A8FFF773
:1021300077FF094D01AC0FCC0FC523682B609DF8CC
:102140001C20064B1A70069A054B1A6008B070BD29
:102150000000040868C10008400100208802002037
:102160005401002030B4DFED467A20EE270AFDEE60
:10217000C07AB5EEC00AF1EE10FA7AD4F8EEE77A3A
:1021800070EE677A9FED3F0A67EE807ABCEEE77AE1
:1021900017EE103AC3F3080303F18002C2F30802FA
:1021A00007EE103AB8EE477A77EEC77A364C04EB72
:1021B000820595ED006A013204EB820292ED003A4D
:1021C00004EB830292ED004AF1EE444A013304EB42
:1021D0008303D3ED006A73EE465A34EEE67A9FED40
:1021E0002B5A27EE057A75EEA53A37EE637A27EE7D
:1021F000877AF0EE082A65EEA25A74EEA43A73EEDE
:10220000E63A63EE853A75EEE35A37EE257A27EE25
:10221000877A64EE854A37EE247A27EE877A37EE9E
:10222000067A81ED007A76EEC46A36EE037A27EEFE
:10223000057A76EEA65A37EE657A27EE877A66EE4D
:10224000A26A76EE065A75EE835A65EE855A76EEE8
:10225000E56A37EE267A27EE877A26EE056A37EEAC
:10226000067A67EE877A74EE277AC0ED007A30BC82
:10227000704717EE903A013B07EE903A7EE700BFB9
:10228000610B363B0000004498C10008DB0F493C5D
:10229000DFED1E7A20EE270AF5EE007A30EE270AEF
:1022A000FDEEC07AB5EEC00AF1EE10FA28D4F8EED1
:1022B000E77A70EE677A9FED160A67EE807ABCEED9
:1022C000E77A17EE103AC3F3080307EE103AB8EEB8
:1022D000470A77EEC07A0F4A02EB8301D1ED006A1C
:1022E000013302EB830393ED007AB7EE000A30EE80
:1022F000670A20EE260A67EE877A30EE270A7047D3
:1023000017EE903A013B07EE903AD0E783F9223E70
:102310000000004498C1000808B51A4B1B78072B31
:1023200018D0194BD3ED000A184B93ED000A18484A
:10233000FFF71EFB174B83ED000A164BD3ED007A17
:10234000B2EE0E7AF4EEC77AF1EE10FA0FDD83EDFD
:10235000007A08BD0C4BD3ED000A0C4B93ED000A3C
:102360000D48FFF705FB0B4B83ED000AE5E7BAEEDE
:102370000E7AF4EEC77AF1EE10FAEAD5054B83ED4A
:10238000007AE6E7E400002074070020F40400204F
:10239000C401002030010020A00100200023054AD4
:1023A000D360054AD360054AD360054AD360054A25
:1023B000D36070470C010020E8000020C401002019
:1023C000A00100205801002030B583B0054600244C
:1023D000009401940A2004F02FF8AC420FDA104A5E
:1023E000B2F90010009B0B440093B2F90220019B4C
:1023F00013440193012004F01FF80134EDE7009924
:1024000091FBF5F109B2074B1980019A92FBF5F2A5
:1024100012B25A800448FEF701FF03B030BD00BF7E
:1024200008050020040500209CC9000810B51D4BBC
:10243000187AFFF71BFA00220221382003F040FF30
:10244000382003F071FF184802F0DEFB174802F055
:10245000DBFB03221649174802F0FEFD164804F084
:102460007EFC164C0021204604F076FF0421204615
:1024700004F072FF0821204604F06EFF0021204680
:1024800004F09CFF0421204604F098FF0821204618
:1024900004F094FF4FF47A70FFF796FF084804F0B9
:1024A00070FC10BD4001002078080020E8070020E3
:1024B000080500203008002060090020E009002005
:1024C000200A0020B1EE400A70EE600A80ED000A9A
:1024D0009FED067A60EEC77A30EE600A20EE070ABA
:1024E00037EE800A81ED000A704700BF3ACD133FF6
:1024F00030B52DED028B83B0B0EE408AF0EE608AED
:1025000004460D46002300930193694601A8B0EEEE
:10251000410AFFF727FEDDED000A68EE207A9DED07
:10252000010A28EE807A77EE877AC5ED007A28EEE8
:10253000408A68EEA08A38EE288A84ED008A03B0CB
:10254000BDEC028B30BD30B52DED028B83B0F0EECB
:10255000408AB0EE608A04460D4600230093019342
:10256000694601A8B0EE410AFFF7FCFD9DED010AA6
:1025700068EE007ADDED000A28EEA07A77EE877A21
:10258000C5ED007A28EE208A68EE808A38EE688AE7
:1025900084ED008A03B0BDEC028B30BD10B52DED8B
:1025A000028B82B02E4BD3ED000A2E4B93ED000A26
:1025B0002D48FFF7DDF92D4C84ED000A2C4BD3EDAF
:1025C000000A2C4B93ED000A2B48FFF7D1F92B4B57
:1025D00083ED000A694601A8294B93ED001AD4ED5A
:1025E000000AFFF7B0FF274B93ED001ADDED000A5C
:1025F0009DED010AFFF7D0FC234B1B781BB902B0FD
:10260000BDEC028B10BD9DED010A20EE000ADDED50
:10261000007A67EEA77A30EE270A09F04DFBB0EE9C
:10262000408A134BD3ED007A27EEA70A0C4BD3ED6B
:10263000007A67EEA77A30EE270A09F03DFB134BCC
:10264000D3ED007A77EE807AC3ED007AD3ED017A8C
:1026500037EE880A83ED010A9A6801329A60CEE764
:1026600080070020D4040020E8000020C4070020D8
:102670009C070020300100200C010020780700207A
:10268000BC070020D8040020E9040020A007002097
:1026900010B52DED028B82B0464BD3ED000A464BB0
:1026A00093ED000A4548FFF763F9454B83ED000AB7
:1026B000444BD3ED007A444B93ED007A77EEC77A22
:1026C000424B93ED007A37EEC77ADFED416AC7EEF1
:1026D000268A9FED400A68EE808A3F4B93ED007A90
:1026E00077EEC77A87EEA68A28EE008A3B4BD3EDB9
:1026F000007AF1EE677A77EEA77ADFED390A27EEF6
:10270000800A09F0D7FA38EE008A38EE800AFFF71F
:10271000BFFD344C84ED000AB0EE480AFFF7B8FD67
:10272000314B83ED000AD4ED007A37EEC07AB0EE7B
:10273000C77ADFED2E6AB4EEE67AF1EE10FA2AD50A
:102740002B4B93ED007A67EE877A2A4B93ED007A54
:1027500077EE877A284BC3ED007A1C4B1A681E4B24
:102760001A60694601A8254B93ED001A144BD3ED6E
:10277000000A214B93ED000AFFF7E5FE204B93ED95
:10278000001ADDED000A9DED010AFFF705FC02B01D
:10279000BDEC028B10BD164BD3ED007A20EE270A5C
:1027A000144BD3ED007A30EE270A134B83ED000A69
:1027B000D7E700BF80070020D4040020E8000020F5
:1027C000C4070020C807002054010020EC040020AA
:1027D00000003443DA0F49408807002074070020C6
:1027E0000000BB449007002094070020CDCC4C3D56
:1027F0007C070020C007002078070020BC070020CD
:10280000D804002060EE800A20EE811AD0ED007A14
:1028100031EE271AB7EE000A70EE800A81EE200A28
:1028200080ED000A7047000008B5314BD3ED006A17
:10283000304BD3ED007A76EEE77A9FED2F7AF4EE07
:10284000C77AF1EE10FA47D59FED2C7A77EE877AAA
:102850002B4B93ED007A9FED2B6A67EE867A77EE2D
:10286000677A9FED296A67EE867A77EE677AC3ED1D
:10287000007A204BC3ED006A244BD3ED005A244B61
:1028800093ED007A25EE877A224BD3ED006A37EE7E
:10289000267A214BD3ED006A77EEE67A9FED1F5A38
:1028A00087EE056A1E4A92ED007A67EE877A76EE29
:1028B000277A76EEA76AC3ED006A1A489FED1A1AC6
:1028C00025EE811ADFED190A9FED190AFFF79AFF2D
:1028D000184B83ED000A08BD9FED177AF4EEC77A16
:1028E000F1EE10FAB4DD9FED057A77EEC77AAFE727
:1028F000C807002018050020000034C30000B443BE
:102900005C070020E4385E420AD7233D9C07002084
:1029100034010020580700207407002000409C4626
:10292000380100208C0700209A99D94117B75138F7
:102930005C8F9A40CC07002000003443F8B5224B4E
:102940001D88224B1F7804221A700024264604E0BA
:10295000AB4200DA013E9DB20134B4F57A7F1CDA55
:102960001B4B83FB04231A19E317C3EB22234FF4F9
:10297000B47202FB1343DFED170A07EE903AB8EE8C
:10298000E70AFFF791FA012003F056FD0E4BB3F969
:102990000030AB42DCDD0136DDE70F4B9FED0D0A69
:1029A0000FCBFFF7B9F931460C48FEF737FC002E84
:1029B00002DB064B1F70F8BD094A137AB3FA83F3A2
:1029C0005B091372F5E700BF60070020E4000020F8
:1029D000B7600BB6CDCCCC3DB4040020C0C9000814
:1029E0004001002010B52DED028B84B09C4B93ED7F
:1029F000031A9C4AD2ED0B7AF8EE677A67EE817A79
:102A0000FCEEE77A02F58062C2ED0D7AD3ED057A2D
:102A1000B1EE047AF4EEC77AF1EE10FA00F181809B
:102A2000B1EE047AF4EE477AF1EE10FA00F08E80FF
:102A3000B1EE087AF4EE477AF1EE10FA00F08D80EC
:102A4000B2EE067AF4EE477AF1EE10FA00F0BE80AC
:102A5000B2EE087AF4EE477AF1EE10FA00F0BF8099
:102A6000B3EE017AF4EE477AF1EE10FA00F0F0805E
:102A7000B3EE027AF4EE477AF1EE10FA59D17A49C0
:102A8000B1F90030794AB2F900001B1A07EE103A8A
:102A9000B8EEC77A9FED765A27EE057ADFED755AC4
:102AA00027EE257A9FED746AC7EE067ADFED736A2A
:102AB00087EEA67AB0EEC77AB1F90230B2F90220F9
:102AC0009B1A07EE903AF8EEE77A67EE857A67EEA2
:102AD000A57AC7EE865AC5EEA67AF0EEE77A77EECB
:102AE000277A5F4C94ED007A77EE277AC4ED007A6E
:102AF000D4ED017A624B93ED007A77EE877AC4EDDC
:102B0000017AA3680133A3609FED5E8AB0EE480AA4
:102B1000F0EE480AB0EE481AFFF7D0F884ED058AC7
:102B200010E09FED581AB0EE410AF0EE410AFFF7AF
:102B3000C5F84B4BD3ED057AB7EE007A77EE877A7E
:102B4000C3ED057A04B0BDEC028B10BD9FED4D0ABC
:102B5000F0EE410AFFF7B2F8EBE7434BB3F902306E
:102B6000424AB2F902209B1A07EE903AF8EEE77A51
:102B70009FED3F7A67EE877A9FED3E7A67EE877A20
:102B80009FED3D7AC7EE876A9FED3C7AC6EE877A65
:102B9000B0EEE77A324BD3ED007A77EE877AC3ED69
:102BA000007AD3ED017A364A92ED007A77EE877A91
:102BB000C3ED017A9A6801329A609FED321AB0EE45
:102BC000410AF0EE410AFFF779F8B2E7B0EE410AA8
:102BD000F0EE410A9FED2B1AFFF770F8A9E7224BA0
:102BE000B3F90030214AB2F900209B1A07EE903A5F
:102BF000F8EEE77A9FED1E7A67EE877A9FED1D7AF1
:102C000067EE877A9FED1C7AC7EE876A9FED1B7A85
:102C1000C6EE877AB0EEE77A114BD3ED007A77EE05
:102C2000877AC3ED007AD3ED017A154A92ED007AE6
:102C300077EE877AC3ED017A9A6801329A609FED48
:102C4000111AB0EE410AF0EE410AFFF737F870E7CB
:102C5000B0EE410ADFED0B0AFFF730F869E700BF7D
:102C6000A007002000000140080500200405002006
:102C7000000080393333534000004842A69B443B58
:102C8000D8040020000000000268A74B9A4200D040
:102C9000704730B52DED048B83B0A44B1A78A44B4C
:102CA0001B789A4240F0128101224FF40071A14832
:102CB00003F087F8A04AD2ED000AA049B1F900302C
:102CC0009F48B0F900401B1B07EE103AB8EEC77AD8
:102CD0009FED9C5A27EE057ADFED9B5A27EE257A69
:102CE000DFED9A6A87EE266ADFED997A86EE277A1B
:102CF00030EEC77A9FED976A27EE067A70EEC70A24
:102D0000C2ED000A92ED010AB1F90230B0F90200F9
:102D10001B1A07EE103AB8EEC77A27EE057A27EEAF
:102D2000257AC7EE264A84EEA77A30EE477A27EE58
:102D3000067A30EE470A82ED010A874BD3ED006A2E
:102D4000B1F9042007EE902AF8EEE77A67EE857A6B
:102D500067EEA57A9FED817A67EE877ADFED805A7C
:102D600087EEA57A76EEC77A67EE867A76EEE77A10
:102D7000C3ED007A7B497C48FFF7A4FBFEF748FDD2
:102D80007A4B18800121FEF751FDB0EE407A784B66
:102D900083ED000A774B1A7800EE102AF8EEC07A1D
:102DA00027EE870AD3ED017A30EE670A724B83ED86
:102DB000000AFFF739FD714B1B68012B00F0A8805A
:102DC00001336E4A1360694601A86B4B93ED001AFC
:102DD000644BD3ED000A644B93ED000AFFF788FBC8
:102DE0009DED017A664B83ED007ADDED007A654B4F
:102DF000C3ED007AF0EEE77AF2EE0E6AF4EEE67AD0
:102E0000F1EE10FA07DCB0EEC77AB4EEE67AF1EE36
:102E100010FA40F365815C4A13780133DBB213701A
:102E2000192B00F2618100224FF40071414802F039
:102E3000C8FF564B1B78002B00F063813C4B1B787E
:102E4000032B00F05881042B00F25881022B40F034
:102E50005C814F4B93ED000AB1EE400A30EE000A60
:102E60009FED4C8ADFED4C0A20EE080A08F022FFA5
:102E70003F4BD3ED007A494B93ED007A77EEC77A5A
:102E8000474B93ED007A77EEC77A77EE807A9FED25
:102E9000457A87EE870A20EE080AFFF7F9F9424BD8
:102EA000D3ED007A60EE277A404BC3ED007A404BB9
:102EB000D3ED000A304B93ED000A77EEA00ADFED68
:102EC0003D7A30EE270AFEF7EFFF1EE1184B1B7824
:102ED00023B1082B0DD0FFF761FA05E0364B9FEDCB
:102EE0001D0A0FCBFEF718FF114B1A780F4B1A7003
:102EF000DAE6264B00221A703048FEF7ADF9304B67
:102F00001878013003222F49C0B201F0BBF9EBE77A
:102F1000074B1B78052B03D9072B55D0FFF7FCF97E
:102F2000164B00221A604EE7002001403C010020B1
:102F3000E400002000080240FC04002008050020F6
:102F4000040500200000803933335340000048421C
:102F5000A69B443BCDCCCC3DD804002000D8D6471E
:102F600000401C466C07002070070020600700200E
:102F7000C807002040010020BC0700201C050020DD
:102F80009C07002080070020C8040020D0040020F7
:102F900074070020DA0F49400000BB4454010020B0
:102FA000EC04002000003443CC040020640700201F
:102FB000DC0000200000B442B4040020DCC900089A
:102FC00088020020F0C900085E4C5F4DDFED5F8A8B
:102FD0005F4894ED001AD5ED070AB0EE680AFFF7D6
:102FE00011FCB0EE408A5B485B4B93ED001AD5EDC7
:102FF000070AB0EE680AFFF705FCB0EE409AD4ED80
:10300000007A564B93ED007A77EEC77AF0EEE78AB6
:10301000534BD3ED007A534B93ED007A77EEC77A9A
:10302000514B93ED007A77EEC77A9FED507A77EEA9
:10303000877A9FED4F7A87EE870ADFED4E7A20EE92
:10304000270AFFF725F920EE090A4B4B1B78ABB98D
:1030500094ED007ADFED497AB4EEE77AF1EE10FAFA
:103060000CDDF0EE047AF4EEE78AF1EE10FA05DDFD
:10307000414B01221A70424B83ED000A314B1A6812
:10308000364B1A603C4B1B7823B33D4B93ED007AD3
:1030900037EE088A3B4B83ED008A3B4BD3ED007A39
:1030A000F0EEE77AF1EE086AF4EEE67AF1EE10FA65
:1030B0007FF534AF30EE470AF0EEC07A9FED337AF9
:1030C000F4EEC77AF1EE10FA7FF528AF2A4B002212
:1030D0001A7023E738EE000A2A4B83ED000A1DE739
:1030E0002B4B00221A709EE62A4B00221A702A48A7
:1030F000FEF7B2F897E6FFF7CBFA06E0FFF74EFAD5
:1031000003E0264B1B78042B12D12548FEF788FCE0
:103110002448FEF785FC2448FEF782FC2348FEF78E
:103120007FFC234B1B7853B903B0BDEC048B30BD3F
:10313000204B9FED210A0FCBFEF7EEFDE5E7FFF7F1
:1031400051FCF1E7E0000020A001002000007A44DB
:1031500084070020D0070020F00400201405002080
:10316000C807002054010020EC04002000000000EB
:1031700000003443DA0F4940F804002000000C42FC
:1031800010050020F40400209C070020CDCC4C3E0C
:10319000C8040020D0040020F4C90008E400002086
:1031A0001C000020300000204400002058000020B7
:1031B000E8040020B4040020CDCCCC3D2DE9F04F34
:1031C0002DED028B9BB0DFF86CB19BF800300193C2
:1031D00015AC4F4E0FCE0FC433682360DFF858A1F3
:1031E00003AC55460FCD0FC40FCD0FC4D5F80090DA
:1031F000C4F800900CAF474C0FCC0FC70FCC0FC7D3
:1032000023683B60444F00233B607B604FF0000825
:10321000C7F80880A6F1100282F8008053603F4A88
:1032200013604FF07C533E4A13604FF07E52CAF851
:103230000820CAF80030A4F1200CD646BEE80F00E2
:10324000ACE80F00BEE80F00ACE80F00C4F8009037
:1032500005238BF800304FF00109324B83F80090C2
:103260004FF4FA7003F0E8F82F4A82F800904FF418
:10327000FA7003F0E1F82C4A82F80080294B83F8B9
:103280000080019B8BF80030A6F1100C0DF1540E5C
:10329000BEE80F00ACE80F00DEF8003033605646A1
:1032A0000DF10C0CBCE80F000FC6BCE80F000FC6F8
:1032B000DCF800302B60A4F120050CAE0FCE0FC55A
:1032C0000FCE0FC53368236097ED017AD7ED007AF2
:1032D000C7EE277A17EE900AFDF736F902460B463D
:1032E000FCF7D4FF0022114BFDF7B0FAFDF77CFC90
:1032F00008EE100AFDF728F902460B460C48FDF7C8
:103300008DFFB0EE480A1BB0BDEC028BBDE8F08F1C
:10331000400100200C010020A0070020D404002060
:1033200030010020D0040020E90400200000084003
:1033300004CA0008E4000020E80000202DE9F04362
:103340002DED048B87B07C4BDE6A7C4B1F78FFF73A
:1033500035FFF6EE007A87EE808AF1EE047AB4EE5D
:10336000E78AF1EE10FA09DD7548FDF757FFF2EE36
:10337000047AB4EEE78AF1EE10FA1ADC714C0023FD
:10338000236063600022A26023616361E3606A4B93
:103390004DF6C022DA62694B04221A7001236A4A90
:1033A00013706A4A137003F041F80546684BE360F6
:1033B00043E06848FDF732FFB9E0624C94ED017AD2
:1033C000F2EE087A87EE279AD4ED006A86EEA77AA5
:1033D00084ED047A382002F0B5FF0023A3600023B7
:1033E00023606360382002F09FFFD4ED038AF7EE7C
:1033F000087A68EEA78AC4ED038A2069FDF7A4F86D
:103400008046894618EE900AFDF79EF8CDE9020144
:1034100019EE100AFDF798F8CDE9000142464B4637
:103420004D48FDF719FF474BD3ED037AB6EE007A0E
:10343000F4EEC77AF1EE10FA12DC424BD3ED047AC7
:10344000F4EEC87AF1EE10FA14D502F0EFFF05F5AC
:10345000FA6398420ED23B4B9B680C2BE3D1ACE74E
:1034600017EE900AFDF770F802460B463B48FDF751
:10347000D5FE4FE0382002F065FF324B00221A6083
:103480005A60002199605A61382002F04DFF2D4B9F
:103490009B68632BFBDD2B4BD3ED006ADFED307AAD
:1034A00086EEA77AD3ED016A86EEA78A224AD2ED8C
:1034B0000B7AD3ED036AF8EE677A67EEA67ADFED52
:1034C000296AC7EEA68A68EE286AC6EE877A77EE82
:1034D000A77AF0EE086A87EEA69A17EE100AFDF7B3
:1034E00033F804460D4619EE100AFDF72DF8CDE924
:1034F000040118EE900AFDF727F8CDE9020118EE55
:10350000100AFDF721F8CDE9000122462B461648A6
:10351000FDF784FE00230D4A13700B4A1370074B0E
:103520001F70054BDE62DB6A6C3B104A536307B0C9
:10353000BDEC048BBDE8F08300000140E4000020F6
:1035400010CA0008A0070020E8040020D0040020D2
:103550000AD7A33C70CA0008A4CA0008C8CA000859
:103560000000C842A037204D14CB000800040140E1
:10357000F0B52DED088B87B0704B1D7804221A70C2
:103580006F4B00225A600024B4F57A7F0ADA0120DA
:1035900002F052FF6B4BB3F900106B48FDF73EFE93
:1035A0000134F1E79FED698A0CE0DFED690AB0EEC6
:1035B000480AFEF779FC012002F03EFFDFED657A54
:1035C00038EE278ADFED647AB4EEE78AF1EE10FA7E
:1035D000EBD4624B9FED620A0FCBFEF79DFB0A20F6
:1035E00002F02AFF5F4B1868FCF7AEFF02460B465D
:1035F0005D48FDF713FE5D4B93ED009A00249FEDAF
:1036000053AAB0EE4ABAF0EE4AAA37E0554BD3EDD2
:10361000007A77EEE88A05A904A8B0EE680AFEF7FA
:10362000A1FD9DED048A7AEE88AADDED059A3BEEB8
:1036300029BA18EE900AFCF787FF06460F4619EEE6
:10364000900AFCF781FFCDE9020118EE100AFCF7A1
:103650007BFFCDE9000132463B464548FDF7DEFDE4
:10366000424B93ED007A77EE497AF5EEC07AF1EEAF
:1036700010FA27D43AEE27AAB0EE479A142C26DC8B
:1036800007EE904AB8EEE78ADFED3A7A28EE278A0D
:10369000013407EE104AF8EEC78A68EEA78AF4EE06
:1036A000C88AF1EE10FAB1DDDFED290AB0EE480A62
:1036B000FEF7FAFB012002F0BFFEDFED2F7A38EEB5
:1036C000278AECE7DFED246A77EEA67AD2E7234B70
:1036D0009FED230A0FCBFEF71FFBF0EE4B0AB0EE77
:1036E0006A0A08F0E7FADFED257A60EE277ADFED67
:1036F000246A87EEA67A124C84ED017ADFED216A06
:10370000C6EE8A7AF6EE006A77EEA67AFDEEE77AE2
:1037100017EE903A237017EE100AFCF715FF0246D9
:103720000B461948FDF77AFD21781848FDF776FD1C
:10373000024B1D7007B0BDEC088BF0BDE40000200B
:10374000400100206007002030CB0008000000008E
:10375000C520B03DEC51383F0000B443B404002014
:10376000CDCCCC3DBC0700203CCB0008C8070020D6
:103770006CCB00080000F0428FC2753E000034435D
:10378000DA0F494000801D4594CB0008A8CB000803
:1037900008B558B90B4A1378B3FA83F35B09137071
:1037A000094B19780948FDF757FD08BD0128F7D1E5
:1037B000D2ED007AFCEEE77A17EE903A024A1370E7
:1037C000EEE700BFA60400201A000020B8CB0008D6
:1037D00008B5054B1868FCF7B7FE02460B460348D0
:1037E000FDF73AFD08BD00BFC8070020C8CB0008A0
:1037F00000B583B0012811D1D2ED007AFCEEE77A52
:10380000CDED017A9DF8041009290BD8074B1970EA
:103810000748FDF721FD03B05DF804FB0548FDF7FF
:103820001BFDF8E70348FDF717FDF4E7E40000206F
:10383000ECCB0008D8CB000808B558B9074B18687E
:10384000074B1860FCF780FE02460B460548FDF763
:1038500003FD08BD0448FDF7FFFCFAE7C807002098
:103860005401002008CC0008D8CB0008F8B5054664
:103870000E4617461648FDF7EFFC29461548FDF79A
:10388000EBFC0024EBB2A3420BDD07EB84031868CA
:10389000FCF75AFE02460B460F48FDF7DDFC0134EB
:1038A000F0E7002405E056F824100C48FDF7D4FC9E
:1038B0000134B4EB252FF6DB094C0A4B196820467E
:1038C000FDF7CAFC084B19682046FDF7C5FCF8BD9A
:1038D0001CCC000830CC000840CC00084CCC0008C0
:1038E00064CC000880020020840200202DE9F04111
:1038F000A0F50073012B13D80D46174640F20123A3
:10390000984211D04FF000080024122C13D82968D7
:10391000294B53F83400FDF7EDFD40B90134F4E7CD
:103920002648FDF799FC1AE04FF00108ECE7224B1E
:1039300003EBC404666822496868FDF7DBFD80B1CB
:10394000B8F1000F06D0D7ED007AFCEEE77A17EE5B
:10395000903A3370327829681A48FDF77DFCBDE84B
:10396000F08119496868FDF7C5FD80B1B8F1000F15
:1039700006D0D7ED007AFDEEE77A17EE903A338065
:10398000B6F9002029680F48FDF766FCE7E70F4904
:103990006868FDF7AFFD0028E1D0B8F1000F01D055
:1039A0003B6833603068FCF7CFFD02460B46296860
:1039B0000748FDF751FCD2E7E8010020D8CB00080A
:1039C00068CC00086CCC000880CC00089CD10008B2
:1039D00084CC000870B582B040F20123984204D034
:1039E0002B48FDF739FC02B070BD0C46164629493C
:1039F0002068FDF77FFDB0B1274D0023EB6027491C
:103A00006068FDF777FD002832D03068286065686F
:103A10002468FCF799FDCDE900012A46214620489B
:103A2000FDF71AFCDFE71F492068FDF763FD08B1C9
:103A30001D4DE2E71D492068FDF75CFD08B11C4DF6
:103A4000DBE71C492068FDF755FD08B11A4DD4E7A6
:103A50001A492068FDF74EFD08B1194DCDE7194907
:103A60002068FDF747FD08B90025C6E7164DC4E7F5
:103A700008496068FDF73EFD08B10435C5E7134904
:103A80006068FDF737FD08B10835BEE70025BCE7E3
:103A9000D8CB000898CC0008E8000020B0CC000883
:103AA000B8CC00089CCC00080C010020A0CC000879
:103AB0007C010020A4CC0008C4010020A8CC000890
:103AC000A0010020ACCC000858010020B4CC0008B4
:103AD000012800D0704710B584B0D2ED007AFCEE1A
:103AE000E77ACDED037A9DF80C400D4BDA68009231
:103AF0000ECBB6EE000A2046FEF73CF9052002F098
:103B00009BFC21460748FDF789FB074B1868FCF72B
:103B10001BFD02460B460548FDF780FB04B010BDB7
:103B20009C000020D0CC0008C8070020F0CC000882
:103B300008B50348FDF772FBFEF700FF08BD00BFA4
:103B400008CD000808B50348FDF768FBFFF710FD36
:103B500008BD00BF24CD000808B501280FD1D2ED63
:103B6000007AF5EEC07AF1EE10FA1FDD144B012257
:103B70001A70134B19781348FDF750FB08BD00234A
:103B8000114AD360114AD360114AD360114AD360FD
:103B9000114AD360114AD360094B1978B1FA81F107
:103BA000490919700748FDF739FBE7E7044B002284
:103BB0001A700B4B9FED0B0A0FCBFEF7ADF8D8E751
:103BC000D004002040CD00080C010020E8000020B7
:103BD000C4010020580100207C010020A001002029
:103BE000B4040020CDCCCC3D08B50348FDF716FB4E
:103BF000FFF7E4FA08BD00BF50CD000808B5034840
:103C0000FDF70CFBFFF79AFB08BD00BF6CCD000869
:103C100008B5FEF72FFA0248FDF71EFB08BD00BFEE
:103C200088CD000808B51C491C48FDF737FC1C4925
:103C30001C48FDF733FC1C491C48FDF72FFC1C49B0
:103C40001C48FDF72BFC1C491C48FDF727FC1C49B0
:103C50001C48FDF723FC1C491C48FDF71FFC1C49B0
:103C60001C48FDF71BFC1C491C48FDF717FC1C49B0
:103C70001C48FDF713FC1C491C48FDF70FFC1C49B0
:103C80001C48FDF70BFC1C491C48FDF707FC1C49B0
:103C90001C48FDF703FC08BD6D3800089CCD0008EA
:103CA000ED380008A4CD0008D13A0008A8CD0008DE
:103CB000313B0008B0CD0008453B0008C0CD0008EE
:103CC000593B0008C8CD0008D5390008D0CD000800
:103CD000113C0008D8CD000891370008E0CD00085D
:103CE00039380008E8CD0008D1370008ACCC00080E
:103CF000F1370008F8CD0008E93B000804CE0008C1
:103D0000FD3B000810CE000810B582B000230093E0
:103D100001931148114B036001F0D8F8B0B93C236E
:103D200000930022019269460B4801F018F980B90E
:103D3000094C4FF4006300221146204601F034F98B
:103D40000021204601F0D4F802B010BDFDF7E8F9DB
:103D5000E5E7FDF7E5F9EBE7D40700200074004044
:103D600010B588B00023039304930593069307933B
:103D70000268174B9A4201D008B010BD002401948C
:103D800003F5E2331A6C42F000521A641A6C02F026
:103D900000520192019A02941A6B42F001021A63D6
:103DA0001B6B03F001030293029B10230393032375
:103DB0000493059403A9074801F016FF2246214603
:103DC000362002F07DFA362002F0AEFAD4E700BFCA
:103DD000007400400000024000B589B00023059344
:103DE0000693079301930293039304931D481E4A7D
:103DF00002604FF4803242608360012202610376E8
:103E000080F820304FF08051C1624FF060618162D4
:103E1000C360C26180F83020436100F0C9FEC0B9C0
:103E2000162305934FF4804306930023079305A9B7
:103E30000C4801F0A1F978B90B23019301230293F7
:103E4000039301A9074800F079FF40B909B05DF874
:103E500004FBFDF765F9E3E7FDF762F9ECE7FDF731
:103E60005FF9F3E7300800200020014000B585B07D
:103E7000002300930193029303931348134A0260B3
:103E80004FF48032426083600361037680F8203013
:103E9000C3600122C26180F83030436100F088FEC7
:103EA00060B90C23009301230193029369460648ED
:103EB00000F044FF28B905B05DF804FBFDF730F9C8
:103EC000EFE7FDF72DF9F6E7E807002000210140B4
:103ED00000B585B000230093019302930393134828
:103EE000134A02604FF480324260836003610376BC
:103EF00080F82030C3600122C26180F83030426116
:103F000000F056FE60B90A23009301230193029347
:103F10006946064800F012FF28B905B05DF804FBB9
:103F2000FDF7FEF8EFE7FDF7FBF8F6E7780800206D
:103F30000022014070B588B00023039304930593D9
:103F4000069307930368344A934207D0334A934257
:103F500047D0334A934251D008B070BD0446002583
:103F60000095304B5A6C42F480725A645B6C03F4D7
:103F700080730093009B012303930323049305950F
:103F8000294E03A9304601F02FFE0223039303A913
:103F9000304601F029FE0423039303A9304601F0C3
:103FA00023FE2248224B036045608560C5604FF4C4
:103FB000806303614FF4006343614FF400538361F6
:103FC0004FF48073C3614FF400330362456201F024
:103FD0007FFF18B9154BA3639C63BDE7FDF7A0F8FD
:103FE000F8E7002301930F4B5A6C42F400725A64B5
:103FF0005B6C03F400730193019BADE70023029314
:10400000084B5A6C42F480625A645B6C03F4806320
:104010000293029BA0E700BF002001400021014065
:10402000002201400038024000080240C008002081
:104030001064024000B58BB02648274B0360032371
:10404000436000238360C3604FF4C02202614FF4D9
:10405000A00242610376012242768376C37603771B
:10406000437702F0FDF940BB00230593012206923D
:1040700007921A4909784901009101930293039329
:10408000049308920E2309936946124802F08EFAAF
:10409000B0B9104802F022FBA8B902210D4802F085
:1040A00061FC98B90E4B00221A605A60DA609A607F
:1040B0001A611A750BB05DF804FBFDF731F8D3E710
:1040C000FDF72EF8E5E7FDF72BF8E6E7FDF728F812
:1040D000E8E700BF200900200064004088020020BB
:1040E0004809002010B588B000230393049305937A
:1040F000069307930268194B9A4201D008B010BD8D
:104100000024019403F5EA331A6C42F000721A6439
:104110001A6C02F000720192019A02941A6B42F03A
:1041200001021A631B6B03F001030293029B4FF41D
:10413000C053039302230493059403230693092396
:10414000079303A9064801F04FFD2246214614209B
:1041500002F0B6F8142002F0E7F8CFE70064004060
:104160000000024000B58BB000210191029101AB2B
:1041700003AA02F057FB00BB0799022920D00829A7
:104180005FD1344B1B78032B25D0052B35D0072B63
:1041900045D0022B1CD1BDF90400FDF75FFC2E4B6E
:1041A00083ED000ABDF90600FDF758FC2B4B83EDAB
:1041B000000A2B4B029A1A600AE0FCF7B1FFDBE71A
:1041C0009DF80420234B1A709DF80520254B1A708A
:1041D0000BB05DF804FBBDF90400FDF74BFC224B6E
:1041E00083ED000ABDF90600FDF744FC1F4B83ED8B
:1041F000000A1B4B029A1A60EAE7BDF90400FDF7BA
:1042000039FC1B4B83ED000ABDF90600FDF732FCBB
:10421000184B83ED000A124B029A1A60D8E7BDF9D9
:104220000400FDF727FC144B83ED000ABDF90600DE
:10423000FDF720FC114B83ED000A094B029A1A602E
:10424000C6E700238DF80B3001AB039A0C48FDF74D
:1042500003F8BDE7E4000020DC000020CC040020CF
:10426000EC040020D0040020C00700207C070020C0
:10427000C4040020DC040020E0000020F004002042
:10428000A4CE000830B583B0094C20602261094DEE
:10429000284604F063F901AB2A462146064802F09D
:1042A0004BFA08B903B030BDFCF73AFFFAE700BF9C
:1042B00048090020200500202009002000B583B017
:1042C0000023009301930D480D4A02604360836010
:1042D000C360836102F08EFE50B900230093019306
:1042E0006946064803F082F828B903B05DF804FB7C
:1042F000FCF716FFF1E7FCF713FFF6E7A009002033
:104300000010004000B583B00023009301930F48D4
:104310000F4A026053224260836040F2E732C2607B
:10432000836102F067FE50B9002300930193694650
:10433000064803F05BF828B903B05DF804FBFCF70E
:10434000EFFEF1E7FCF7ECFEF6E700BF200A0020E5
:104350000014004010B596B00024119412941394E8
:10436000149415940F941094089409940A940B943F
:104370000C940D940E9420222146684604F0FCF81B
:104380002C482D4B0360446084604FF6FF73C3607C
:1043900004614461846102F02DFE002838D1254873
:1043A00002F042FE002836D1042311930023129319
:1043B00011A9204802F094FF00282FD140230F9329
:1043C000002310930FA91B4803F010F848BB70237B
:1043D000089340F6FC73099300220A920B920C9208
:1043E0000D920E9208A9134802F08AFEE0B900234C
:1043F000009301930293039304934FF400520592A8
:10440000079369460B4803F035F880B916B010BD24
:10441000FCF786FEC3E7FCF783FEC5E7FCF780FEEA
:10442000CCE7FCF77DFED2E7FCF77AFEDFE7FCF78E
:1044300077FEEBE7600900200004014002680E4BA4
:104440009A4200D0704700B583B00021019103F576
:104450009C335A6C42F001025A645B6C03F0010316
:104460000193019B0A46192001F02AFF192001F04F
:104470005BFF03B05DF804FB0000014000B585B0B0
:104480000368204A934208D01F4A934219D01F4A1A
:1044900093422AD005B05DF804FB002101911C4B2A
:1044A0001A6C42F010021A641B6C03F010030193A3
:1044B000019B0A46362001F003FF362001F034FF4D
:1044C000E8E700210291124B1A6C42F020021A64B4
:1044D0001B6C03F020030293029B0A46372001F075
:1044E000EFFE372001F020FFD4E700230393084BB1
:1044F0005A6C42F002025A645B6C03F002030393AD
:10450000039BC7E700100040001400400004014076
:104510000038024070B588B00023039304930593DC
:104520000693079302681A4B9A4201D008B070BDF7
:104530000024019403F59C331A6B42F002021A63C3
:104540001A6B02F002020192019A02941A6B42F075
:1045500001021A631B6B03F001030293029B4FF4E9
:10456000604303930226049605940694012507955B
:1045700003A9084801F038FB4FF4E0630393049665
:1045800005940694079503A9034801F02DFBCDE798
:104590000000014000040240000002400000000052
:1045A0002DE9F04383B010EE109A10EE900AFBF75D
:1045B000CBFF5DA3D3E90023FCF748F902460B4685
:1045C00000205149FCF742F90022504BFCF714F847
:1045D000FCF70AFB80464846FBF7B6FF04460D464B
:1045E0004046FBF7B1FF06460F4643A3D3E900233D
:1045F000FCF702F802460B4620462946FCF778FAFB
:1046000070B107EE909A07EE108AC7EE877AFCEE3B
:10461000E77ACDED017A9DF8040003B0BDE8F083A0
:1046200037A3D3E9002330463946FBF7E5FF0246BE
:104630000B4620462946FCF75BFAA8B132463B46BA
:1046400030463946FBF722FE02460B4620462946F5
:10465000FCF7FCF800222E4BFBF716FEFCF7A4FA41
:1046600060F07F00C0B2D8E700222A4B30463946BE
:10467000FBF7C2FF02460B4620462946FCF738FAF4
:10468000A8B10022244B30463946FBF7B5FF02465D
:104690000B4620462946FCF7D9F800221F4BFBF7B2
:1046A000F3FDFCF781FA60F03F00C0B2B5E70022ED
:1046B0001B4B30463946FBF79FFF02460B46204610
:1046C0002946FCF715FAA8B10022164B30463946A8
:1046D000FBF792FF02460B4620462946FCF7B6F848
:1046E00000220E4BFBF7D0FDFCF75EFA60F01F00D6
:1046F000C0B292E7FF2090E70000000000C05F40DA
:104700000000000000C06F400000F03F00408F40FC
:104710000000504000807F400000204000004040EA
:1047200000808F40000030400000000080842E4157
:1047300030B593B000241094119409940A940B940A
:104740000C940D940E940F9420252A46214601A81E
:1047500003F012FF3048314B03604460856041F242
:104760006803C3600461012343618023836102F015
:1047700075FC00283DD1202310938023119310A9AC
:10478000254802F033FE002836D160230993002229
:104790000A920B920C920D920E920F9209A91E484A
:1047A00002F0DDFC58BB042209A91B4802F0D7FC2B
:1047B00040BB082209A9184802F0D1FC28BB0024FC
:1047C000019402940394DFED160A9FED160AFFF799
:1047D000E7FE049005944FF400530693089401A952
:1047E0000D4802F047FE98B90B48FFF793FE13B04F
:1047F00030BDFCF795FCBEE7FCF792FCC5E7FCF783
:104800008FFCD0E7FCF78CFCD3E7FCF789FCD6E7FC
:10481000FCF786FCE8E700BFE0090020000001404B
:10482000A037204D0000B44308B50A480A4B036086
:104830000A4B436000238360C36003610C22426122
:104840008361C36102F0B4FF00B908BDFCF768FCE6
:10485000FBE700BF600A00200050004000941100F8
:104860002DE9F04389B00023039304930593069345
:1048700007930268414B9A4202D009B0BDE8F08329
:1048800004460025009503F5F4331A6C42F48012B7
:104890001A641A6C02F480120092009A01951A6B45
:1048A00042F004021A631A6B02F004020192019AA8
:1048B00002951A6B42F008021A631B6B03F008039F
:1048C0000293029B4FF4805303934FF00209CDF8FB
:1048D00010904FF00108CDF81480032706970826A2
:1048E000079603A9264801F07FF904230393CDF826
:1048F0001090CDF814800697079603A9214801F07F
:1049000073F92148214B03604FF0006343608560D9
:10491000C5604FF48063036145618561C5610562CF
:10492000456201F0D5FA18BB174B63639C631848C6
:10493000184B03604FF00063436040238360002303
:10494000C3604FF48062026143618361C3610362AB
:10495000436201F0BDFA70B90D4B23639C630022E2
:104960000221352001F0ACFC352001F0DDFC84E7AC
:10497000FCF7D6FBD8E7FCF7D3FBEDE7005000408F
:1049800000080240000C0240A00A00201060024013
:10499000000B0020B86002407047FEE7FEE7FEE72C
:1049A000FEE770477047704708B501F033FD08BD5A
:1049B00008B5024801F084FB08BD00BFA00A002032
:1049C00008B5024802F0F4F908BD00BFE009002074
:1049D00008B5024801F074FB08BD00BF000B0020C1
:1049E00010B5074C204603F06FF923681B6813F0DD
:1049F000100F00D110BD2046FCF774FCFAE700BF91
:104A0000600A002008B5024802F0D2F908BD00BFD4
:104A1000A009002008B5024802F0CAF908BD00BF8D
:104A2000200A002008B5024801F04AFB08BD00BF7B
:104A3000C008002008B5024801F0B2FF08BD00BF61
:104A40002009002082B0002100910B4B5A6C42F4E7
:104A500080425A645A6C02F480420092009A01919A
:104A60001A6C42F080521A641B6C03F0805301935D
:104A7000019B02B0704700BF003802404A4B5A68A1
:104A800022F440325A605A6841680A435A60026808
:104A9000536823F48073536002685368016943EAE2
:104AA000012353600268536823F040735360026827
:104AB000536881680B4353600268936823F4006372
:104AC000936002689368C1680B439360826A374BB6
:104AD0009A4257D00268936823F07063936002682B
:104AE0009368816A0B4393600268936823F0405394
:104AF000936002689368C16A0B439360026893688D
:104B000023F00203936002689368017E43EA410345
:104B1000936090F82030002B3FD00268536843F434
:104B2000006353600268536823F460435360016874
:104B30004B68426A013A43EA42334B600268D36AE7
:104B400023F47003D3620168CB6AC269013A43EA75
:104B50000253CB620268936823F400739360026887
:104B6000936890F8301043EA412393600268936899
:104B700023F48063936002689368416943EA812368
:104B8000936070470268936823F0706393600268D3
:104B9000936823F040539360B0E70268536823F4AE
:104BA00000635360CAE700BF002301400100000F0B
:104BB00038B310B50446036C43B1236C13F0100FE7
:104BC0000BD00120002384F83C3010BDFFF7B2F970
:104BD0000023636484F83C30EFE7236C23F48853AC
:104BE00023F0020343F0020323642046FFF746FF4D
:104BF00000206064236C23F0030343F0010323646B
:104C0000E0E701207047000082B00023019390F894
:104C10003C30012B7DD0012380F83C3003689A683A
:104C200012F0010F13D19A6842F001029A603D4BD5
:104C30001B683D4AA2FB03239B0C03EB4303019338
:104C400002E0019B013B0193019B002BF9D102681B
:104C5000936813F0010F5ED0036C23F4E06323F03C
:104C6000010343F480730364536813F4806F05D029
:104C7000036C23F4405343F480530364036C13F434
:104C8000805F1BD0436C23F006034364002380F84D
:104C90003C306FF022031360244B5B6813F01F0F4E
:104CA00027D10368224A934211D002F580729342C1
:104CB00007D0204A934214D000202DE00023436403
:104CC000E4E702F50072526812F01F0FF1D19A6802
:104CD00012F0405F22D19A6842F080429A60002030
:104CE0001AE002F58072526812F0100FEFD0002027
:104CF00012E003680E4A934201D000200CE09A684B
:104D000012F0405F0CD19A6842F080429A60002015
:104D100002E0022000E0002002B070470020FBE724
:104D20000020F9E79002002083DE1B4300230140AE
:104D300000200140002201407047704730B482B02B
:104D40000023019390F83C30012B00F0B780012341
:104D500080F83C300B68092B3ED90568EA689BB2A5
:104D600003EB43031E3B072404FA03F322EA030385
:104D7000EB600568EA688C680B8803EB43031E3B15
:104D800004FA03F31343EB604B68062B3AD805682B
:104D90006A6B03EB8303053B1F2404FA03F322EA47
:104DA00003036B6305686A6B4B6803EB8303053B86
:104DB0000C8804FA03F313436B630268404B9A4276
:104DC00050D002683E4B9A4255D0002380F83C30C8
:104DD000184602B030BC704705682A699BB203EBE5
:104DE0004303072404FA03F322EA03032B61056853
:104DF0002A698C680B8803EB430304FA03F313431B
:104E00002B61C1E70C2B16D805682A6B03EB8303D3
:104E1000233B1F2404FA03F322EA03032B630568F0
:104E20002A6B4B6803EB8303233B0C8804FA03F3E0
:104E300013432B63C1E70568EA6A03EB8303413B35
:104E40001F2404FA03F322EA0303EB620568EA6A0B
:104E50004B6803EB8303413B0C8804FA03F31343D1
:104E6000EB62AAE70B68122BABD1164A536843F4E6
:104E700080035360A5E70B68103B012BA5D8114AAE
:104E8000536843F4000353600B68102B9DD10E4B05
:104E90001B6802F1467202F52E3202F28332A2FB47
:104EA00003239B0C03EB83035B00019302E0019B54
:104EB000013B0193019B002BF9D186E7022088E793
:104EC00000200140002301409002002070B110B585
:104ED0000446037933B102232371002020610123AA
:104EE000237110BD4371FEF73BFFF4E701207047CB
:104EF0004379012B31D010B4012343710222027196
:104F0000046822688B4013432360B1B902681168BA
:104F1000136803F0380311F0040F01D0382B07D0C9
:104F2000012303710023437118465DF8044B704759
:104F3000536843F001035360F2E702681168136895
:104F400003F4601311F4802FEAD0B3F5601FE7D1AA
:104F5000536843F002035360E2E70220704743794D
:104F6000012B1FD070B4012545710223037106681F
:104F7000336840F6FE74944023EA04040B684968E1
:104F80000B4393402343336004682368C02101FA34
:104F900002F223EA020222600571002343711846DF
:104FA00070BC70470220704710B483B00024019495
:104FB0000068019051B901990A4408320192019A9E
:104FC0001360002003B05DF8044B704701990A4458
:104FD00014320192F3E708B5806B40230364436CFD
:104FE00043F004034364FFF7A8FE08BD08B5806BD7
:104FF000FFF7A2FE08BD08B5836B1A6C12F0500FC4
:1050000026D11A6C42F400721A641A68916811F081
:10501000405F19D1197EB9B9D16A11F4700F03D06C
:10502000916811F4806F0FD1516821F02001516017
:105030001A6C22F480721A641A6C12F4805F03D125
:105040001A6C42F001021A641846FDF71DFE08BDF5
:105050009B6BDB6C9847FAE730B583B013460022B0
:10506000019290F83C20012A71D00546012280F877
:105070003C200268906810F0010F13D1906840F056
:1050800001009060354A1068354AA2FB0020800C70
:1050900000EB4000019002E0019C013C019401986A
:1050A0000028F9D12A68906810F0010F51D0286CBF
:1050B00020F4E06020F0010040F480702864526821
:1050C00012F4806F05D02A6C22F4405242F48052D0
:1050D0002A642A6C12F4805F30D06A6C22F00602D7
:1050E0006A64002285F83C20AA6B1E48D063AA6B34
:1050F0001D481064AA6B1D48D0642A686FF0020036
:1051000010602868426842F08062426095F8302062
:10511000BAB11748426842F4005242600A46154943
:10512000A86B00F03BFF2B689A6812F0405F13D128
:105130009A6842F080429A6000200BE000226A6484
:10514000CFE70B48426822F400524260E6E70220B3
:1051500000E0002003B030BD0020FBE790020020FB
:1051600083DE1B43F74F0008ED4F0008D74F0008C0
:10517000002301400823014090F83C30012B23D04C
:1051800010B4012380F83C30104B5A6822F01F0203
:105190005A605A680C6822435A605A6822F44042A6
:1051A0005A605A684C6822435A605A6822F4706206
:1051B0005A605A6889680A435A60002380F83C3074
:1051C00018465DF8044B70470220704700230140E9
:1051D000002800F0D98170B582B00446036813F04E
:1051E000010F3BD0A64B9B6803F00C03042B2CD083
:1051F000A34B9B6803F00C03082B21D06368B3F525
:10520000803F4FD0B3F5A02F52D09D4B1A6822F4A7
:1052100080321A601A6822F480221A606368002BB8
:1052200050D001F003F90546954B1B6813F4003F7D
:1052300014D101F0FBF8401B6428F5D90320AAE142
:105240008F4B5B6813F4800FD8D08D4B1B6813F421
:10525000003F03D06368002B00F09881236813F0AF
:10526000020F54D0864B9B6813F00C0F3ED0844B3A
:105270009B6803F00C03082B33D0E368002B67D046
:10528000804B01221A6001F0D1F805467C4B1B6867
:1052900013F0020F53D101F0C9F8401B0228F5D9D1
:1052A000032078E1764A136843F480331360B5E74E
:1052B000734B1A6842F480221A601A6842F48032F2
:1052C0001A60ABE701F0B2F805466D4B1B6813F4AA
:1052D000003FC3D001F0AAF8401B6428F5D9032091
:1052E00059E1674B5B6813F4800FC6D1644B1B68B0
:1052F00013F0020F03D0E368012B40F04981604AAC
:10530000136823F0F803216943EAC103136023689B
:1053100013F0080F40D0636963B35B4B01221A603E
:1053200001F084F80546564B5B6F13F0020F33D142
:1053300001F07CF8401B0228F5D903202BE1504AEC
:10534000136823F0F803216943EAC1031360DEE721
:105350004C4B00221A6001F069F80546484B1B6867
:1053600013F0020FD3D001F061F8401B0228F5D9E9
:10537000032010E1444B00221A6001F057F8054663
:105380003F4B5B6F13F0020F06D001F04FF8401B4C
:105390000228F5D90320FEE0236813F0040F78D02B
:1053A000374B1B6C13F0805F0DD100230193344BFE
:1053B0001A6C42F080521A641B6C03F08053019304
:1053C000019B012500E00025304B1B6813F4807F12
:1053D00021D0A368012B32D0052B36D0284B1A6F71
:1053E00022F001021A671A6F22F004021A67A368FA
:1053F000002B34D001F01AF80646214B1B6F13F036
:10540000020F45D101F012F8801B41F28833984217
:10541000F3D90320BFE01D4A136843F4807313607F
:1054200001F004F80646194B1B6813F4807FD0D1B5
:1054300000F0FCFF801B0228F5D90320ABE0104AE6
:10544000136F43F001031367D1E70D4B1A6F42F05E
:1054500004021A671A6F42F001021A67C7E700F0E8
:10546000E5FF0646064B1B6F13F0020F10D000F04D
:10547000DDFF801B41F288339842F3D903208AE094
:105480000038024000004742800E47420070004052
:10549000E5B9A369002B7DD0464A926802F00C0260
:1054A000082A51D0022B17D0434B00221A6000F07B
:1054B000BDFF04463F4B1B6813F0007F42D000F055
:1054C000B5FF001B0228F5D9032064E0394A136CAC
:1054D00023F080531364DCE7374B00221A6000F09E
:1054E000A5FF0546334B1B6813F0007F06D000F084
:1054F0009DFF401B0228F5D903204CE0E369226A96
:105500001343626A43EA8213A26A5208013A43EAE9
:105510000243E26A43EA0263264A5360264B0122B1
:105520001A6000F083FF0446224B1B6813F0007FD3
:1055300006D100F07BFF001B0228F5D903202AE0EA
:10554000002028E0002026E0012B26D0194B9B6884
:1055500003F48001E269914221D103F03F02216A04
:105560008A421ED1616A47F6C0721A408A421AD135
:1055700003F44032A16A8A4217D103F07063E26AF1
:10558000934214D1002006E001207047012002E080
:10559000012000E0002002B070BD0120FBE70120E7
:1055A000F9E70120F7E70120F5E70120F3E7012003
:1055B000F1E700BF0038024060004742F8B52F4BCA
:1055C0009B6803F00C03042B53D0082B53D12B4BB7
:1055D0005A6802F03F025B6813F4800F28D0274B13
:1055E0005B68C3F3881358010021C01A61F1000100
:1055F0008E0146EA906687013C1A66EB0105E900D8
:1056000041EA5471E000C01841F100014B0243EA45
:10561000D0534402204619460023FBF735FB174BB5
:105620005B68C3F3014301335B00B0FBF3F023E09D
:10563000124B5B68C3F388135C010025E41A65F123
:105640000005AE0146EA9466A701381B66EB05012A
:10565000CC0044EA5074C500E81844F100018B0204
:1056600043EA90538402204619460023FBF70CFBC3
:10567000D5E7034800E00348F8BD00BF003802400A
:1056800000127A000024F400002800F09B8070B51E
:105690000D4604464F4B1B6803F00F038B4208D2A4
:1056A000CBB24C4A1370136803F00F038B4240F0E7
:1056B0008B80236813F0020F17D013F0040F04D06F
:1056C000454A936843F4E0539360236813F0080F4E
:1056D00004D0414A936843F4604393603E4A936820
:1056E00023F0F003A1680B439360236813F0010FCC
:1056F00032D06368012B21D09A1E012A25D9364A5F
:10570000126812F0020F61D033498A6822F0030256
:1057100013438B6000F08AFE06462F4B9B6803F014
:105720000C036268B3EB820F16D000F07FFE801B83
:1057300041F288339842F0D9032042E0264A1268A9
:1057400012F4003FE0D101203BE0234A126812F03E
:10575000007FD9D1012034E01E4B1B6803F00F03FA
:10576000AB4207D9EAB21B4B1A701B6803F00F0358
:10577000AB422DD1236813F0040F06D0164A93686C
:1057800023F4E053E1680B439360236813F0080FA0
:1057900007D0114A936823F46043216943EAC103A7
:1057A0009360FFF70BFF0C4B9B68C3F303130B4A8B
:1057B000D35CD8400A4B18600A4B186800F0EAFD29
:1057C000002070BD012070470120FAE70120F8E7B2
:1057D0000120F6E7003C024000380240BCCE000841
:1057E000900200208C020020014B1868704700BF17
:1057F0009002002008B5FFF7F7FF044B9B68C3F346
:105800008223034AD35CD84008BD00BF0038024061
:10581000CCCE000808B5FFF7E7FF044B9B68C3F345
:105820004233034AD35CD84008BD00BF0038024071
:10583000CCCE000810B40A490C6924F440740C6101
:105840000C6944F440740C610C6944F001040C616F
:105850000260BFF36F8F43605DF8044B704700BF79
:10586000003C0240074B1A6922F440721A611A691F
:1058700042F400721A611A6942F001021A61016071
:10588000704700BF003C0240074B1A6922F4407287
:105890001A611A6942F480721A611A6942F00102AF
:1058A0001A610180704700BF003C0240064B1A6934
:1058B00022F440721A611A691A611A6942F00102EF
:1058C0001A610170704700BF003C0240204BDB684A
:1058D00013F0100F07D01F4AD36943F01003D361B0
:1058E0001B4B1022DA601A4BDB6813F0200F07D035
:1058F000184AD36943F00803D361154B2022DA60BC
:10590000134BDB6813F0400F07D0124AD36943F002
:105910000403D3610E4B4022DA600D4BDB6813F0B9
:10592000800F07D00B4AD36943F00203D361084BC1
:105930008022DA60064BDB6813F0020F07D0054ABD
:10594000D36943F02003D361014B0222DA60704730
:10595000003C0240600B0020094B1B69002B01DB5F
:1059600000207047064B074A5A6002F188325A609D
:105970001B69002B01DB002070470120704700BF2E
:10598000003C024023016745034A136943F000438A
:1059900013610020704700BF003C024038B5044648
:1059A000144B0022DA6100F041FD0546124BDB6822
:1059B00013F4803F0AD0B4F1FF3FF7D024B100F0D8
:1059C00035FD401BA042F1D903200DE00A4BDB68F6
:1059D00013F0010F02D0084B0122DA60064BDB689E
:1059E00013F0F20F01D1002038BDFFF76FFF012047
:1059F000FAE700BF600B0020003C0240F8B51646F5
:105A00001B4A127E012A30D004460D461F46184B11
:105A100001221A764CF25030FFF7C0FF90B9ACB1BA
:105A2000012C18D0022C1BD032463B462846FFF7EB
:105A300001FF4CF25030FFF7B1FF0E4A136923F01B
:105A4000010313610A4B00221A76F8BDF1B2284611
:105A5000FFF72CFFEDE7B1B22846FFF715FFE8E7A7
:105A600031462846FFF7FEFEE3E70220EDE700BFE0
:105A7000600B0020003C0240074B196921F4407183
:105A80001961196941F0040119611A6942EA002299
:105A900042F480321A617047003C024010B449B1B0
:105AA000012921D0022902D04FF4407403E04FF4C1
:105AB000007400E000240E4B196921F44071196153
:105AC0001A6922431A611A6922F0F8021A611A69E6
:105AD00042EAC00040F0020018611A6942F48032C4
