:020000040800F2
:10000000000002200D6D00088D3C00088F3C0008A8
:10001000913C0008933C0008953C0008000000005B
:10002000000000000000000000000000973C0008F5
:10003000993C0008000000009B3C00089D3C000823
:100040005D6D00085D6D00085D6D00085D6D000868
:100050005D6D00085D6D00085D6D00085D6D000858
:100060005D6D00085D6D00085D6D0008A53C000831
:100070005D6D00085D6D00085D6D00085D6D000838
:100080005D6D00085D6D00085D6D00085D6D000828
:100090005D6D00085D6D00085D6D00085D6D000818
:1000A0005D6D0008B53C00085D6D00085D6D0008E1
:1000B0005D6D00085D6D00085D6D00085D6D0008F8
:1000C0005D6D00085D6D00085D6D00085D6D0008E8
:1000D0005D6D00085D6D00085D6D00085D6D0008D8
:1000E0005D6D00085D6D00085D6D00085D6D0008C8
:1000F0005D6D00085D6D00085D6D0008C53C000881
:100100005D6D00085D6D00085D6D00085D6D0008A7
:100110005D6D0008D53C0008F93C0008093D000869
:10012000193D00085D6D0008293D00085D6D00085F
:100130005D6D000800000000000000005D6D00081B
:100140005D6D00085D6D00085D6D00085D6D000867
:100150005D6D00085D6D00085D6D00085D6D000857
:100160005D6D00085D6D00085D6D00085D6D000847
:100170005D6D00085D6D00080000000000000000DB
:080180005D6D00085D6D0008D3
:1001900010B5054C237833B9044B13B10448AFF3C1
:1001A00000800123237010BDB80300200000000070
:1001B0001CA9000808B5034B1BB103490348AFF362
:1001C000008008BD00000000BC0300201CA900083E
:1001D000034613F8012B002AFBD1181A0138704787
:1001E00001F0FF01102A2BDB10F0070F08D010F8E8
:1001F000013B013A8B422DD010F0070F42B3F6D1EC
:10020000F0B441EA012141EA014122F007047FF004
:1002100000070023F0E80256083C85EA010586EA5B
:10022000010685FA47F5A3FA87F586FA47F6A5FA97
:1002300087F68EB9EED1F0BC01F0FF0102F00702A3
:1002400032B110F8013B013A83EA010313B1F8D14E
:100250000020704701387047002D06BF354603382F
:10026000073815F0010F07D1013015F4807F02BF68
:10027000013015F4C03F0130F0BC0138704700BFB9
:1002800081F0004102E000BF83F0004330B54FEA47
:1002900041044FEA430594EA050F08BF90EA020FB4
:1002A0001FBF54EA000C55EA020C7FEA645C7FEA47
:1002B000655C00F0E2804FEA5454D4EB5555B8BF6A
:1002C0006D420CDD2C4480EA020281EA030382EADB
:1002D000000083EA010180EA020281EA0303362D6D
:1002E00088BF30BD11F0004F4FEA01314FF4801C40
:1002F0004CEA113102D0404261EB410113F0004F52
:100300004FEA03334CEA133302D0524263EB430308
:1003100094EA050F00F0A780A4F10104D5F1200EA6
:100320000DDB02FA0EFC22FA05F2801841F1000101
:1003300003FA0EF2801843FA05F359410EE0A5F1D5
:1003400020050EF1200E012A03FA0EFC28BF4CF006
:10035000020C43FA05F3C01851EBE37101F00045BC
:1003600007D54FF0000EDCF1000C7EEB00006EEBC9
:100370000101B1F5801F1BD3B1F5001F0CD3490853
:100380005FEA30004FEA3C0C04F101044FEA4452AA
:1003900012F5800F80F09A80BCF1004F08BF5FEA31
:1003A000500C50F1000041EB045141EA050130BD11
:1003B0005FEA4C0C404141EB0101013C28BFB1F523
:1003C000801FE9D291F0000F04BF01460020B1FA6E
:1003D00081F308BF2033A3F10B03B3F120020CDA41
:1003E0000C3208DD02F1140CC2F10C0201FA0CF01F
:1003F00021FA02F10CE002F11402D8BFC2F1200C84
:1004000001FA02F120FA0CFCDCBF41EA0C01904039
:10041000E41AA2BF01EB0451294330BD6FEA040482
:100420001F3C1CDA0C340EDC04F11404C4F120026D
:1004300020FA04F001FA02F340EA030021FA04F37F
:1004400045EA030130BDC4F10C04C4F1200220FAD6
:1004500002F001FA04F340EA0300294630BD21FA14
:1004600004F0294630BD94F0000F83F4801306BFDA
:1004700081F480110134013D4EE77FEA645C18BFCE
:100480007FEA655C29D094EA050F08BF90EA020F65
:1004900005D054EA000C04BF1946104630BD91EA5D
:1004A000030F1EBF0021002030BD5FEA545C05D160
:1004B0004000494128BF41F0004130BD14F580049F
:1004C0003CBF01F5801130BD01F0004545F0FE4113
:1004D00041F470014FF0000030BD7FEA645C1ABF48
:1004E000194610467FEA655C1CBF0B46024650EA7F
:1004F000013406BF52EA033591EA030F41F40021AB
:1005000030BD00BF90F0000F04BF0021704730B530
:100510004FF4806404F132044FF000054FF0000105
:1005200050E700BF90F0000F04BF0021704730B5C6
:100530004FF4806404F1320410F0004548BF40429B
:100540004FF000013EE700BF42004FEAE2014FEAF0
:1005500031014FEA02701FBF12F07F4393F07F4FCB
:1005600081F06051704732F07F4208BF704793F0CE
:100570007F4F04BF41F40021704730B54FF46074E1
:1005800001F0004521F000411CE700BF50EA0102E4
:1005900008BF704730B54FF000050AE050EA01028D
:1005A00008BF704730B511F0004502D5404261EBFD
:1005B00041014FF4806404F132045FEA915C3FF43E
:1005C000D8AE4FF003025FEADC0C18BF03325FEADB
:1005D000DC0C18BF033202EBDC02C2F1200300FA8C
:1005E00003FC20FA02F001FA03FE40EA0E0021FAB1
:1005F00002F11444BDE600BF70B54FF0FF0C4CF49F
:10060000E06C1CEA11541DBF1CEA135594EA0C0F50
:1006100095EA0C0F00F0DEF82C4481EA030621EA8B
:100620004C5123EA4C5350EA013518BF52EA0335C6
:1006300041F4801143F4801338D0A0FB02CE4FF078
:100640000005E1FB02E506F00042E0FB03E54FF0A8
:100650000006E1FB03569CF0000F18BF4EF0010EA0
:10066000A4F1FF04B6F5007F64F5407404D25FEA9C
:100670004E0E6D4146EB060642EAC62141EA55514F
:100680004FEAC52040EA5E504FEACE2EB4F1FD0C91
:1006900088BFBCF5E06F1ED8BEF1004F08BF5FEA0F
:1006A000500E50F1000041EB045170BD06F00046C1
:1006B00046EA010140EA020081EA0301B4EB5C046E
:1006C000C2BFD4EB0C0541EA045170BD41F4801166
:1006D0004FF0000E013C00F3AB8014F1360FDEBF8B
:1006E000002001F0004170BDC4F10004203C35DA67
:1006F0000C341BDC04F11404C4F1200500FA05F3EA
:1007000020FA04F001FA05F240EA020001F000428A
:1007100021F0004110EBD37021FA04F642EB060100
:100720005EEA430E08BF20EAD37070BDC4F10C042A
:10073000C4F1200500FA04F320FA05F001FA04F2EE
:1007400040EA020001F0004110EBD37041F10001DA
:100750005EEA430E08BF20EAD37070BDC4F12005E5
:1007600000FA05F24EEA020E20FA04F301FA05F24D
:1007700043EA020321FA04F001F0004121FA04F2F5
:1007800020EA020000EBD3705EEA430E08BF20EAC5
:10079000D37070BD94F0000F0FD101F000464000FF
:1007A00041EB010111F4801F08BF013CF7D041EA81
:1007B000060195F0000F18BF704703F00046520085
:1007C00043EB030313F4801F08BF013DF7D043EA56
:1007D0000603704794EA0C0F0CEA135518BF95EA0C
:1007E0000C0F0CD050EA410618BF52EA4306D1D193
:1007F00081EA030101F000414FF0000070BD50EAB2
:10080000410606BF1046194652EA430619D094EA3B
:100810000C0F02D150EA013613D195EA0C0F05D125
:1008200052EA03361CBF104619460AD181EA030179
:1008300001F0004141F0FE4141F470014FF0000031
:1008400070BD41F0FE4141F4780170BD70B54FF0CC
:10085000FF0C4CF4E06C1CEA11541DBF1CEA13554C
:1008600094EA0C0F95EA0C0F00F0A7F8A4EB05042E
:1008700081EA030E52EA03354FEA013100F0888025
:100880004FEA03334FF0805545EA131343EA1263EE
:100890004FEA022245EA111545EA10654FEA0026A3
:1008A0000EF000419D4208BF964244F1FD0404F55C
:1008B000407402D25B084FEA3202B61A65EB0305B8
:1008C0005B084FEA32024FF480104FF4002CB6EB75
:1008D000020E75EB030E22BFB61A754640EA0C00F5
:1008E0005B084FEA3202B6EB020E75EB030E22BF35
:1008F000B61A754640EA5C005B084FEA3202B6EB76
:10090000020E75EB030E22BFB61A754640EA9C0034
:100910005B084FEA3202B6EB020E75EB030E22BF04
:10092000B61A754640EADC0055EA060E18D04FEAC2
:10093000051545EA16754FEA06164FEAC30343EA62
:1009400052734FEAC2025FEA1C1CC0D111F4801F2F
:100950000BD141EA00014FF000004FF0004CB6E728
:1009600011F4801F04BF01430020B4F1FD0C88BFC7
:10097000BCF5E06F3FF6AFAEB5EB030C04BFB6EBD2
:10098000020C5FEA500C50F1000041EB045170BDC5
:100990000EF0004E4EEA113114EB5C04C2BFD4EBF2
:1009A0000C0541EA045170BD41F480114FF0000E76
:1009B000013C90E645EA060E8DE60CEA135594EAF2
:1009C0000C0F08BF95EA0C0F3FF43BAF94EA0C0FF5
:1009D0000AD150EA01347FF434AF95EA0C0F7FF46A
:1009E00025AF104619462CE795EA0C0F06D152EABE
:1009F00003353FF4FDAE1046194622E750EA4106A2
:100A000018BF52EA43067FF4C5AE50EA41047FF4B2
:100A10000DAF52EA43057FF4EBAE12E74FF0FF3C17
:100A200006E000BF4FF0010C02E000BF4FF0010CE8
:100A30004DF804CD4FEA410C7FEA6C5C4FEA430C61
:100A400018BF7FEA6C5C1BD001B050EA410C0CBFB0
:100A500052EA430C91EA030F02BF90EA020F002012
:100A6000704710F1000F91EA030F58BF994208BF79
:100A700090422CBFD8176FEAE37040F00100704736
:100A80004FEA410C7FEA6C5C02D150EA013C07D18D
:100A90004FEA430C7FEA6C5CD6D152EA033CD3D0D8
:100AA0005DF8040B704700BF8446104662468C46D2
:100AB0001946634600E000BF01B5FFF7B7FF002805
:100AC00048BF10F1000F01BD4DF808EDFFF7F4FF2E
:100AD0000CBF012000205DF808FB00BF4DF808EDB9
:100AE000FFF7EAFF34BF012000205DF808FB00BFDC
:100AF0004DF808EDFFF7E0FF94BF012000205DF8FE
:100B000008FB00BF4DF808EDFFF7CEFF94BF0120B2
:100B100000205DF808FB00BF4DF808EDFFF7C4FFAB
:100B200034BF012000205DF808FB00BF4FEA410CF4
:100B30007FEA6C5C02D150EA013C0AD14FEA430CD7
:100B40007FEA6C5C02D152EA033C02D14FF0000014
:100B500070474FF0010070474FEA410212F5001252
:100B600015D211D56FF47873B3EB625212D94FEAF4
:100B7000C12343F0004343EA505311F0004F23FADE
:100B800002F018BF404270474FF00000704750EA33
:100B9000013005D111F0004008BF6FF000407047F0
:100BA0004FF00000704700BF4A0011D212F500124A
:100BB00011D20DD56FF47873B3EB62520ED44FEAB5
:100BC000C12343F0004343EA505323FA02F0704735
:100BD0004FF00000704750EA013002D14FF0FF3073
:100BE00070474FF0000070474FEA4102B2F1E04316
:100BF00024BFB3F5001CDCF1FE5C0DD901F0004C04
:100C00004FEAC0024CEA5070B2F1004F40EB830053
:100C100008BF20F00100704711F0804F21D113F17F
:100C20003872BCBF01F00040704741F480114FEAB8
:100C30005252C2F11802C2F1200C10FA0CF320FA41
:100C400002F018BF40F001004FEAC1234FEAD3235E
:100C500003FA0CFC40EA0C0023FA02F34FEA4303C8
:100C6000CCE77FEA625307D150EA01331EBF4FF051
:100C7000FE4040F44000704701F0004040F0FE406C
:100C800040F40000704700BF53B94AB9002908BFBB
:100C900000281CBF4FF0FF314FF0FF3000F0A4B927
:100CA000ADF1080C6DE904CE00F03CF8DDF804E08D
:100CB000DDE9022304B0704738B500220023044662
:100CC0000D46FFF70BFF28B920462946BDE83840FE
:100CD00000F00AB8204605F1004100F005F8404256
:100CE00061EB410138BD00BFD0B50C4B0022064678
:100CF0000F46FFF781FCFFF757FF0446FFF702FCA2
:100D0000074B0022FFF778FC02460B463046394677
:100D1000FFF7BAFAFFF748FF2146D0BD0000F03DCB
:100D20000000F0412DE9F047089D04468C46002B59
:100D300040F083808A42174647D9B2FA82F242B124
:100D4000C2F1200024FA00F09140974040EA010CE3
:100D500094404FEA1748230CBCFBF8F61FFA87FEB5
:100D600008FB16C143EA014306FB0EF1994209D97B
:100D7000FB1806F1FF3080F01981994240F216818C
:100D8000023E3B445B1AA4B2B3FBF8F008FB1033FD
:100D900044EA034400FB0EFEA64509D93C1900F1C4
:100DA000FF3380F00581A64540F2028102383C44C1
:100DB00040EA0640A4EB0E0400261DB1D4400023F7
:100DC000C5E900433146BDE8F08702B9FFDEB2FA5B
:100DD00082F2002A50D1CB1B4FEA174E1FFA87F838
:100DE0000126B3FBFEFC210C0EFB1C3341EA034140
:100DF00008FB0CF38B4207D979180CF1FF3002D2B3
:100E00008B4200F2E9808446C91AA3B2B1FBFEF01E
:100E10000EFB101143EA014408FB00F8A04507D976
:100E20003C1900F1FF3302D2A04500F2D9801846E8
:100E3000A4EB080440EA0C40BFE78B4209D9002D1F
:100E400000F0B1800026C5E9000130463146BDE81A
:100E5000F087B3FA83F6002E4AD18B4202D3824246
:100E600000F2B880841A61EB030101208C46002D4A
:100E7000A8D0C5E9004CA5E7C2F1200320FA03F68B
:100E8000974001FA02F04FEA174ED9403043030C65
:100E9000B1FBFEF61FFA87F80EFB161143EA014379
:100EA00006FB08F1994204FA02F409D9FB1806F18D
:100EB000FF3C80F08D80994240F28A80023E3B44A4
:100EC0005B1A81B2B3FBFEF00EFB103341EA034123
:100ED00000FB08F38B4207D9791800F1FF3C73D26D
:100EE0008B4271D902383944CB1A40EA064678E77A
:100EF000C6F1200C03FA06F422FA0CF31C4320FA84
:100F00000CF701FA06F34FEA144E21FA0CF11F43D5
:100F10003B0CB1FBFEF91FFA84F80EFB191143EAF2
:100F2000014109FB08FA8A4502FA06F200FA06F3C3
:100F300008D9611809F1FF3048D28A4546D9A9F18C
:100F400002092144A1EB0A01BFB2B1FBFEF00EFB86
:100F5000101147EA014700FB08F8B84507D9E7191F
:100F600000F1FF312ED2B8452CD90238274440EA8F
:100F70000940A7EB0807A0FB02894F45C646494632
:100F80001AD317D05DB1B3EB0E0267EB010707FA76
:100F90000CFCF2404CEA0202F740C5E900270026AB
:100FA0003146BDE8F0872E4628460BE70646E9E6BF
:100FB0001846FDE64345E5D2B8EB020E69EB0401A5
:100FC0000138DFE70846D2E760468DE78146B9E79A
:100FD000664675E730464AE7ACF1020C394413E740
:100FE00002383C4424E700BF704700BF30B595B0DD
:100FF0003022002108A805F0F7FE00240394049491
:1010000005940694079401941C4B1A6C42F080528C
:101010001A641B6C03F080530193019B0294184BDC
:101020001A6842F480421A601B6803F480430293FA
:10103000029B012308934FF48033099302250E95F8
:101040004FF480030F9304231093A8231193129558
:101050000723139308A803F0A9F90F23039304951A
:1010600005944FF4A05306934FF480530793052142
:1010700003A803F0F7FB15B030BD00BF00380240F5
:101080000070004008B504F087FAFFF7AFFF05F0E5
:10109000DBFB00F0D9FC02F043F902F093F902F017
:1010A000D7F802F0C1FC02F0D1FA02F039FD02F0EB
:1010B00081FA02F0A3FA02221146104800F074F8F7
:1010C0000F4800F0A3F8012000F0F6FF05F0E8FB60
:1010D00040220C490C4800F0FDFA01F01FFA0B48C1
:1010E00000F094F80A4B01221A7001E000F010F9A8
:1010F000084B1B78002BFBD0F8E700BFF40800205A
:1011000038A9000800040240180A002048A9000875
:10111000D4030020660400207047000008B50A468A
:101120000D4B1B78012B0BD0022B0FD003B108BD48
:101130004FF47A7301460948006805F07EF8F6E737
:101140000146064B186805F0E9F8F0E70146034B45
:10115000186805F035F9EAE7D5030020DC03002024
:1011600008B50D4B1B78012B02D0022B07D008BD10
:1011700001220A490A4B186805F0F4F8F7E7084B12
:1011800018680268D36843F01003D3601D22054934
:1011900005F05CF9EBE700BF00000020CD04002063
:1011A000DC0300204804002008B5054B1970054BEE
:1011B0001A70054B186001F0F1FFFFF7D1FF08BD71
:1011C000D503002000000020DC03002000B585B01E
:1011D0008DED000ACDED010A8DED021ACDED031A59
:1011E00009480D2303750A234375009B4360019B47
:1011F0008360029BC360039B03611621FFF78EFF90
:1012000005B05DF804FB00BF040000200FB410B56A
:1012100082B004AB53F8042B0193094C652120469E
:1012200007F06CF94FF47A7382B2214605480068E2
:1012300005F003F802B0BDE8104004B0704700BFED
:1012400068040020DC0300200FB410B582B004ABAA
:1012500053F8042B0193074C6521204607F04EF903
:1012600081B22046FFF75AFF02B0BDE8104004B03B
:10127000704700BF68040020114B1B68834200D0F8
:10128000704710B50F4B1B680F4A11780F4AD154A5
:101290005C1E125D0D2A01D10A2907D00133094ACB
:1012A00013600122084905F05DF810BD0023074ACC
:1012B0001355074A01211170024A1360F5E700BF78
:1012C000DC030020D8030020CD04002048040020C7
:1012D0006604002010B582B0044600230193036821
:1012E0001A6801925B680193019B074B1868A04242
:1012F00001D002B010BD05F0FDF823681A685B68E4
:10130000024B01221A70F4E7DC030020660400207F
:1013100008B5044800F0FCF8FFF722FF024B00225A
:101320001A7008BD48040020660400202DE9F84327
:1013300007460E469146102005F038FDC9F800001A
:10134000102005F033FD0446002505E0142005F0CB
:101350002DFD44F825000135032DF7DD102005F0A3
:1013600025FD8046002505E0142005F01FFD48F806
:1013700025000135032DF7DDC6F8008000210E465B
:101380000D4608460A4612E054F825100B70013548
:101390000021012009E0022823D005F1804C0CF146
:1013A000FF3C54F82CC00CF8013001310132BB5C19
:1013B000B3B30D2B34D0042D32DC042E30DC1329D2
:1013C0002EDC202B16D00028E5D12F49595C11F0D6
:1013D000030FD9D058F826100B70013600210220D7
:1013E000E3E706F1804C0CF1FF3C58F82CC00CF8F8
:1013F0000130DAE7022803D0012809D00020D5E720
:1014000006F18043013B58F8233000205854CDE7C3
:1014100005F18043013B54F8233000205854C5E7C0
:10142000022803D0012809D0002723E006F18043D9
:10143000013B58F8233000225A54F5E705F1804368
:10144000013B54F8233000225A54EDE74FEA870855
:1014500054F8270005F083FC51EC100BD9F800304C
:101460009844FFF7C1FBC8F8000054F8270005F0C6
:10147000A5FC0137032FE9DD204605F09FFC45EA76
:10148000062000B2BDE8F88351B50008084BD3F838
:10149000C830312B0ADC064A42F8230003F132003F
:1014A00002EB800041600133C2F8C830704700BFD2
:1014B000D004002030B4002300E001331D46C25C9C
:1014C0002AB1CC5C1CB1A242F7D0002006E04A5DF4
:1014D000202A02D00AB10D2A02D1D8B230BC7047FE
:1014E0000020FBE710B4002300E00133C25CCC5CB9
:1014F000A24202D10AB1002CF7D112B92CB10020BE
:1015000000E000205DF8044B70470120FAE700007E
:1015100030B583B005460024184BD3F8C830A34239
:1015200026DD2946154B53F82400FFF7C3FF08B901
:101530000134F1E76A4601A92818FFF7F7FE3234B3
:101540000E4B03EB84046368009A01999847009856
:1015500005F034FC002405E0019B53F8240005F05D
:101560002DFC0134032CF7DD019805F027FC02E087
:101570000348FFF769FE03B030BD00BFD004002070
:1015800058A9000800BF00BF704710B400221146E0
:10159000144600E001320E2A06DC0123934099B282
:1015A0000342F7D00134F5E714F0010F04D04900ED
:1015B00088B25DF8044B70470020FAE710B540EAA6
:1015C000813084B22046FFF7E0FF204380B210BD97
:1015D0002DE9F04F83B08B46924601934FF00009FE
:1015E00045E04FF6FF764AE0294B01229A6111E06F
:1015F000284B4FF480029A61FFF7C4FF08F10108FD
:10160000B8F10F0F2CDC16F4004FEDD1204B4FF446
:1016100080329A617600B6B21E4C4023A361FFF778
:10162000B1FF8021204603F0B3FC074600BF8021B4
:10163000204603F0ADFC074400BF8021204603F0A4
:10164000A7FC074400BF8021204603F0A1FC07440B
:1016500000BF6D00ADB2012FCADD45F00105C7E73F
:10166000BAF1000F01D02AF8195009F10109019BC4
:101670004B4508DDBBF1000FB3D03BF819604FF0CC
:1016800000084546BCE7002003B0BDE8F08F00BF6E
:101690000008024000040240F0B583B006460D4643
:1016A0001746480005F082FB04460097074B1F6869
:1016B0002B460246314606480068B8470546204694
:1016C00005F07CFB284603B0F0BD00BFEC03002012
:1016D00064060020074B1860074B1960074B1A80FF
:1016E00018B1074B074A1A607047054B064A1A6043
:1016F000704700BF64060020E4030020E0030020E0
:10170000EC030020D56A0008D11500082DE9F04F40
:1017100085B007460026ADF80C6001210846FFF7AA
:101720004DFFADF80E00304D304C32462988206810
:1017300003F035FC642201210DF10E00FFF7ACFF30
:10174000DFF8B08088F8000001222988206803F0C3
:1017500026FC01213846FFF731FFADF80E00324676
:101760002988206803F01BFCDFF88C90DFF88CA040
:101770004FF0640BCDF800B001231D4A0DF10E01AE
:10178000D9F80000DAF80070B84788F800000122A4
:101790002988206803F003FC01213046FFF70EFF83
:1017A000ADF80E0032462988206803F0F8FBCDF82A
:1017B00000B0DAF80060012303AA0DF10E01D9F898
:1017C0000000B04788F8000001222988206803F053
:1017D000E6FB98F8003023B9BDF80C0005B0BDE871
:1017E000F08F0020FAE700BFE0030020E4030020B0
:1017F00068060020E803002064060020EC030020B7
:1018000008B543F6FF70FFF781FF10F4804F02D157
:10181000C0F30D0008BD4FF6FF70FBE700EE100AA5
:1018200051B9B8EEC00ADFED0A7A20EE270ADFEDE3
:10183000097A20EE270A7047B8EEC00ADFED067A73
:1018400020EE270ADFED037A20EE270A704700BF5B
:10185000DA0FC940000080380000B4432DE9F04F92
:1018600085B0834601210846FFF7A8FEADF80E00BB
:10187000364D374C00222988206803F090FB642203
:1018800001210DF10E00FFF707FF012229882068D2
:1018900003F085FB00211820FFF790FEADF80E0045
:1018A00000222988206803F07AFBDFF8AC80DFF89B
:1018B000AC90284F4FF0640ACDF800A001234246B7
:1018C0000DF10E01D9F800003E68B04701222988C9
:1018D000206803F064FB4FEA8B00002100F0FC005D
:1018E000FFF76CFEADF80E0000222988206803F097
:1018F00056FBCDF800A0012342460DF10E01D9F8A8
:1019000000003E68B04701222988206803F047FBA9
:1019100001210020FFF752FEADF80E0000222988B9
:10192000206803F03CFBCDF800A03F68012342464D
:101930000DF10E01D9F80000B8470122298820686E
:1019400003F02DFB05B0BDE8F08F00BFE0030020E1
:10195000E4030020EC030020F003002064060020D4
:1019600030EE600AD0ED047A70EE677A9FED257A4A
:1019700027EE877AD0ED067ADFED236A67EEA67A46
:1019800077EE877A80ED040AF0EEC06A90ED087A6F
:10199000F4EEC76AF1EE10FA09D590ED077A67EE1A
:1019A000006A90ED037A37EE267A80ED037AD0ED67
:1019B000036A90ED057AF4EEC76AF1EE10FA16DDCF
:1019C00080ED037AC0ED067AD0ED000A20EE800AA1
:1019D00090ED017A67EE277A70EE277A90ED030A90
:1019E00090ED027A20EE070A37EE800A7047B1EEDA
:1019F000477AF4EEC76AF1EE10FAE3D580ED037A88
:101A0000E0E700BFA69BC43EA4701D3F08B50C4B89
:101A10001B7823B102780B4B1B789A4200D008BD8B
:101A200043688268C1680069D0ED001A91ED001A20
:101A3000D2ED000A93ED000AFFF7C8FBEFE700BF05
:101A4000F20300201A00002030B58BB0002405946A
:101A500006940794089409940094264B1A6B42F05C
:101A600080021A631A6B02F080020092009A0194BD
:101A70001A6B42F004021A631A6B02F0040201921C
:101A8000019A02941A6B42F001021A631A6B02F077
:101A900001020292029A03941A6B42F002021A6344
:101AA0001A6B02F002020392039A04941A6B42F03A
:101AB00008021A631B6B03F008030493049B0E4D8A
:101AC00022464FF40071284603F069FA4FF4007380
:101AD0000593012306930794089405A9284603F06B
:101AE00071F94023059305A9044803F06BF90BB085
:101AF00030BD00BF00380240000802400004024030
:101B000084B08DED010ACDED020A8DED031A124B62
:101B1000D3ED0B7AF8EE677A27EE800ABCEEC00AA6
:101B200083ED0D0AD3ED0B7AF8EE677A9DED027A1C
:101B300067EE877AFCEEE77AC3ED0E7AD3ED0B7A87
:101B4000F8EE677A9DED037A67EE877AFCEEE77A26
:101B5000C3ED0F7A04B070470000014030B40D4669
:101B60001446013805280CD8DFE800F0030D161FD5
:101B700028311B4B0FCB85E80F001A4B0FCB84E8A5
:101B80000F0030BC7047174B0FCB85E80F00164B8A
:101B90000FCB84E80F00F4E7134B0FCB85E80F0061
:101BA000124B0FCB84E80F00EBE7104B0FCB85E80F
:101BB0000F000F4B0FCB84E80F00E2E70C4B0FCB6D
:101BC00085E80F000B4B0FCB84E80F00D9E7094BDA
:101BD0000FCB85E80F00024B0FCB84E80F00D0E756
:101BE00074000020940000205400002064000020B5
:101BF0004400002084000020013805285BD8DFE87D
:101C000000F003121F303F4CDFED2B7A60EEA77A15
:101C100030EE670A81ED000ADFED287A60EEA70A50
:101C2000C2ED000A7047DFED247A60EEA70A70EE7D
:101C3000807AC1ED007A70EEC00AC2ED000A7047EA
:101C4000DFED1E7A60EEA77AC1ED007AB1EE400AB0
:101C5000DFED197A60EEA70A70EE600AC2ED000AA5
:101C60007047DFED157A60EEA77A37EEC00A81ED96
:101C7000000ADFED137A60EEA70AC2ED000A704792
:101C8000DFED107A60EEA70A70EEC07AC1ED007A3F
:101C900070EE200AC2ED000A7047DFED097A60EEAF
:101CA000A77AC1ED007ADFED047A60EEA77A77EECD
:101CB000800AC2ED000A704736CD133F36CD933F00
:101CC00036CD93BF36CD13BF10B588B06C4684E8CF
:101CD0000F00F0EE407A9FED127AB4EEC70AF1EEF3
:101CE00010FA01DDF0EE477A9DF8003000EE103A70
:101CF000B8EEC00A9DF8013000EE903AF8EEE00A26
:101D00009DF8023001EE103AB8EEC11A20EE270A13
:101D100060EEA70A21EE271AFFF7F2FE08B010BD09
:101D20003333733F84B038B52DED028B054607ACD5
:101D300084E80E00B0EE408A94E80F00FFF7C4FF7D
:101D4000284603F055FC064BB0EE480A0FCBFFF7D0
:101D5000BBFFBDEC028BBDE8384004B0704700BF4C
:101D60000004002010B48FB004AC84E80F00F7EE3C
:101D7000007A77EEC07A77EEE07AB6EE007A27EE58
:101D8000877A344B1A7807EE902AF8EEE77A67EEF6
:101D9000877A9DF8102006EE902AF8EEE66A66EE45
:101DA000806A77EEA67A9DF8402006EE902AF8EE3B
:101DB000E66A66EEA06A77EEA67ACDED087A5A78E2
:101DC00007EE902AF8EEE77A67EE877A9DF8112001
:101DD00006EE902AF8EEE66A66EE806A77EEA67A5C
:101DE0009DF8412006EE902AF8EEE66A66EEA06ABB
:101DF00077EEA67ACDED097A9B7807EE903AF8EE69
:101E0000E77A67EE877A9DF8123007EE103AB8EE5F
:101E1000C77A27EE000A37EE800A9DF8423007EEB7
:101E2000903AF8EEE77A67EEA00A70EE200ACDED60
:101E30000A0A08AB93E807000EAB03E907009DED23
:101E40000B0ADDED0C0A9DED0D1A0FB05DF8044B89
:101E5000704700BFA400002070B52DED028B90B03C
:101E6000F0EE408AB0EE608ADFED307AB4EEE70A39
:101E7000F1EE10FA14DDFDEEC07A17EE903A2C4A1E
:101E800082FB03121A44DB17C3EB22234FF4B47214
:101E900002FB03F307EE903AF8EEE77A70EE678AFA
:101EA000FCEEE87A17EE904A224BA3FB0434640957
:101EB0000134E4B208AE0CAD324629462046FFF7A5
:101EC0004DFE07A906A8B0EE680A00F03DF9DFED67
:101ED0001A0A68EE200A9DED070A20EE800A8DEDB1
:101EE000070ADDED067A60EEA70ACDED060A04AA20
:101EF00005A92046FFF780FE96E80F008DE80F0049
:101F000095E80F00DDED040A9DED050AFFF72AFFB5
:101F10000A4B83ED000AC3ED010A83ED021AFFF7B5
:101F2000EFFD10B0BDEC028B70BD00BF0000B443EC
:101F3000B7600BB689888888F6285C3FF4030020D8
:101F40002DE9F04385B0044601782A48FFF75EF991
:101F50006068FEF7F9FA02460B462748FFF756F984
:101F6000217A2648FFF752F9D4F81C80D4F818904B
:101F70006069FEF7E9FA06460F46214D4846FEF72E
:101F8000E3FACDE902014046FEF7DEFACDE90001B1
:101F900032463B461B492846FFF738F9D4F84080C3
:101FA000D4F83C90A06BFEF7CFFA06460F464846A1
:101FB000FEF7CAFACDE902014046FEF7C5FACDE9BF
:101FC000000132463B4610492846FFF71FF9E06DF5
:101FD000FEF7BAFA02460B460C48FFF717F9206ED7
:101FE000FEF7B2FA02460B460948FFF70FF905B0B3
:101FF000BDE8F0836CA9000880A9000898A9000832
:10200000BCA90008B4A90008D4A90008DCA90008EC
:10201000F4A9000870B5A0B000261A9601AC1F4DB7
:102020000FCD0FC42B68236006AC1D4D0FCD0FC420
:102030000FCD0FC42B6823600FAC1A4D0FCD0FC40A
:102040000FCD0FC42B682360174B1B681893174BD9
:102050001B68199302F06EFD1B9602231F93062343
:102060001D9301231E931AA91BA802F061FE10B94B
:1020700001AD0F4C0AE0FFF74FF8F9E755F8042BD4
:1020800000232146022002F0A7FD0434094B9C42A4
:10209000F4D902F067FD20B070BD00BF1001002030
:1020A000C0000020E40000202801002024010020BE
:1020B000000004086300040830B59BB004466422A5
:1020C0001A4901A804F082FE9DF80430FF2B0BD1C1
:1020D0001748FFF79BF83CB1FFF79CFF64221349B8
:1020E00001A804F073FEEFE701A8FFF729FF114DE7
:1020F00001AC0FCC0FC523682B600F4C06AD0FCD84
:102100000FC40FCD0FC42B6823600C4C0FAD0FCD47
:102110000FC40FCD0FC42B682360199A084B1A60A7
:10212000189A084B1A601BB030BD00BF00000408AD
:1021300000AA000810010020C0000020E4000020D8
:10214000240100202801002030B4DFED467A20EE83
:10215000270AFDEEC07AB5EEC00AF1EE10FA7AD485
:10216000F8EEE77A70EE677A9FED3F0A67EE807AC5
:10217000BCEEE77A17EE103AC3F3080303F18002CE
:10218000C2F3080207EE103AB8EE477A77EEC77A44
:10219000364C04EB820595ED006A013204EB8202B5
:1021A00092ED003A04EB830292ED004AF1EE444ACC
:1021B000013304EB8303D3ED006A73EE465A34EE29
:1021C000E67A9FED2B5A27EE057A75EEA53A37EEA3
:1021D000637A27EE877AF0EE082A65EEA25A74EE4B
:1021E000A43A73EEE63A63EE853A75EEE35A37EEBB
:1021F000257A27EE877A64EE854A37EE247A27EE31
:10220000877A37EE067A81ED007A76EEC46A36EE8A
:10221000037A27EE057A76EEA65A37EE657A27EE30
:10222000877A66EEA26A76EE065A75EE835A65EEF6
:10223000855A76EEE56A37EE267A27EE877A26EE1D
:10224000056A37EE067A67EE877A74EE277AC0ED74
:10225000007A30BC704717EE903A013B07EE903A97
:102260007EE700BF610B363B0000004430AA000847
:10227000DB0F493CDFED1E7A20EE270AF5EE007AEF
:1022800030EE270AFDEEC07AB5EEC00AF1EE10FA84
:1022900028D4F8EEE77A70EE677A9FED160A67EEBB
:1022A000807ABCEEE77A17EE103AC3F3080307EE24
:1022B000103AB8EE470A77EEC07A0F4A02EB830174
:1022C000D1ED006A013302EB830393ED007AB7EEA0
:1022D000000A30EE670A20EE260A67EE877A30EEB3
:1022E000270A704717EE903A013B07EE903AD0E785
:1022F00083F9223E0000004430AA000800000000DC
:1023000070B52DED028B244B93ED008A234BD3ED5A
:10231000007A78EE677A9FED227AF4EEC77AF1EED2
:1023200010FA28D59FED1F7A77EE877A1E4ED6EDEC
:10233000008A9FED1E7A67EE877A78EEE77A17EECD
:10234000900AFEF701F912A3D3E90023FEF754F92E
:1023500004460D4618EE900AFEF7F6F822462B4684
:10236000FDF792FFFEF740FC30600C4B83ED008AD6
:10237000BDEC028B70BD9FED0E7AF4EEC77AF1EEE4
:1023800010FAD3DD9FED077A77EEC77ACEE700BF6C
:102390009A9999999999D93F8C0600203804002080
:1023A000000034C30000B4436C06002000007A45EE
:1023B00000003443254BD3ED007A254B93ED007A92
:1023C00077EEC77A9FED237AF4EEC77AF1EE10FA32
:1023D00030DD9FED217A77EEC77AB0EEE77A1F4BBA
:1023E000D3ED086AB4EEE67AF1EE10FA05D593ED76
:1023F000037A37EE277A83ED037A184B93ED007A50
:1024000027EE277AD3ED016A93ED046A37EEC66AA8
:1024100066EE866A37EE267AD3ED036A93ED026A9A
:1024200066EE866A37EE267AC3ED047A0C4B83EDAE
:10243000007A70479FED0B7AF4EEC77AF1EE10FA4E
:10244000CBD59FED057A77EE877AC6E77406002034
:102450008C060020000034430000B4432C0100200F
:1024600078010020000034C308B5064BD3ED000A04
:10247000054B93ED000A0548FFF772FA044B83ED14
:10248000000A08BD6C0600207801002054010020DD
:10249000080100200023044AD360044AD360044AA0
:1024A000D360044AD3607047E4000020C0000020DD
:1024B000540100202C01002030B583B005460024D3
:1024C000009401940A2003F093F8AC420FDA104A0A
:1024D000B2F90010009B0B440093B2F90220019B5B
:1024E00013440193012003F083F80134EDE70099D0
:1024F00091FBF5F109B2074B1980019A92FBF5F2B5
:1025000012B25A800448FEF781FE03B030BD00BF0E
:10251000280400202404002034B2000810B51E4B0B
:10252000187AFFF79BF903221C491D4801F0E6FCCD
:102530001C4803F02AF91C4C0021204603F022FC21
:102540000421204603F01EFC0821204603F01AFC5B
:102550000021204603F048FC0421204603F044FCFF
:102560000821204603F040FC1420FFF7A5FF0022BD
:102570001146382002F092FF382002F0C3FF0022FB
:1025800011463A2002F08AFF3A2002F0BBFF0748CA
:1025900003F00DF910BD00BF100100202804002039
:1025A000EC060020F407002074080020B408002086
:1025B000B1EE400A70EE600AF7EE087A60EE277A14
:1025C000C0ED007A9FED067A60EEC77A30EE600AC1
:1025D00020EE070A37EE800A81ED000A704700BF3F
:1025E000D7B35D3F30B52DED028B83B0B0EE408A9E
:1025F000F0EE608A04460D4600230093019369467D
:1026000001A8B0EE410AFFF79FFDDDED000A68EE7C
:10261000207A9DED010A28EE807A77EE877AC5ED63
:10262000007A28EE408A68EEA08A38EE288A84ED87
:10263000008A03B0BDEC028B30BD30B52DED028BAE
:1026400083B0F0EE408AB0EE608A04460D46002367
:1026500000930193694601A8B0EE410AFFF774FDAB
:102660009DED010A68EE007ADDED000A28EEA07A01
:1026700077EE877AC5ED007A28EE208A68EE808AA8
:1026800038EE688A84ED008A03B0BDEC028B30BD61
:1026900000B52DED028B83B02B4BD3ED000A2B4BF5
:1026A00093ED000A2A48FFF75BF9B0EE408A294B08
:1026B000D3ED000A284B93ED000A2848FFF750F9A4
:1026C000694601A8264B93ED001AF0EE480AFFF781
:1026D000B4FFDDED010A9DED000A07F023FFDFEDF9
:1026E000217A20EE270ADFED207A80EE278AB5EEE8
:1026F000C08AF1EE10FA21D49DED010A20EE000A05
:10270000DDED007A67EEA77A30EE270A07F00CFFBE
:10271000F2EE007AB4EEE70AF1EE10FA01DDB0EE67
:10272000670AF4EE000A60EE200AB0EE480AFFF7EE
:1027300093FB03B0BDEC028B5DF804FBDFED0B7A7D
:1027400038EE278AD8E700BF800600201804002052
:10275000C00000207C06002008010020E4000020CA
:102760008806002000003443DA0F49400000B443DB
:102770000268C34B9A4200D070472DE9F0432DED1B
:10278000068B83B0BF4B1A78BF4B1B789A4240F040
:102790001E81BE4B1B6813F0010F04D1BA4B1B788E
:1027A000062B00F02581B94B1B6813F0010F04D1F3
:1027B000B54B1B78042B00F21E81B44A1368013319
:1027C0001360B3F5FA6F00F01981B14E01224FF496
:1027D0000071304602F0E3FBAE4C94ED008AAE4D42
:1027E000B5F90030AD4FB7F900209B1A07EE903ACB
:1027F000F8EEE77A9FEDAA9A67EE897ADFEDA98A6B
:1028000067EEA87ADFEDA8AA87EEAA7A9FEDA7AABD
:10281000C7EE0A7A78EE677A17EE900AFDF794FE13
:1028200095A3D3E90023FDF7E7FE8046894618EE1D
:10283000100AFDF789FE42464B46FDF725FDFEF7DF
:10284000D3F908EE100A2060D4ED019AB5F90230F0
:10285000B7F902209B1A07EE903AF8EEE77A67EE96
:10286000897A67EEA87A87EEAA7AC7EE0A7A79EEB5
:10287000E77A17EE900AFDF767FE7FA3D3E90023FE
:10288000FDF7BAFE8046894619EE900AFDF75CFE18
:1028900042464B46FDF7F8FCFEF7A6F900EE100A9B
:1028A0006060B5F9043007EE903AF8EEE77A67EE2B
:1028B000897A67EEA87A9FED7E7A67EE877ADFEDF8
:1028C0007D6A87EEA67A7C4B83ED007A7B4D7C4C4B
:1028D00029462046F0EE480AFFF76AFEFEF790FF11
:1028E000784F3880FFF70CFD01213888FEF796FFFE
:1028F000754B83ED000A754B1A7801EE102AB8EE7D
:10290000C11A21EE001A93ED010A31EE401A704B04
:1029100083ED001A694601A8D5ED000A94ED000A7E
:10292000FFF760FE6B4F97ED008ADDED017A78EEE0
:10293000677A17EE900AFDF707FE4FA3D3E900234D
:10294000FDF75AFE04460D4618EE100AFDF7FCFD91
:1029500022462B46FDF798FCFEF746F938605E4F9D
:1029600097ED008ADDED007A78EE677A17EE900A2F
:10297000FDF7EAFD40A3D3E90023FDF73DFE044641
:102980000D4618EE100AFDF7DFFD22462B46FDF737
:102990007BFCFEF729F9386000224FF400713046C5
:1029A00002F0FDFA4D4B1B78002B59D0364B1B78AB
:1029B000032B27D8022B28D04948FFF727F849488E
:1029C000FFF724F803B0BDEC068BBDE8F0832E4B77
:1029D0001B7853B9444B9FED450A0FCBFFF774F9B1
:1029E000294B1A78274B1A70D3E6FFF753FDF7E708
:1029F000FFF7E0FCD7E6FFF737FDDEE613460022DF
:102A00001A60E2E6FFF744FED6E72F4BD3ED007ADB
:102A1000374B93ED007A77EEC77A364B93ED007A19
:102A200077EEC77A9FED347A87EE870ADFED337A47
:102A300020EE270AFFF71EFC314BD3ED007A60EE43
:102A4000277A304BD3ED000A214B93ED000A77EE45
:102A5000A00ADFED2D7A30EE270AFFF7FDF9ABE78C
:102A6000094B1B78032BA7D01F4B9FED200A0FCBE0
:102A7000FFF72AF9A0E700BF9A9999999999B93F68
:102A8000002001400C010020BC0000203004002088
:102A9000000802401C040020280400202404002018
:102AA000000080393333534000004842A69B443B2A
:102AB00000D8D64700401C46340400207806002089
:102AC00084060020700600208C06002010010020E3
:102AD000880600207C0600208006002014040020C8
:102AE0001C0000203000002000040020CDCCCC3D94
:102AF000280100202401002000003443DA0F49405F
:102B000010040020B40000200000B442F8B5224BAD
:102B10001D88224B1F7803221A700024264604E0E9
:102B2000AB4200DA013E9DB20134B4F57A7F1CDA83
:102B30001B4B83FB04231A19E317C3EB22234FF427
:102B4000B47202FB1343DFED170A07EE903AB8EEBA
:102B5000E70AFFF781F9012002F04AFD0E4BB3F9B5
:102B60000030AB42DCDD0136DDE70F4B9FED0D0A97
:102B70000FCBFFF7A9F831460C48FEF747FB002EB4
:102B800002DB064B1F70F8BD094A137AB3FA83F3D0
:102B90005B091372F5E700BF70060020BC0000203F
:102BA000B7600BB6CDCCCC3D0004002058B2000875
:102BB00010010020F0B52DED088B87B06E4B1D780D
:102BC00003221A706D4B00225A600024B4F57A7FFC
:102BD0000ADA012002F00CFD694BB3F900106948D4
:102BE000FEF714FB0134F1E79FED678A0CE0DFED9F
:102BF000670AB0EE480AFFF72FF9012002F0F8FC4F
:102C0000DFED637A38EE278ADFED627AB4EEE78A89
:102C1000F1EE10FAEBD4604B9FED5C0A0FCBFFF79F
:102C200053F80A2002F0E4FC5C4B1868FDF78CFCBA
:102C300002460B465A48FEF7E9FA5A4B93ED009AC2
:102C400000249FED51AAB0EE4ABAF0EE4AAA37E04E
:102C5000524BD3ED007A77EEE88A05A904A8B0EECE
:102C6000680AFFF771FA9DED048A7AEE88AADDED15
:102C7000059A3BEE29BA18EE900AFDF765FC064668
:102C80000F4619EE900AFDF75FFCCDE9020118EE40
:102C9000100AFDF759FCCDE9000132463B46424897
:102CA000FEF7B4FA3F4B93ED007A77EE497AF5EEF2
:102CB000C07AF1EE10FA27D43AEE27AAB0EE479A7E
:102CC000142C26DCC4EB0413DB0007EE903AB8EEBC
:102CD000E78A0134C4EB0413DB0007EE903AF8EE08
:102CE000E78AF4EEC88AF1EE10FAB1DDDFED270ACB
:102CF000B0EE480AFFF7B0F8012002F079FCDFEDF2
:102D00002B7A38EE278AECE7DFED226A77EEA67A97
:102D1000D2E7214B9FED1D0A0FCBFEF7D5FFF0EE5A
:102D20004B0AB0EE6A0A07F0FDFBDFED217A60EE98
:102D3000277ADFED206A87EEA67A104B83ED017AC1
:102D400017EE100AFDF700FC02460B461A48FEF784
:102D50005DFADFED1A7AC7EE8A7A17EE900AFDF770
:102D6000F3FB02460B461648FEF750FA024B1D7065
:102D700007B0BDEC088BF0BDBC00002010010020A6
:102D80007006002074B2000800000000CDCCCC3DDD
:102D9000EC51B83E0000B443000400208806002037
:102DA00080B200088C060020B0B200088FC2753EC9
:102DB00000003443DA0F4940D8B2000800801D45B6
:102DC000ECB2000808B558B90B4A1378B3FA83F38C
:102DD0005B091370094B19780948FEF735FA08BDED
:102DE0000128F7D1D2ED007AFCEEE77A17EE903A9F
:102DF000024A1370EEE700BFF20300201A00002021
:102E0000FCB2000808B5054B1868FDF79DFB0246AB
:102E10000B460348FEF718FA08BD00BF8C060020D9
:102E20000CB3000800B583B0012811D1D2ED007AAF
:102E3000FCEEE77ACDED017A9DF8041006290BD857
:102E4000074B19700748FEF7FFF903B05DF804FB64
:102E50000548FEF7F9F9F8E70348FEF7F5F9F4E756
:102E6000BC00002030B300081CB30008F8B50546CC
:102E70000E4617461648FEF7E7F929461548FEF7AD
:102E8000E3F90024EBB2A3420BDD07EB84031868DF
:102E9000FDF75AFB02460B460F48FEF7D5F9013401
:102EA000F0E7002405E056F824100C48FEF7CCF9B2
:102EB0000134B4EB252FF6DB094C0A4B1968204688
:102EC000FEF7C2F9084B19682046FEF7BDF9F8BDB8
:102ED0004CB3000860B3000870B300087CB300086E
:102EE00094B30008CC010020D0010020F0B583B0DD
:102EF00040F2012398420DD10D4617460024092CBB
:102F000010D82968234B53F83400FEF7EBFA28B9A0
:102F10000134F4E72048FEF797F915E01D4B03EB69
:102F2000C40466681D496868FEF7DCFA70B1D7ED25
:102F3000007AFCEEE77ACDED017A9DF8042032703C
:102F400029681748FEF780F903B0F0BD1549686895
:102F5000FEF7C8FA60B1D7ED007AFDEEE77A17EE1A
:102F6000903A1AB2328029680D48FEF76DF9EBE706
:102F70000D496868FEF7B6FA0028E5D03868306079
:102F8000FDF7E2FA02460B4629680848FEF75CF9AD
:102F9000DAE700BF7C0100201CB3000898B30008EA
:102FA0009CB30008B0B3000814B80008B4B300081C
:102FB00070B582B040F20123984204D02448FEF755
:102FC00043F902B070BD0C46164622492068FEF750
:102FD00089FAA8B1204D0023EB6020496068FEF714
:102FE00081FA20B33068286065682468FDF7ACFA80
:102FF000CDE900012A4621461948FEF725F9E0E708
:1030000018492068FEF76EFA08B1174DE3E7174933
:103010002068FEF767FA08B1154DDCE7154920680E
:10302000FEF760FA08B90025D5E7134DD3E7094943
:103030006068FEF757FA08B10435D3E70F496068B6
:10304000FEF750FA08B10835CCE70025CAE700BF03
:103050001CB30008C8B30008C0000020D8B30008A3
:10306000E0B30008CCB30008E4000020D0B30008AF
:1030700054010020D4B300082C010020DCB3000868
:10308000012800D0704710B584B0D2ED007AFCEE74
:10309000E77ACDED037A9DF80C400D4BDA6800928B
:1030A0000ECBB6EE000A2046FEF73CFE052002F0ED
:1030B0009FFA21460748FEF7A9F8074B1868FDF765
:1030C00043FA02460B460548FEF7A0F804B010BDCF
:1030D00074000020F8B300088C06002018B4000823
:1030E00008B50348FEF792F8FFF710FD08BD00BFD2
:1030F00030B4000808B50348FEF788F8FFF75AFD1A
:1031000008BD00BF4CB4000808B501280FD1D2EDAE
:10311000007AF5EEC07AF1EE10FA1BDD124B0122B7
:103120001A70114B19781148FEF770F808BD00238A
:103130000F4AD3600F4AD3600F4AD3600F4AD3605F
:10314000094B1978B1FA81F1490919700748FEF75E
:103150005DF8EBE7044B00221A70094B9FED090A5A
:103160000FCBFEF7B1FDDCE71404002068B40008C3
:10317000E4000020C0000020540100202C010020A9
:1031800000040020CDCCCC3D08B5FEF743FF02483B
:10319000FEF75AF808BD00BF78B4000808B5164914
:1031A0001648FEF773F916491648FEF76FF91649E7
:1031B0001648FEF76BF916491648FEF767F91649E7
:1031C0001648FEF763F916491648FEF75FF91649E7
:1031D0001648FEF75BF916491648FEF757F91649E7
:1031E0001648FEF753F916491648FEF74FF91649E7
:1031F0001648FEF74BF908BD6D2E00088CB4000888
:10320000ED2E000894B400088130000898B400083E
:10321000E1300008A0B40008F5300008B0B40008A0
:1032200009310008B8B40008B12F0008C0B4000884
:1032300089310008C8B40008C52D0008D0B40008C2
:10324000052E0008D4B30008252E0008D8B40008C5
:1032500010B582B00023009301931148114B036015
:1032600001F01EF8B0B93C23009300220192694698
:103270000B4801F05EF880B9094C4FF4006300225E
:103280001146204601F07AF80021204601F01AF894
:1032900002B010BDFDF740FFE5E7FDF73DFFEBE7AE
:1032A000900600200074004010B588B000230393FE
:1032B00004930593069307930268174B9A4201D033
:1032C00008B010BD0024019403F5E2331A6C42F0FB
:1032D00000521A641A6C02F000520192019A029490
:1032E0001A6B42F001021A631B6B03F00103029395
:1032F000029B1023039303230493059403A9074817
:1033000001F060FD22462146362002F0C7F8362043
:1033100002F0F8F8D4E700BF00740040000002405B
:1033200000B585B0002300930193029303932348D3
:10333000234A02604FF480324260836001220261BE
:10334000037680F820304FF08051C1624FF0606109
:103350008162C3600321C16180F83020436100F0C5
:10336000A1FDF8B90B2300930123019300230293DD
:103370006946124800F0CCFEB8B90C230093022332
:10338000019369460D4800F0C3FE88B90A230093F3
:10339000032301936946094800F0BAFE58B905B005
:1033A0005DF804FBFDF7B8FEDCE7FDF7B5FEE4E7EA
:1033B000FDF7B2FEEAE7FDF7AFFEF0E7EC0600200E
:1033C0000020014000B585B00023009301930293D3
:1033D00003932148214A02604FF400324260836027
:1033E00001220261037680F82030C3621C498162A9
:1033F000C3600321C16180F83020436100F052FDB9
:10340000F0B9002300930123019302936946124807
:1034100000F07EFEB8B901230093022301936946B0
:103420000D4800F075FE88B9022300930323019331
:103430006946094800F06CFE58B905B05DF804FB18
:10344000FDF76AFEDDE7FDF767FEE4E7FDF764FEE2
:10345000EAE7FDF761FEF0E7A40600200021014045
:103460000100000F70B588B0044600230393049355
:103470000593069307930368454A934204D0454A4F
:10348000934243D008B070BD00250095424B5A6C62
:1034900042F480725A645B6C03F480730093009B67
:1034A000012303930323049305953C4E03A930465F
:1034B00001F088FC0223039303A9304601F082FC4B
:1034C0000423039303A9304601F07CFC3448354BB8
:1034D000036045608560C5604FF4806303614FF40D
:1034E000006343614FF4005383614FF48073C36101
:1034F0004FF400330362456201F0D8FD18B9284B40
:10350000A3639C63BEE7FDF707FEF8E7002501957E
:10351000214B5A6C42F400725A645A6C02F40072E5
:103520000192019A02951A6B42F001021A631B6B19
:1035300003F001030293029B0723039303230493E5
:10354000059503A9184801F03DFC1848184B036085
:103550004FF0007343608560C5604FF48063036182
:103560004FF4006343614FF4005383614FF4807361
:10357000C3614FF480330362456201F097FD18B9CF
:103580000A4BA3639C637DE7FDF7C6FDF8E700BF28
:1035900000200140002101400038024000080240A4
:1035A000340700201064024000000240940700200D
:1035B0004064024000B583B00023009301930D489E
:1035C0000D4A026043608360C360836102F028FAA1
:1035D00050B90023009301936946064802F01CFC91
:1035E00028B903B05DF804FBFDF796FDF1E7FDF7A0
:1035F00093FDF6E7340800200010004000B583B0CA
:103600000023009301930F480F4A02605322426047
:10361000836040F2E732C260836102F001FA50B980
:103620000023009301936946064802F0F5FB28B990
:1036300003B05DF804FBFDF76FFDF1E7FDF76CFDEE
:10364000F6E700BFB40800200014004010B596B0A3
:103650000024119412941394149415940F941094BC
:10366000089409940A940B940C940D940E942022BF
:103670002146684603F0B8FB2C482D4B036044609C
:1036800084604FF6FF73C36004614461846102F09B
:10369000C7F9002838D1254802F0DCF9002836D1D6
:1036A000042311930023129311A9204802F02EFB4A
:1036B00000282FD140230F93002310930FA91B48FC
:1036C00002F0AAFB48BB7023089342F6500309930B
:1036D00000220A920B920C920D920E9208A91348A6
:1036E00002F024FAE0B900230093019302930393BC
:1036F00004934FF400520592079369460B4802F079
:10370000CFFB80B916B010BDFDF706FDC3E7FDF78E
:1037100003FDC5E7FDF700FDCCE7FDF7FDFCD2E7B3
:10372000FDF7FAFCDFE7FDF7F7FCEBE7F407002015
:103730000004014002680E4B9A4200D0704700B569
:1037400083B00021019103F59C335A6C42F00102D1
:103750005A645B6C03F001030193019B0A46192034
:1037600001F09CFE192001F0CDFE03B05DF804FBD2
:103770000000014000B585B00368204A934208D09C
:103780001F4A934219D01F4A93422AD005B05DF8D0
:1037900004FB002101911C4B1A6C42F010021A64C8
:1037A0001B6C03F010030193019B0A46362001F0C5
:1037B00075FE362001F0A6FEE8E700210291124BCB
:1037C0001A6C42F020021A641B6C03F0200302936F
:1037D000029B0A46372001F061FE372001F092FE7D
:1037E000D4E700230393084B5A6C42F002025A6458
:1037F0005B6C03F002030393039BC7E700100040D8
:1038000000140040000401400038024070B588B048
:1038100000230393049305930693079302681A4BBE
:103820009A4201D008B070BD0024019403F59C3386
:103830001A6B42F002021A631A6B02F00202019242
:10384000019A02941A6B42F001021A631B6B03F097
:1038500001030293029B4FF46043039302260496F4
:10386000059406940125079503A9084801F0AAFAD2
:103870004FF4E0630393049605940694079503A917
:10388000034801F09FFACDE7000001400004024028
:1038900000000240000000002DE9F04383B010EE6C
:1038A000109A10EE900AFCF74FFE5DA3D3E90023B7
:1038B000FCF7CCFF02460B4600205149FCF7C6FF3F
:1038C0000022504BFCF798FEFDF78EF980464846E3
:1038D000FCF73AFE04460D464046FCF735FE064628
:1038E0000F4643A3D3E90023FCF786FE02460B46AE
:1038F00020462946FDF7FCF870B107EE909A07EED6
:10390000108AC7EE877AFCEEE77ACDED017A9DF852
:10391000040003B0BDE8F08337A3D3E900233046A9
:103920003946FCF769FE02460B4620462946FDF75C
:10393000DFF8A8B132463B4630463946FCF7A6FCD4
:1039400002460B4620462946FCF780FF00222E4BFC
:10395000FCF79AFCFDF728F960F07F00C0B2D8E7C9
:1039600000222A4B30463946FCF746FE02460B46FB
:1039700020462946FDF7BCF8A8B10022244B30466A
:103980003946FCF739FE02460B4620462946FCF72D
:103990005DFF00221F4BFCF777FCFDF705F960F097
:1039A0003F00C0B2B5E700221B4B30463946FCF75A
:1039B00023FE02460B4620462946FDF799F8A8B19A
:1039C0000022164B30463946FCF716FE02460B46DF
:1039D00020462946FCF73AFF00220E4BFCF754FC28
:1039E000FDF7E2F860F01F00C0B292E7FF2090E719
:1039F0000000000000C05F400000000000C06F40F9
:103A00000000F03F00408F400000504000807F40A9
:103A1000000020400000404000808F400000304007
:103A20000000000080842E4130B593B00024109433
:103A3000119409940A940B940C940D940E940F9481
:103A400020252A46214601A803F0CEF93048314B03
:103A500003604460856042F60413C360046101237F
:103A600043618023836102F00FF800283DD12023B9
:103A700010938023119310A9254802F0CDF9002856
:103A800036D16023099300220A920B920C920D9278
:103A90000E920F9209A91E4802F077F858BB042233
:103AA00009A91B4802F071F840BB082209A918486F
:103AB00002F06BF828BB0024019402940394DFED1C
:103AC000160A9FED160AFFF7E7FE049005944FF4DF
:103AD00000530693089401A90D4802F0E1F998B942
:103AE0000B48FFF793FE13B030BDFDF715FBBEE7A3
:103AF000FDF712FBC5E7FDF70FFBD0E7FDF70CFB69
:103B0000D3E7FDF709FBD6E7FDF706FBE8E700BFC3
:103B10007408002000000140A037204D0000B4438D
:103B200008B50A480A4B03604FF4E13343600023B1
:103B30008360C36003610C2242618361C36102F050
:103B40004DFB00B908BDFDF7E7FAFBE7F4080020DC
:103B5000005000402DE9F04389B000230393049303
:103B60000593069307930268414B9A4202D009B02D
:103B7000BDE8F08304460025009503F5F4331A6C84
:103B800042F480121A641A6C02F480120092009AB5
:103B900001951A6B42F004021A631A6B02F00402D8
:103BA0000192019A02951A6B42F008021A631B6B8C
:103BB00003F008030293029B4FF4805303934FF0EA
:103BC0000209CDF810904FF00108CDF814800327BA
:103BD00006970826079603A9264801F0F3F8042360
:103BE0000393CDF81090CDF814800697079603A99B
:103BF000214801F0E7F82148214B03604FF00063B2
:103C000043608560C5604FF48063036145618561F1
:103C1000C5610562456201F049FA18BB174B636341
:103C20009C631848184B03604FF0006343604023C7
:103C300083600023C3604FF480620261436183614B
:103C4000C3610362436201F031FA70B90D4B236323
:103C50009C6300220221352001F020FC352001F078
:103C600051FC84E7FDF758FAD8E7FDF755FAEDE780
:103C70000050004000080240000C024034090020BF
:103C80001060024094090020B86002407047FEE7CF
:103C9000FEE7FEE7FEE770477047704708B501F0A2
:103CA00095FC08BD08B5024801F0F8FA08BD00BF50
:103CB0003409002008B5024801F090FD08BD00BF9E
:103CC0007408002008B5024801F0E8FA08BD00BFFA
:103CD0009409002010B5074C204602F00BFD236824
:103CE0001B6813F0100F00D110BD2046FDF7F2FA4B
:103CF000FAE700BFF408002008B5024801F06EFDA5
:103D000008BD00BF3408002008B5024801F066FD78
:103D100008BD00BFB408002008B5024801F0BEFA93
:103D200008BD00BF3407002008B5024801F0B6FA0C
:103D300008BD00BF9407002082B0002100910B4B0A
:103D40005A6C42F480425A645A6C02F480420092E7
:103D5000009A01911A6C42F080521A641B6C03F0B5
:103D600080530193019B02B0704700BF00380240AE
:103D70004A4B5A6822F440325A605A6841680A43F2
:103D80005A600268536823F4807353600268536872
:103D9000016943EA012353600268536823F04073CA
:103DA00053600268536881680B43536002689368EC
:103DB00023F40063936002689368C1680B439360C7
:103DC000826A374B9A4257D00268936823F0706337
:103DD000936002689368816A0B43936002689368FA
:103DE00023F04053936002689368C16A0B43936069
:103DF0000268936823F00203936002689368017E6F
:103E000043EA4103936090F82030002B3FD00268D2
:103E1000536843F4006353600268536823F46043BB
:103E2000536001684B68426A013A43EA42334B608F
:103E30000268D36A23F47003D3620168CB6AC26953
:103E4000013A43EA0253CB620268936823F4007399
:103E500093600268936890F8301043EA41239360BE
:103E60000268936823F480639360026893684169F1
:103E700043EA8123936070470268936823F070637C
:103E800093600268936823F040539360B0E7026840
:103E9000536823F400635360CAE700BF0023014066
:103EA0000100000F38B310B50446036C43B1236C16
:103EB00013F0100F0BD00120002384F83C3010BD0C
:103EC000FFF7D0FA0023636484F83C30EFE7236CFB
:103ED00023F4885323F0020343F0020323642046B3
:103EE000FFF746FF00206064236C23F0030343F0D8
:103EF00001032364E0E701207047000030B583B080
:103F000013460022019290F83C20012A00F09A808A
:103F10000546012280F83C200268906810F0010FED
:103F200013D1906840F0010090604B4A10684B4AF2
:103F3000A2FB0020800C00EB4000019002E0019CFD
:103F4000013C019401980028F9D12A68906810F08A
:103F5000010F79D0286C20F4E06020F0010040F4DB
:103F600080702864526812F4806F05D02A6C22F4A5
:103F7000405242F480522A642A6C12F4805F36D098
:103F80006A6C22F006026A64002285F83C20AA6B63
:103F90003348D063AA6B33481064AA6B3248D064AC
:103FA0002A686FF0220010602868426842F0806240
:103FB00042602868826842F48072826028680A46FB
:103FC00000F14C01A86B01F0D7F8284B5B6813F0A7
:103FD0001F0F27D12B68264A934211D002F5807219
:103FE000934207D0234A934214D000202DE00022B0
:103FF0006A64C9E702F50072526812F01F0FF1D12E
:104000009A6812F0405F22D19A6842F080429A602A
:1040100000201AE002F58072526812F0100FEFD003
:10402000002012E02B68124A934201D000200CE0DD
:104030009A6812F0405F0CD19A6842F080429A6010
:10404000002002E0022000E0002003B030BD00208C
:10405000FBE70020F9E700BFDC01002083DE1B4303
:104060009D4000087B400008874000080023014075
:104070000020014000220140704708B5806BFFF727
:10408000FBFF08BD704708B5806B40230364436C99
:1040900043F004034364FFF7F5FF08BD08B503468A
:1040A000806B026C12F0500F25D1036C43F4007347
:1040B000036403689A6812F0405F19D1027EBAB9AE
:1040C000DA6A12F4700F03D09A6812F4806F0FD17D
:1040D0005A6822F020025A60036C23F48073036450
:1040E000036C13F4805F03D1036C43F0010303649A
:1040F000FEF73EFB08BD026C12F0100F04D1826B7C
:10410000D26C18469047F5E7FFF7BCFFF2E70000D6
:1041100030B482B00023019390F83C30012B00F0C2
:10412000B780012380F83C300B68092B3ED9056825
:10413000EA689BB203EB43031E3B072404FA03F334
:1041400022EA0303EB600568EA688C680B8803EBDE
:1041500043031E3B04FA03F31343EB604B68062B47
:104160003AD805686A6B03EB8303053B1F2404FA06
:1041700003F322EA03036B6305686A6B4B6803EB86
:104180008303053B0C8804FA03F313436B63026853
:10419000404B9A4250D002683E4B9A4255D0002381
:1041A00080F83C30184602B030BC704705682A6978
:1041B0009BB203EB4303072404FA03F322EA03034D
:1041C0002B6105682A698C680B8803EB430304FAAA
:1041D00003F313432B61C1E70C2B16D805682A6B38
:1041E00003EB8303233B1F2404FA03F322EA0303B4
:1041F0002B6305682A6B4B6803EB8303233B0C8816
:1042000004FA03F313432B63C1E70568EA6A03EB7F
:104210008303413B1F2404FA03F322EA0303EB6206
:104220000568EA6A4B6803EB8303413B0C8804FA98
:1042300003F31343EB62AAE70B68122BABD1164AC8
:10424000536843F480035360A5E70B68103B012BD0
:10425000A5D8114A536843F4000353600B68102B30
:104260009DD10E4B1B6802F1467202F52E3202F20E
:104270008332A2FB03239B0C03EB83035B000193BC
:1042800002E0019B013B0193019B002BF9D186E7E2
:10429000022088E70020014000230140DC010020CB
:1042A00070B110B50446037933B1022323710020A5
:1042B00020610123237110BD4371FEF7F5FFF4E780
:1042C000012070474379012B31D010B40123437191
:1042D00002220271046822688B4013432360B1B943
:1042E00002681168136803F0380311F0040F01D05D
:1042F000382B07D0012303710023437118465DF862
:10430000044B7047536843F001035360F2E70268BF
:104310001168136803F4601311F4802FEAD0B3F529
:10432000601FE7D1536843F002035360E2E70220C5
:1043300070474379012B1FD070B4012545710223CA
:1043400003710668336840F6FE74944023EA04045F
:104350000B6849680B439340234333600468236828
:10436000C02101FA02F223EA020222600571002351
:104370004371184670BC70470220704710B483B078
:10438000002401940068019051B901990A4408324F
:104390000192019A1360002003B05DF8044B70474E
:1043A00001990A4414320192F3E70000002800F05A
:1043B000D98170B582B00446036813F0010F3BD079
:1043C000A64B9B6803F00C03042B2CD0A34B9B68DB
:1043D00003F00C03082B21D06368B3F5803F4FD066
:1043E000B3F5A02F52D09D4B1A6822F480321A6088
:1043F0001A6822F480221A606368002B50D001F002
:10440000F1F80546954B1B6813F4003F14D101F0F9
:10441000E9F8401B6428F5D90320AAE18F4B5B68BB
:1044200013F4800FD8D08D4B1B6813F4003F03D0DA
:104430006368002B00F09881236813F0020F54D0BA
:10444000864B9B6813F00C0F3ED0844B9B6803F0A7
:104450000C03082B33D0E368002B67D0804B01227C
:104460001A6001F0BFF805467C4B1B6813F0020F81
:1044700053D101F0B7F8401B0228F5D9032078E1A9
:10448000764A136843F480331360B5E7734B1A68B8
:1044900042F480221A601A6842F480321A60ABE754
:1044A00001F0A0F805466D4B1B6813F4003FC3D024
:1044B00001F098F8401B6428F5D9032059E1674BB7
:1044C0005B6813F4800FC6D1644B1B6813F0020FB6
:1044D00003D0E368012B40F04981604A136823F060
:1044E000F803216943EAC1031360236813F0080F3E
:1044F00040D0636963B35B4B01221A6001F072F82C
:104500000546564B5B6F13F0020F33D101F06AF88A
:10451000401B0228F5D903202BE1504A136823F0F1
:10452000F803216943EAC1031360DEE74C4B002224
:104530001A6001F057F80546484B1B6813F0020F4C
:10454000D3D001F04FF8401B0228F5D9032010E129
:10455000444B00221A6001F045F805463F4B5B6F63
:1045600013F0020F06D001F03DF8401B0228F5D9E8
:104570000320FEE0236813F0040F78D0374B1B6C48
:1045800013F0805F0DD100230193344B1A6C42F07D
:1045900080521A641B6C03F080530193019B012528
:1045A00000E00025304B1B6813F4807F21D0A36806
:1045B000012B32D0052B36D0284B1A6F22F0010286
:1045C0001A671A6F22F004021A67A368002B34D00E
:1045D00001F008F80646214B1B6F13F0020F45D17E
:1045E00001F000F8801B41F288339842F3D9032090
:1045F000BFE01D4A136843F48073136000F0F2FFBC
:104600000646194B1B6813F4807FD0D100F0EAFFF7
:10461000801B0228F5D90320ABE0104A136F43F04A
:1046200001031367D1E70D4B1A6F42F004021A67BA
:104630001A6F42F001021A67C7E700F0D3FF06467F
:10464000064B1B6F13F0020F10D000F0CBFF801B46
:1046500041F288339842F3D903208AE000380240BF
:1046600000004742800E474200700040E5B9A36950
:10467000002B7DD0464A926802F00C02082A51D0E5
:10468000022B17D0434B00221A6000F0ABFF044608
:104690003F4B1B6813F0007F42D000F0A3FF001BCC
:1046A0000228F5D9032064E0394A136C23F08053C3
:1046B0001364DCE7374B00221A6000F093FF0546D5
:1046C000334B1B6813F0007F06D000F08BFF401BBC
:1046D0000228F5D903204CE0E369226A1343626A99
:1046E00043EA8213A26A5208013A43EA0243E26AA9
:1046F00043EA0263264A5360264B01221A6000F007
:1047000071FF0446224B1B6813F0007F06D100F0B6
:1047100069FF001B0228F5D903202AE0002028E0C9
:10472000002026E0012B26D0194B9B6803F4800162
:10473000E269914221D103F03F02216A8A421ED1EF
:10474000616A47F6C0721A408A421AD103F44032B5
:10475000A16A8A4217D103F07063E26A934214D1CE
:10476000002006E001207047012002E0012000E067
:10477000002002B070BD0120FBE70120F9E7012015
:10478000F7E70120F5E70120F3E70120F1E700BF9B
:104790000038024060004742F8B52F4B9B6803F099
:1047A0000C03042B53D0082B53D12B4B5A6802F027
:1047B0003F025B6813F4800F28D0274B5B68C3F37C
:1047C000881358010021C01A61F100018E0146EAE8
:1047D000906687013C1A66EB0105E90041EA5471D5
:1047E000E000C01841F100014B0243EAD0534402FB
:1047F000204619460023FCF747FA174B5B68C3F3C2
:10480000014301335B00B0FBF3F023E0124B5B6824
:10481000C3F388135C010025E41A65F10005AE01BD
:1048200046EA9466A701381B66EB0501CC0044EA12
:104830005074C500E81844F100018B0243EA90531C
:104840008402204619460023FCF71EFAD5E70348E8
:1048500000E00348F8BD00BF0038024000127A00B3
:104860000024F400002800F09B8070B50D4604463B
:104870004F4B1B6803F00F038B4208D2CBB24C4A5C
:104880001370136803F00F038B4240F08B80236892
:1048900013F0020F17D013F0040F04D0454A9368A9
:1048A00043F4E0539360236813F0080F04D0414AA7
:1048B000936843F4604393603E4A936823F0F003A7
:1048C000A1680B439360236813F0010F32D0636833
:1048D000012B21D09A1E012A25D9364A126812F0DE
:1048E000020F61D033498A6822F0030213438B60C0
:1048F00000F078FE06462F4B9B6803F00C036268BD
:10490000B3EB820F16D000F06DFE801B41F28833AE
:104910009842F0D9032042E0264A126812F4003F80
:10492000E0D101203BE0234A126812F0007FD9D188
:10493000012034E01E4B1B6803F00F03AB4207D984
:10494000EAB21B4B1A701B6803F00F03AB422DD168
:10495000236813F0040F06D0164A936823F4E0533B
:10496000E1680B439360236813F0080F07D0114AE6
:10497000936823F46043216943EAC1039360FFF71E
:104980000BFF0C4B9B68C3F303130B4AD35CD8405B
:104990000A4B18600A4B186800F0D8FD002070BD63
:1049A000012070470120FAE70120F8E70120F6E72F
:1049B000003C02400038024038B50008DC0100200D
:1049C000D8010020014B1868704700BFDC010020AF
:1049D00008B5FFF7F7FF044B9B68C3F38223034A34
:1049E000D35CD84008BD00BF0038024048B500087D
:1049F00008B5FFF7E7FF044B9B68C3F34233034A54
:104A0000D35CD84008BD00BF0038024048B500085C
:104A100010B40A490C6924F440740C610C6944F424
:104A200040740C610C6944F001040C610260BFF336
:104A30006F8F43605DF8044B704700BF003C02403D
:104A4000074B1A6922F440721A611A6942F4007223
:104A50001A611A6942F001021A610160704700BFD1
:104A6000003C0240074B1A6922F440721A611A692D
:104A700042F480721A611A6942F001021A610180DF
:104A8000704700BF003C0240064B1A6922F4407296
:104A90001A611A691A611A6942F001021A610170F9
:104AA000704700BF003C0240204BDB6813F0100F42
:104AB00007D01F4AD36943F01003D3611B4B102268
:104AC000DA601A4BDB6813F0200F07D0184AD3695D
:104AD00043F00803D361154B2022DA60134BDB68E7
:104AE00013F0400F07D0124AD36943F00403D36197
:104AF0000E4B4022DA600D4BDB6813F0800F07D0BD
:104B00000B4AD36943F00203D361084B8022DA6079
:104B1000064BDB6813F0020F07D0054AD36943F058
:104B20002003D361014B0222DA607047003C02404F
:104B3000F4090020094B1B69002B01DB00207047A2
:104B4000064B074A5A6002F188325A601B69002BF3
:104B500001DB002070470120704700BF003C02408D
:104B600023016745034A136943F0004313610020A2
:104B7000704700BF003C024038B50446144B002289
:104B8000DA6100F02FFD0546124BDB6813F4803F1D
:104B90000AD0B4F1FF3FF7D024B100F023FD401B51
:104BA000A042F1D903200DE00A4BDB6813F0010F9E
:104BB00002D0084B0122DA60064BDB6813F0F20FDB
:104BC00001D1002038BDFFF76FFF0120FAE700BFD9
:104BD000F4090020003C0240F8B516461B4A127E3C
:104BE000012A30D004460D461F46184B01221A7682
:104BF0004CF25030FFF7C0FF90B9ACB1012C18D087
:104C0000022C1BD032463B462846FFF701FF4CF2F0
:104C10005030FFF7B1FF0E4A136923F0010313610F
:104C20000A4B00221A76F8BDF1B22846FFF72CFF96
:104C3000EDE7B1B22846FFF715FFE8E73146284611
:104C4000FFF7FEFEE3E70220EDE700BFF4090020D6
:104C5000003C0240074B196921F440711961196940
:104C600041F0040119611A6942EA002242F48032DB
:104C70001A617047003C024010B449B1012921D0AB
:104C8000022902D04FF4407403E04FF4007400E0B6
:104C900000240E4B196921F4407119611A692243ED
:104CA0001A611A6922F0F8021A611A6942EAC00010
:104CB00040F0020018611A6942F480321A615DF80E
:104CC000044B70474FF48074E3E700BF003C0240A0
:104CD000164B1B6813F4007F10D0144B1A6822F493
:104CE00000721A601A6842F400621A601A6822F4AC
:104CF00000621A601A6842F400721A600B4B1B685B
:104D000013F4806F10D0094B1A6822F480621A6085
:104D10001A6842F480521A601A6822F480521A60AB
:104D20001A6842F480621A60704700BF003C02407B
:104D3000F8B5224B1B7E012B3ED004460E461F4B7E
:104D400001221A764CF25030FFF716FF074670BB6F
:104D50004FF0FF3333602368012B16D0A568E3685A
:104D6000A2681344AB4220D9217C2846FFF784FF78
:104D70004CF25030FFF700FF114A136923F0FA0399
:104D80001361074680B90135E9E76168207CFFF7C8
:104D900061FF4CF25030FFF7EFFE0746084A1369F7
:104DA00023F00403136100E03560FFF791FF034B2C
:104DB00000221A763846F8BD0227FBE7F4090020E6
:104DC000003C024000230F2B00F2D980F0B583B0E5
:104DD00039E0072200E00022B2403A430234684E34
:104DE00046F82420674A1468EA4324EA05064F6817
:104DF00017F4803F01D045EA0406624C26606468DF
:104E000002EA04064F6817F4003F01D045EA0406A1
:104E10005C4C6660A46802EA04064F6817F4801FC1
:104E200001D045EA0406574CA660E46822404E686B
:104E300016F4001F01D045EA0402524CE26001332F
:104E40000F2B00F29A8001229A400C6804EA0205B6
:104E500032EA0404F3D14C68661E012E03D9112CEA
:104E600001D0122C12D186685F000324BC4026EAD0
:104E70000406CC68BC4034438460466826EA0206D7
:104E80004C68C4F300129A4032434260C7685E0027
:104E90000324B440E24327EA04078C68B4403C434F
:104EA000C4604C68022C01D0122C13D1DF080837E3
:104EB00050F827E003F007044FEA840C0F2404FAAB
:104EC0000CF42EEA040E0C6904FA0CF444EA0E0405
:104ED00040F82740046814404A6802F00302B240D8
:104EE000224302604A6812F0805FA8D0002201923B
:104EF000254A546C44F480445464526C02F4804259
:104F00000192019A9C08A61C1D4A52F8267003F0D3
:104F1000030296000F22B24027EA02071B4A904282
:104F20003FF459AF02F5806290421AD002F58062D8
:104F3000904218D002F58062904216D002F580624D
:104F4000904214D002F58062904212D002F5806245
:104F5000904210D002F5806290423FF43AAF0822AE
:104F60003AE7012238E7022236E7032234E7042237
:104F700032E7052230E706222EE703B0F0BD704786
:104F800000380140003C014000380240000002406F
:104F90000369194201D001207047002070470AB10F
:104FA0008161704709048161704730B405682C68DD
:104FB00024F480242C60046863608368402B05D04F
:104FC000036899600368DA6030BC704703689A60D0
:104FD0000368D960F8E7000010B40368D9B210394B
:104FE0000C4AA2FB014212090B4CA25CC2655F296C
:104FF00009D923F47F7323F0030304338365806DA1
:105000005DF8044B704723F47F7323F0030383653B
:10501000F5E700BFABAAAAAA30B50008836A826987
:1050200092B9012B0AD0022B02D00BB1002070479D
:10503000C36A13F0807F28D100207047C36AB3F1A0
:10504000C07F24D000207047B2F5005F09D0022B4A
:1050500025D9032B25D1C36A13F0807F23D10020EB
:105060007047032B03D8DFE803F01404140A002070
:105070007047C36A13F0807F0DD100207047C36A68
:10508000B3F1C07F09D00020704701207047012094
:1050900070470120704701207047012070470120B0
:1050A00070470020704701207047000070B504462B
:1050B00000F098FA002C5BD00546002384F83430C9
:1050C000022384F835302268136823F0010313604B
:1050D00023681A6812F0010F0AD000F083FA431B0C
:1050E000052BF5D920236365032084F8350070BDB6
:1050F0001A68204810406168A2680A43E1680A43C0
:1051000021690A4361690A43A1690A43E1690A43C3
:10511000216A0A430243616A04291ED01A60266884
:10512000756925F00705636A1D43042B07D1A36A3F
:105130001D43E36A1BB12046FFF770FF90B975610C
:105140002046FFF749FFE26D3F2393408360002034
:105150006065012384F83530C9E7E16A206B0143BB
:105160000A43DBE740236365012084F83500BEE78E
:105170000120BCE73F8010F038B50446856D90F8FB
:10518000340001282BD0012084F8340094F8350035
:10519000C0B2012804D0002384F83430022038BD86
:1051A000022084F83500002060652046FFF7FDFEF0
:1051B000E26D3F239340AB602268136843F016030F
:1051C0001360236C23B12268136843F00803136053
:1051D0002268136843F0010313600020DFE7022018
:1051E000DDE770B50446866D00F0FCF994F83530C3
:1051F000DBB2022B06D080236365002384F83430B1
:10520000012070BD05462268136823F01603136061
:105210002268536923F080035361236CE3B1226851
:10522000136823F0080313602268136823F0010356
:10523000136023681B6813F0010F11D000F0D2F93E
:10524000431B052BF5D920236365002384F83430F4
:10525000032084F83500D4E7A36C002BDFD1E3E70B
:10526000E26D3F239340B360002084F834000123B3
:1052700084F83530C5E790F83530DBB2022B03D027
:105280008023436501207047052380F8353002688C
:10529000136823F00103136000207047F0B583B05A
:1052A000044600230193724B1D68724BA3FB053526
:1052B000AD0A876D3E68C26D08239340334210D01B
:1052C00003681A6812F0040F0BD01A6822F0040267
:1052D0001A60C26D08239340BB60436D43F0010325
:1052E0004365E26D01239340334209D0226852693D
:1052F00012F0800F04D0BB60636D43F0020363655E
:10530000E26D04239340334209D02268126812F000
:10531000020F04D0BB60636D43F004036365E26D6C
:1053200010239340334224D02268126812F0080FF1
:105330001FD0BB6023681A6812F4802F0DD01B6841
:1053400013F4002F04D1236C9BB12046984710E042
:10535000A36C73B1204698470BE01A6812F4807F63
:1053600003D11A6822F008021A60236C0BB12046A0
:105370009847E26D20239340334255D0226812684B
:1053800012F0100F50D0BB6094F83530DBB2052B13
:105390000ED023681A6812F4802F33D01B6813F4E0
:1053A000002F2AD1636C002B3ED0204698473BE06B
:1053B0002268136823F0160313602268536923F0F0
:1053C00080035361236CA3B12268136823F00803A0
:1053D0001360E26D3F239340BB60002384F83430B8
:1053E000012384F83530236D002B3FD020469847A9
:1053F0003CE0A36C002BE7D1EBE7E36BA3B12046C5
:10540000984711E01A6812F4807F09D11A6822F0D7
:1054100010021A60002384F83430012384F83530F8
:10542000E36B0BB120469847636DFBB1636D13F0DE
:10543000010F17D0052384F835302268136823F054
:1054400001031360019B01330193AB4204D823682D
:105450001B6813F0010FF5D1002384F834300123C9
:1054600084F83530E36C0BB12046984703B0F0BDAB
:10547000DC010020B5814E1B074AD36823F4E063AA
:105480001B041B0C000200F4E060034343F0BF6305
:1054900043F40033D360704700ED00E030B4174BA5
:1054A000DB68C3F30223C3F10704042C28BF0424E0
:1054B0001D1D062D18D9033B4FF0FF3505FA04F4E6
:1054C00021EA0401994005FA03F322EA0303194390
:1054D00000280BDB0901C9B200F1604000F5614012
:1054E00080F8001330BC70470023E5E700F00F00A0
:1054F0000901C9B2024B1954F4E700BF00ED00E006
:1055000014ED00E0002807DB00F01F024009012332
:105510009340024A42F82030704700BF00E100E0AB
:105520000138B0F1807F0AD2064B5860064AF0215C
:1055300082F823100020986007221A60704701202B
:10554000704700BF10E000E000ED00E010B5044639
:105550000E4B18784FF47A73B3FBF0F30C4A1068D3
:10556000B0FBF3F0FFF7DCFF68B90F2C01D9012085
:105570000AE0002221464FF0FF30FFF78FFF054B76
:105580001C60002000E0012010BD00BFD4010020FD
:10559000DC010020D801002008B50B4B1A6842F44A
:1055A00000721A601A6842F480621A601A6842F443
:1055B00080721A600320FFF75FFF0020FFF7C6FF2D
:1055C000FEF7BAFB002008BD003C0240034A116808
:1055D000034B1B780B441360704700BF140A002074
:1055E000D4010020014B1868704700BF140A002046
:1055F00038B50446FFF7F6FF0546B4F1FF3F02D089
:10560000044B1B781C44FFF7EDFF401BA042FAD36C
:1056100038BD00BFD401002030B4036A23F0010379
:105620000362056A4268846924F073040B681C43B2
:1056300025F002058B682B43104DA84203D005F5D9
:105640008065A84205D123F00803CD682B4323F0E1
:1056500004030A4DA84203D005F58065A84205D190
:1056600022F440724D6915438A692A43426084617D
:105670004A684263036230BC704700BF00000140CB
:1056800030B4036A23F480730362036A4268C46916
:1056900024F073040D682C4323F400738D6843EAEF
:1056A0000523124DA84203D005F58065A84206D116
:1056B00023F40063CD6843EA052323F480630B4D94
:1056C000A84203D005F58065A84207D122F44052D4
:1056D0004D6942EA05128D6942EA05124260C461D1
:1056E0004A68C263036230BC704700BF00000140DB
:1056F00030B4036A23F480530362036A4468C269C6
:1057000022F4E6420D6842EA052223F400538D6834
:1057100043EA0533094DA84203D005F58065A84248
:1057200004D124F480444D6944EA85144460C26184
:105730004A680264036230BC704700BF0000014049
:1057400030B4036A056A25F001050562846924F016
:10575000F00444EA021423F00A030B438461036259
:1057600030BC704730B4056A25F0100505628469C5
:10577000036A24F4704444EA023423F0A00343EAA9
:1057800001138461036230BC7047022380F83D300E
:105790000268936803F00703062B03D0136843F0F5
:1057A00001031360012380F83D3000207047026838
:1057B000D36843F00103D3600268936803F00703E2
:1057C000062B03D0136843F00103136000207047D9
:1057D00070477047704770477047704710B5044670
:1057E00003681A6912F0020F11D0DA6812F0020F82
:1057F0000DD06FF002021A610123037703689B69E1
:1058000013F0030F70D0FFF7E6FF00232377236820
:105810001A6912F0040F12D0DA6812F0040F0ED0D9
:105820006FF004021A610223237723689B6913F443
:10583000407F5FD02046FFF7CEFF00232377236809
:105840001A6912F0080F12D0DA6812F0080F0ED0A1
:105850006FF008021A61042323772368DB6913F0D1
:10586000030F4ED02046FFF7B6FF002323772368AF
:105870001A6912F0100F12D0DA6812F0100F0ED061
:105880006FF010021A61082323772368DB6913F491
:10589000407F3DD02046FFF79EFF002323772368FB
:1058A0001A6912F0010F03D0DA6812F0010F36D135
:1058B00023681A6912F0800F03D0DA6812F0800FA3
:1058C00034D123681A6912F0400F03D0DA6812F05D
:1058D000400F32D123681A6912F0200F03D0DA6822
:1058E00012F0200F30D110BDFFF774FF2046FFF7F4
:1058F00073FF8AE72046FFF76DFF2046FFF76CFF36
:105900009BE72046FFF766FF2046FFF765FFACE701
:105910002046FFF75FFF2046FFF75EFFBDE76FF011
:1059200001021A612046FFF754FFC1E76FF08002C1
:105930001A61204600F0DEFAC3E76FF040021A61F8
:105940002046FFF74AFFC5E76FF020021A612046A4
:1059500000F0CFFAC7E700000368304A904212D047
:10596000B0F1804F0FD0A2F57C4290420BD002F5EF
:105970008062904207D002F58062904203D002F527
:105980007842904203D123F070034A681343234ABC
:1059900090422AD0B0F1804F27D0A2F57C429042AD
:1059A00023D002F5806290421FD002F580629042BF
:1059B0001BD002F57842904217D002F57052904207
:1059C00013D002F5806290420FD002F580629042BF
:1059D0000BD0A2F59832904207D002F58062904237
:1059E00003D002F58062904203D123F44073CA6869
:1059F000134323F080034A69134303608B68C36237
:105A00000B688362054B984203D003F5806398428C
:105A100001D10B690363012343617047000001401A
:105A2000B0B110B5044690F83D3063B1022384F85C
:105A30003D30214651F8040BFFF78EFF012384F817
:105A40003D30002010BD80F83C30FDF793FEEDE7BF
:105A500001207047B0B110B5044690F83D3063B1F5
:105A6000022384F83D30214651F8040BFFF774FF00
:105A7000012384F83D30002010BD80F83C30FFF752
:105A8000A7FEEDE701207047B0B110B5044690F8CD
:105A90003D3063B1022384F83D30214651F8040BB8
:105AA000FFF75AFF012384F83D30002010BD80F835
:105AB0003C30FDF73FFEEDE70120704730B4036A4C
:105AC00023F010030362036A4468826922F4E64209
:105AD0000D6842EA052223F020038D6843EA05138E
