:020000040800F2
:1000000000000220217E00084546000847460008FF
:10001000494600084B4600084D4600080000000015
:100020000000000000000000000000004F46000833
:1000300051460008000000005346000855460008DD
:10004000717E0008717E0008717E0008717E0008D4
:10005000717E0008717E0008717E0008717E0008C4
:10006000717E0008717E0008014700085D460008A7
:10007000717E0008717E0008717E0008717E0008A4
:10008000717E0008717E0008717E0008717E000894
:10009000717E0008717E0008717E0008717E000884
:1000A000717E00086D460008717E0008717E0008B0
:1000B000717E0008717E0008717E0008717E000864
:1000C000717E0008717E0008717E00081D470008DF
:1000D000717E0008717E0008717E0008717E000844
:1000E000717E0008717E0008717E0008717E000834
:1000F000717E0008717E0008717E00087D46000850
:10010000717E0008717E0008717E0008717E000813
:10011000717E00088D460008B1460008C1460008FF
:10012000D1460008717E0008E1460008F14600084B
:10013000717E00080000000000000000717E0008D1
:10014000717E0008717E0008717E0008717E0008D3
:10015000717E0008717E0008717E0008717E0008C3
:10016000717E0008717E0008717E0008717E0008B3
:10017000717E0008717E0008000000000000000091
:08018000717E0008717E000889
:1001900010B5054C237833B9044B13B10448AFF3C1
:1001A00000800123237010BD8404002000000000A3
:1001B00034BA000808B5034B1BB103490348AFF339
:1001C000008008BD000000008804002034BA000848
:1001D000034613F8012B002AFBD1181A0138704787
:1001E00001F0FF01102A2BDB10F0070F08D010F8E8
:1001F000013B013A8B422DD010F0070F42B3F6D1EC
:10020000F0B441EA012141EA014122F007047FF004
:1002100000070023F0E80256083C85EA010586EA5B
:10022000010685FA47F5A3FA87F586FA47F6A5FA97
:1002300087F68EB9EED1F0BC01F0FF0102F00702A3
:1002400032B110F8013B013A83EA010313B1F8D14E
:100250000020704701387047002D06BF354603382F
:10026000073815F0010F07D1013015F4807F02BF68
:10027000013015F4C03F0130F0BC0138704700BFB9
:1002800081F0004102E000BF83F0004330B54FEA47
:1002900041044FEA430594EA050F08BF90EA020FB4
:1002A0001FBF54EA000C55EA020C7FEA645C7FEA47
:1002B000655C00F0E2804FEA5454D4EB5555B8BF6A
:1002C0006D420CDD2C4480EA020281EA030382EADB
:1002D000000083EA010180EA020281EA0303362D6D
:1002E00088BF30BD11F0004F4FEA01314FF4801C40
:1002F0004CEA113102D0404261EB410113F0004F52
:100300004FEA03334CEA133302D0524263EB430308
:1003100094EA050F00F0A780A4F10104D5F1200EA6
:100320000DDB02FA0EFC22FA05F2801841F1000101
:1003300003FA0EF2801843FA05F359410EE0A5F1D5
:1003400020050EF1200E012A03FA0EFC28BF4CF006
:10035000020C43FA05F3C01851EBE37101F00045BC
:1003600007D54FF0000EDCF1000C7EEB00006EEBC9
:100370000101B1F5801F1BD3B1F5001F0CD3490853
:100380005FEA30004FEA3C0C04F101044FEA4452AA
:1003900012F5800F80F09A80BCF1004F08BF5FEA31
:1003A000500C50F1000041EB045141EA050130BD11
:1003B0005FEA4C0C404141EB0101013C28BFB1F523
:1003C000801FE9D291F0000F04BF01460020B1FA6E
:1003D00081F308BF2033A3F10B03B3F120020CDA41
:1003E0000C3208DD02F1140CC2F10C0201FA0CF01F
:1003F00021FA02F10CE002F11402D8BFC2F1200C84
:1004000001FA02F120FA0CFCDCBF41EA0C01904039
:10041000E41AA2BF01EB0451294330BD6FEA040482
:100420001F3C1CDA0C340EDC04F11404C4F120026D
:1004300020FA04F001FA02F340EA030021FA04F37F
:1004400045EA030130BDC4F10C04C4F1200220FAD6
:1004500002F001FA04F340EA0300294630BD21FA14
:1004600004F0294630BD94F0000F83F4801306BFDA
:1004700081F480110134013D4EE77FEA645C18BFCE
:100480007FEA655C29D094EA050F08BF90EA020F65
:1004900005D054EA000C04BF1946104630BD91EA5D
:1004A000030F1EBF0021002030BD5FEA545C05D160
:1004B0004000494128BF41F0004130BD14F580049F
:1004C0003CBF01F5801130BD01F0004545F0FE4113
:1004D00041F470014FF0000030BD7FEA645C1ABF48
:1004E000194610467FEA655C1CBF0B46024650EA7F
:1004F000013406BF52EA033591EA030F41F40021AB
:1005000030BD00BF90F0000F04BF0021704730B530
:100510004FF4806404F132044FF000054FF0000105
:1005200050E700BF90F0000F04BF0021704730B5C6
:100530004FF4806404F1320410F0004548BF40429B
:100540004FF000013EE700BF42004FEAE2014FEAF0
:1005500031014FEA02701FBF12F07F4393F07F4FCB
:1005600081F06051704732F07F4208BF704793F0CE
:100570007F4F04BF41F40021704730B54FF46074E1
:1005800001F0004521F000411CE700BF50EA0102E4
:1005900008BF704730B54FF000050AE050EA01028D
:1005A00008BF704730B511F0004502D5404261EBFD
:1005B00041014FF4806404F132045FEA915C3FF43E
:1005C000D8AE4FF003025FEADC0C18BF03325FEADB
:1005D000DC0C18BF033202EBDC02C2F1200300FA8C
:1005E00003FC20FA02F001FA03FE40EA0E0021FAB1
:1005F00002F11444BDE600BF70B54FF0FF0C4CF49F
:10060000E06C1CEA11541DBF1CEA135594EA0C0F50
:1006100095EA0C0F00F0DEF82C4481EA030621EA8B
:100620004C5123EA4C5350EA013518BF52EA0335C6
:1006300041F4801143F4801338D0A0FB02CE4FF078
:100640000005E1FB02E506F00042E0FB03E54FF0A8
:100650000006E1FB03569CF0000F18BF4EF0010EA0
:10066000A4F1FF04B6F5007F64F5407404D25FEA9C
:100670004E0E6D4146EB060642EAC62141EA55514F
:100680004FEAC52040EA5E504FEACE2EB4F1FD0C91
:1006900088BFBCF5E06F1ED8BEF1004F08BF5FEA0F
:1006A000500E50F1000041EB045170BD06F00046C1
:1006B00046EA010140EA020081EA0301B4EB5C046E
:1006C000C2BFD4EB0C0541EA045170BD41F4801166
:1006D0004FF0000E013C00F3AB8014F1360FDEBF8B
:1006E000002001F0004170BDC4F10004203C35DA67
:1006F0000C341BDC04F11404C4F1200500FA05F3EA
:1007000020FA04F001FA05F240EA020001F000428A
:1007100021F0004110EBD37021FA04F642EB060100
:100720005EEA430E08BF20EAD37070BDC4F10C042A
:10073000C4F1200500FA04F320FA05F001FA04F2EE
:1007400040EA020001F0004110EBD37041F10001DA
:100750005EEA430E08BF20EAD37070BDC4F12005E5
:1007600000FA05F24EEA020E20FA04F301FA05F24D
:1007700043EA020321FA04F001F0004121FA04F2F5
:1007800020EA020000EBD3705EEA430E08BF20EAC5
:10079000D37070BD94F0000F0FD101F000464000FF
:1007A00041EB010111F4801F08BF013CF7D041EA81
:1007B000060195F0000F18BF704703F00046520085
:1007C00043EB030313F4801F08BF013DF7D043EA56
:1007D0000603704794EA0C0F0CEA135518BF95EA0C
:1007E0000C0F0CD050EA410618BF52EA4306D1D193
:1007F00081EA030101F000414FF0000070BD50EAB2
:10080000410606BF1046194652EA430619D094EA3B
:100810000C0F02D150EA013613D195EA0C0F05D125
:1008200052EA03361CBF104619460AD181EA030179
:1008300001F0004141F0FE4141F470014FF0000031
:1008400070BD41F0FE4141F4780170BD70B54FF0CC
:10085000FF0C4CF4E06C1CEA11541DBF1CEA13554C
:1008600094EA0C0F95EA0C0F00F0A7F8A4EB05042E
:1008700081EA030E52EA03354FEA013100F0888025
:100880004FEA03334FF0805545EA131343EA1263EE
:100890004FEA022245EA111545EA10654FEA0026A3
:1008A0000EF000419D4208BF964244F1FD0404F55C
:1008B000407402D25B084FEA3202B61A65EB0305B8
:1008C0005B084FEA32024FF480104FF4002CB6EB75
:1008D000020E75EB030E22BFB61A754640EA0C00F5
:1008E0005B084FEA3202B6EB020E75EB030E22BF35
:1008F000B61A754640EA5C005B084FEA3202B6EB76
:10090000020E75EB030E22BFB61A754640EA9C0034
:100910005B084FEA3202B6EB020E75EB030E22BF04
:10092000B61A754640EADC0055EA060E18D04FEAC2
:10093000051545EA16754FEA06164FEAC30343EA62
:1009400052734FEAC2025FEA1C1CC0D111F4801F2F
:100950000BD141EA00014FF000004FF0004CB6E728
:1009600011F4801F04BF01430020B4F1FD0C88BFC7
:10097000BCF5E06F3FF6AFAEB5EB030C04BFB6EBD2
:10098000020C5FEA500C50F1000041EB045170BDC5
:100990000EF0004E4EEA113114EB5C04C2BFD4EBF2
:1009A0000C0541EA045170BD41F480114FF0000E76
:1009B000013C90E645EA060E8DE60CEA135594EAF2
:1009C0000C0F08BF95EA0C0F3FF43BAF94EA0C0FF5
:1009D0000AD150EA01347FF434AF95EA0C0F7FF46A
:1009E00025AF104619462CE795EA0C0F06D152EABE
:1009F00003353FF4FDAE1046194622E750EA4106A2
:100A000018BF52EA43067FF4C5AE50EA41047FF4B2
:100A10000DAF52EA43057FF4EBAE12E74FF0FF3C17
:100A200006E000BF4FF0010C02E000BF4FF0010CE8
:100A30004DF804CD4FEA410C7FEA6C5C4FEA430C61
:100A400018BF7FEA6C5C1BD001B050EA410C0CBFB0
:100A500052EA430C91EA030F02BF90EA020F002012
:100A6000704710F1000F91EA030F58BF994208BF79
:100A700090422CBFD8176FEAE37040F00100704736
:100A80004FEA410C7FEA6C5C02D150EA013C07D18D
:100A90004FEA430C7FEA6C5CD6D152EA033CD3D0D8
:100AA0005DF8040B704700BF8446104662468C46D2
:100AB0001946634600E000BF01B5FFF7B7FF002805
:100AC00048BF10F1000F01BD4DF808EDFFF7F4FF2E
:100AD0000CBF012000205DF808FB00BF4DF808EDB9
:100AE000FFF7EAFF34BF012000205DF808FB00BFDC
:100AF0004DF808EDFFF7E0FF94BF012000205DF8FE
:100B000008FB00BF4DF808EDFFF7CEFF94BF0120B2
:100B100000205DF808FB00BF4DF808EDFFF7C4FFAB
:100B200034BF012000205DF808FB00BF4FEA410CF4
:100B30007FEA6C5C02D150EA013C0AD14FEA430CD7
:100B40007FEA6C5C02D152EA033C02D14FF0000014
:100B500070474FF0010070474FEA410212F5001252
:100B600015D211D56FF47873B3EB625212D94FEAF4
:100B7000C12343F0004343EA505311F0004F23FADE
:100B800002F018BF404270474FF00000704750EA33
:100B9000013005D111F0004008BF6FF000407047F0
:100BA0004FF00000704700BF4A0011D212F500124A
:100BB00011D20DD56FF47873B3EB62520ED44FEAB5
:100BC000C12343F0004343EA505323FA02F0704735
:100BD0004FF00000704750EA013002D14FF0FF3073
:100BE00070474FF0000070474FEA4102B2F1E04316
:100BF00024BFB3F5001CDCF1FE5C0DD901F0004C04
:100C00004FEAC0024CEA5070B2F1004F40EB830053
:100C100008BF20F00100704711F0804F21D113F17F
:100C20003872BCBF01F00040704741F480114FEAB8
:100C30005252C2F11802C2F1200C10FA0CF320FA41
:100C400002F018BF40F001004FEAC1234FEAD3235E
:100C500003FA0CFC40EA0C0023FA02F34FEA4303C8
:100C6000CCE77FEA625307D150EA01331EBF4FF051
:100C7000FE4040F44000704701F0004040F0FE406C
:100C800040F40000704700BF53B94AB9002908BFBB
:100C900000281CBF4FF0FF314FF0FF3000F0A4B927
:100CA000ADF1080C6DE904CE00F03CF8DDF804E08D
:100CB000DDE9022304B0704738B500220023044662
:100CC0000D46FFF70BFF28B920462946BDE83840FE
:100CD00000F00AB8204605F1004100F005F8404256
:100CE00061EB410138BD00BFD0B50C4B0022064678
:100CF0000F46FFF781FCFFF757FF0446FFF702FCA2
:100D0000074B0022FFF778FC02460B463046394677
:100D1000FFF7BAFAFFF748FF2146D0BD0000F03DCB
:100D20000000F0412DE9F047089D04468C46002B59
:100D300040F083808A42174647D9B2FA82F242B124
:100D4000C2F1200024FA00F09140974040EA010CE3
:100D500094404FEA1748230CBCFBF8F61FFA87FEB5
:100D600008FB16C143EA014306FB0EF1994209D97B
:100D7000FB1806F1FF3080F01981994240F216818C
:100D8000023E3B445B1AA4B2B3FBF8F008FB1033FD
:100D900044EA034400FB0EFEA64509D93C1900F1C4
:100DA000FF3380F00581A64540F2028102383C44C1
:100DB00040EA0640A4EB0E0400261DB1D4400023F7
:100DC000C5E900433146BDE8F08702B9FFDEB2FA5B
:100DD00082F2002A50D1CB1B4FEA174E1FFA87F838
:100DE0000126B3FBFEFC210C0EFB1C3341EA034140
:100DF00008FB0CF38B4207D979180CF1FF3002D2B3
:100E00008B4200F2E9808446C91AA3B2B1FBFEF01E
:100E10000EFB101143EA014408FB00F8A04507D976
:100E20003C1900F1FF3302D2A04500F2D9801846E8
:100E3000A4EB080440EA0C40BFE78B4209D9002D1F
:100E400000F0B1800026C5E9000130463146BDE81A
:100E5000F087B3FA83F6002E4AD18B4202D3824246
:100E600000F2B880841A61EB030101208C46002D4A
:100E7000A8D0C5E9004CA5E7C2F1200320FA03F68B
:100E8000974001FA02F04FEA174ED9403043030C65
:100E9000B1FBFEF61FFA87F80EFB161143EA014379
:100EA00006FB08F1994204FA02F409D9FB1806F18D
:100EB000FF3C80F08D80994240F28A80023E3B44A4
:100EC0005B1A81B2B3FBFEF00EFB103341EA034123
:100ED00000FB08F38B4207D9791800F1FF3C73D26D
:100EE0008B4271D902383944CB1A40EA064678E77A
:100EF000C6F1200C03FA06F422FA0CF31C4320FA84
:100F00000CF701FA06F34FEA144E21FA0CF11F43D5
:100F10003B0CB1FBFEF91FFA84F80EFB191143EAF2
:100F2000014109FB08FA8A4502FA06F200FA06F3C3
:100F300008D9611809F1FF3048D28A4546D9A9F18C
:100F400002092144A1EB0A01BFB2B1FBFEF00EFB86
:100F5000101147EA014700FB08F8B84507D9E7191F
:100F600000F1FF312ED2B8452CD90238274440EA8F
:100F70000940A7EB0807A0FB02894F45C646494632
:100F80001AD317D05DB1B3EB0E0267EB010707FA76
:100F90000CFCF2404CEA0202F740C5E900270026AB
:100FA0003146BDE8F0872E4628460BE70646E9E6BF
:100FB0001846FDE64345E5D2B8EB020E69EB0401A5
:100FC0000138DFE70846D2E760468DE78146B9E79A
:100FD000664675E730464AE7ACF1020C394413E740
:100FE00002383C4424E700BF704700BF30B595B0DD
:100FF0003022002108A806F081FF00240394049405
:1010000005940694079401941C4B1A6C42F080528C
:101010001A641B6C03F080530193019B0294184BDC
:101020001A6842F480421A601B6803F480430293FA
:10103000029B012308934FF48033099302250E95F8
:101040004FF480030F9304231093A8231193129558
:101050000723139308A803F029FF0F230393049594
:1010600005944FF4A05306934FF480530793052142
:1010700003A804F077F915B030BD00BF0038024076
:101080000070004008B505F027F8FFF7AFFF06F045
:101090007BF900F069FD02F03DFE02F085FE02F0F2
:1010A000B5FE02F0CFFD03F09BF902F0ADFF03F0B7
:1010B00013FA02F05DFF02F07FFF02221146124890
:1010C00000F078F8114800F0A7F8012001F0E0F8EE
:1010D00006F096F940220E490E4800F001FB01F09F
:1010E00009FB06F0B1F902F0D5FA0B4800F094F8CC
:1010F0000A4B01221A7001E000F010F9084B1B782E
:10110000002BFBD0F8E700BFF009002050BA000820
:1011100000040240140B002060BA0008A004002064
:10112000620500207047000008B50A460D4B1B7889
:10113000012B0BD0022B0FD003B108BD4FF47A73F3
:1011400001460948006805F018FEF6E70146064B1F
:10115000186805F083FEF0E70146034B186805F0B8
:10116000CFFEEAE7A1040020A804002008B50D4B3B
:101170001B78012B02D0022B07D008BD01220A499F
:101180000A4B186805F08EFEF7E7084B18680268EE
:10119000D36843F01003D3601D22054905F0F6FE25
:1011A000EBE700BF00000020C9050020A8040020D4
:1011B0004405002008B5054B1970054B1A70054B06
:1011C000186002F0C5FCFFF7D1FF08BDA1040020A4
:1011D00000000020A804002000B585B08DED000AB5
:1011E000CDED010A8DED021ACDED031A09480D234C
:1011F00003750A234375009B4360019B8360029B38
:10120000C360039B03611621FFF78EFF05B05DF8F5
:1012100004FB00BF040000200FB410B582B004AB83
:1012200053F8042B0193094C6521204608F0F2F98C
:101230004FF47A7382B221460548006805F09DFD9F
:1012400002B0BDE8104004B0704700BF6405002044
:10125000A80400200FB410B582B004AB53F8042BDF
:101260000193074C6521204608F0D4F981B220464D
:10127000FFF75AFF02B0BDE8104004B0704700BF4E
:1012800064050020114B1B68834200D0704710B5E5
:101290000F4B1B680F4A11780F4AD1545C1E125D28
:1012A0000D2A01D10A2907D00133094A136001220E
:1012B000084905F0F7FD10BD0023074A1355074AFA
:1012C00001211170024A1360F5E700BFA804002055
:1012D000A4040020C9050020440500206205002068
:1012E00010B582B004460023019303681A68019286
:1012F0005B680193019B074B1868A04201D002B0C4
:1013000010BD05F097FE23681A685B68024B012246
:101310001A70F4E7A80400206205002008B504480C
:1013200000F0FCF8FFF722FF024B00221A7008BD04
:1013300044050020620500202DE9F84307460E46CB
:101340009146102006F0BCFDC9F80000102006F000
:10135000B7FD0446002505E0142006F0B1FD44F871
:1013600025000135032DF7DD102006F0A9FD80468C
:10137000002505E0142006F0A3FD48F825000135FE
:10138000032DF7DDC6F8008000210E460D46084605
:101390000A4612E054F825100B7001350021012097
:1013A00009E0022823D005F1804C0CF1FF3C54F8F1
:1013B0002CC00CF8013001310132BB5CB3B30D2BF2
:1013C00034D0042D32DC042E30DC13292EDC202B0B
:1013D00016D00028E5D12F49595C11F0030FD9D060
:1013E00058F826100B70013600210220E3E706F1C1
:1013F000804C0CF1FF3C58F82CC00CF80130DAE7B7
:10140000022803D0012809D00020D5E706F1804347
:10141000013B58F8233000205854CDE705F18043B4
:10142000013B54F8233000205854C5E7022803D06C
:10143000012809D0002723E006F18043013B58F83A
:10144000233000225A54F5E705F18043013B54F85C
:10145000233000225A54EDE74FEA870854F827005A
:1014600006F007FD51EC100BD9F800309844FFF757
:10147000BBFBC8F8000054F8270006F029FD01372F
:10148000032FE9DD204606F023FD45EA062000B2E1
:10149000BDE8F88339C80008084BD3F8C830312BB1
:1014A0000ADC064A42F8230003F1320002EB800016
:1014B00041600133C2F8C830704700BFCC0500203E
:1014C00030B4002300E001331D46C25C2AB1CC5C7D
:1014D0001CB1A242F7D0002006E04A5D202A02D0CB
:1014E0000AB10D2A02D1D8B230BC70470020FBE708
:1014F00010B4002300E00133C25CCC5CA24202D1F4
:101500000AB1002CF7D112B92CB1002000E0002064
:101510005DF8044B70470120FAE7000030B583B056
:1015200005460024184BD3F8C830A34226DD2946CF
:10153000154B53F82400FFF7C3FF08B90134F1E756
:101540006A4601A92818FFF7F7FE32340E4B03EB69
:1015500084046368009A01999847009806F0B8FCE3
:10156000002405E0019B53F8240006F0B1FC01348F
:10157000032CF7DD019806F0ABFC02E00348FFF70F
:1015800069FE03B030BD00BFCC05002070BA000872
:1015900000BF00BF704710B400221146144600E09F
:1015A00001320E2A06DC0123934099B20342F7D0A0
:1015B0000134F5E714F0010F04D0490088B25DF85A
:1015C000044B70470020FAE710B540EA813084B23E
:1015D0002046FFF7E0FF204380B210BD2DE9F04F19
:1015E00083B08B46924601934FF0000945E04FF6D9
:1015F000FF764AE0294B01229A6111E0284B4FF413
:1016000080029A61FFF7C4FF08F10108B8F10F0FDB
:101610002CDC16F4004FEDD1204B4FF480329A6150
:101620007600B6B21E4C4023A361FFF7B1FF8021C4
:10163000204604F02DFA074600BF8021204604F022
:1016400027FA074400BF8021204604F021FA07440E
:1016500000BF8021204604F01BFA074400BF6D0044
:10166000ADB2012FCADD45F00105C7E7BAF1000FA1
:1016700001D02AF8195009F10109019B4B4508DDF9
:10168000BBF1000FB3D03BF819604FF0000845469E
:10169000BCE7002003B0BDE8F08F00BF00080240A7
:1016A00000040240F0B583B006460D4617464800D8
:1016B00006F006FC04460097074B1F682B460246BF
:1016C000314606480068B8470546204606F000FC4B
:1016D000284603B0F0BD00BFB8040020600700201A
:1016E000074B1860074B1960074B1A8018B1074B5E
:1016F000074A1A607047054B064A1A60704700BFD8
:1017000060070020B0040020AC040020B8040020D2
:1017100065780008DD1500082DE9F04F85B0074613
:101720000026ADF80C6001210846FFF74DFFADF82B
:101730000E00304D304C32462988206804F0AFF955
:10174000642201210DF10E00FFF7ACFFDFF8B0803D
:1017500088F8000001222988206804F0A0F90121FE
:101760003846FFF731FFADF80E0032462988206871
:1017700004F095F9DFF88C90DFF88CA04FF0640B43
:10178000CDF800B001231D4A0DF10E01D9F800007B
:10179000DAF80070B84788F800000122298820682C
:1017A00004F07DF901213046FFF70EFFADF80E0081
:1017B00032462988206804F072F9CDF800B0DAF8D2
:1017C0000060012303AA0DF10E01D9F80000B04713
:1017D00088F8000001222988206804F060F998F850
:1017E000003023B9BDF80C0005B0BDE8F08F002033
:1017F000FAE700BFAC040020B0040020640700201A
:10180000B404002060070020B804002008B543F6A7
:10181000FF70FFF781FF10F4804F02D1C0F30D007D
:1018200008BD4FF6FF70FBE700EE100A51B9B8EEA5
:10183000C00ADFED0A7A20EE270ADFED097A20EEF2
:10184000270A7047B8EEC00ADFED067A20EE270AB5
:10185000DFED037A20EE270A704700BFDA0FC94098
:10186000000080380000B4432DE9F04F85B0834676
:1018700001210846FFF7A8FEADF80E00364D374CA3
:1018800000222988206804F00AF9642201210DF160
:101890000E00FFF707FF01222988206804F0FFF8F7
:1018A00000211820FFF790FEADF80E0000222988D5
:1018B000206804F0F4F8DFF8AC80DFF8AC90284F33
:1018C0004FF0640ACDF800A0012342460DF10E014D
:1018D000D9F800003E68B04701222988206804F04A
:1018E000DEF84FEA8B00002100F0FC00FFF76CFEF1
:1018F000ADF80E0000222988206804F0D0F8CDF859
:1019000000A0012342460DF10E01D9F800003E6807
:10191000B04701222988206804F0C1F80121002085
:10192000FFF752FEADF80E0000222988206804F06F
:10193000B6F8CDF800A03F68012342460DF10E0134
:10194000D9F80000B84701222988206804F0A7F8D8
:1019500005B0BDE8F08F00BFAC040020B00400204B
:10196000B8040020BC0400206007002030EE600AAC
:10197000D0ED047A70EE677A9FED257A27EE877AAC
:10198000D0ED067ADFED236A67EEA67A77EE877AE6
:1019900080ED040AF0EEC06A90ED087AF4EEC76AB2
:1019A000F1EE10FA09D590ED077A67EE006A90ED36
:1019B000037A37EE267A80ED037AD0ED036A90ED54
:1019C000057AF4EEC76AF1EE10FA16DD80ED037ABF
:1019D000C0ED067AD0ED000A20EE800A90ED017A83
:1019E00067EE277A70EE277A90ED030A90ED027A7F
:1019F00020EE070A37EE800A7047B1EE477AF4EE20
:101A0000C76AF1EE10FAE3D580ED037AE0E700BF94
:101A1000A69BC43EA4701D3F08B50C4B1B7823B198
:101A200002780B4B1B789A4200D008BD436882684D
:101A3000C1680069D0ED001A91ED001AD2ED000ADC
:101A400093ED000AFFF7C8FBEFE700BFBE040020DC
:101A50001A00002008B5037A034A41680348006869
:101A600006F01CF808BD00BFC4040020E4040020F8
:101A700008B530B9074B01221A700748FFF7EAFF93
:101A800008BD064B186806F0B1F8024B00221A7028
:101A9000F6E700BFE8040020B4010020E4040020C1
:101AA000024B1860024B1980704700BFE40400200D
:101AB000C204002008B5204B1B78012B02D0022B5A
:101AC00025D008BD1C4B02221A701C4A137892F9CB
:101AD0000020002A0FDB1A4A0121117003F07F0356
:101AE000184A137099B2184A1288914207D3124BC0
:101AF00000221A70E5E7124A00211170EEE703EBAD
:101B000043039A0011481044FFF7A4FFD9E70A4B9A
:101B100000221A700A4B1B78012BD2D1094B1B787B
:101B20000A4903EB430082008818027A034940689F
:101B300006F0D6F9C5E700BFE8040020C404002081
:101B4000BF040020C0040020C2040020B401002013
:101B500008B5044B1B68834200D008BDFFF7AAFFFD
:101B6000FBE700BFE404002070B58AB000240594B0
:101B7000069407940894099400942F4B1A6B42F032
:101B800080021A631A6B02F080020092009A01949C
:101B90001A6B42F004021A631A6B02F004020192FB
:101BA000019A02941A6B42F001021A631A6B02F056
:101BB00001020292029A03941A6B42F002021A6323
:101BC0001A6B02F002020392039A04941A6B42F019
:101BD00008021A631B6B03F008030493049B174D60
:101BE00022464FF40071284603F059FF4FF400736A
:101BF0000593012606960794089405A9284603F044
:101C000061FE4023059305A90D4803F05BFE1023F8
:101C100005930C4B069307960323089305A92846C2
:101C200003F050FE224621460A2004F0C5F90A209E
:101C300004F0F6F90AB070BD003802400008024016
:101C4000000402400000311030B40D461446013843
:101C500005280CD8DFE800F0030D161F28311B4BB8
:101C60000FCB85E80F001A4B0FCB84E80F0030BC78
:101C70007047174B0FCB85E80F00164B0FCB84E84E
:101C80000F00F4E7134B0FCB85E80F00124B0FCB7F
:101C900084E80F00EBE7104B0FCB85E80F000F4BEC
:101CA0000FCB84E80F00E2E70C4B0FCB85E80F0069
:101CB0000B4B0FCB84E80F00D9E7094B0FCB85E81E
:101CC0000F00024B0FCB84E80F00D0E78800002004
:101CD000A8000020680000207800002058000020A4
:101CE00098000020013805285BD8DFE800F00312D7
:101CF0001F303F4CDFED2B7A60EEA77A30EE670A9B
:101D000081ED000ADFED287A60EEA70AC2ED000A35
:101D10007047DFED247A60EEA70A70EE807AC1ED9D
:101D2000007A70EEC00AC2ED000A7047DFED1E7A3D
:101D300060EEA77AC1ED007AB1EE400ADFED197AC4
:101D400060EEA70A70EE600AC2ED000A7047DFED90
:101D5000157A60EEA77A37EEC00A81ED000ADFED52
:101D6000137A60EEA70AC2ED000A7047DFED107A21
:101D700060EEA70A70EEC07AC1ED007A70EE200A1C
:101D8000C2ED000A7047DFED097A60EEA77AC1ED77
:101D9000007ADFED047A60EEA77A77EE800AC2ED72
:101DA000000A704736CD133F36CD933F36CD93BFF3
:101DB00036CD13BF84B08DED010ACDED020A8DED55
:101DC000031A124BD3ED0B7AF8EE677A27EE800AEE
:101DD000BCEEC00A83ED0D0AD3ED0B7AF8EE677AFC
:101DE0009DED027A67EE877AFCEEE77AC3ED0E7A14
:101DF000D3ED0B7AF8EE677A9DED037A67EE877A7A
:101E0000FCEEE77AC3ED0F7A04B0704700000140A2
:101E100010B588B06C4684E80F00F0EE407A9FED74
:101E2000127AB4EEC70AF1EE10FA01DDF0EE477A4D
:101E30009DF8003000EE103AB8EEC00A9DF801306F
:101E400000EE903AF8EEE00A9DF8023001EE103A0A
:101E5000B8EEC11A20EE270A60EEA70A21EE271A73
:101E6000FFF7A8FF08B010BD3333733F84B038B517
:101E70002DED028B054607AC84E80E00B0EE408ADB
:101E800094E80F00FFF7C4FF284604F051F9064B11
:101E9000B0EE480A0FCBFFF7BBFFBDEC028BBDE8ED
:101EA000384004B0704700BFF804002010B48FB071
:101EB00004AC84E80F00F7EE007A77EEC07A77EE94
:101EC000E07AB6EE007A27EE877A344B1A7807EE7E
:101ED000902AF8EEE77A67EE877A9DF8102006EEF2
:101EE000902AF8EEE66A66EE806A77EEA67A9DF8AA
:101EF000402006EE902AF8EEE66A66EEA06A77EEDB
:101F0000A67ACDED087A5A7807EE902AF8EEE77AAD
:101F100067EE877A9DF8112006EE902AF8EEE66AC1
:101F200066EE806A77EEA67A9DF8412006EE902A4A
:101F3000F8EEE66A66EEA06A77EEA67ACDED097A4B
:101F40009B7807EE903AF8EEE77A67EE877A9DF88D
:101F5000123007EE103AB8EEC77A27EE000A37EED5
:101F6000800A9DF8423007EE903AF8EEE77A67EE85
:101F7000A00A70EE200ACDED0A0A08AB93E807002C
:101F80000EAB03E907009DED0B0ADDED0C0A9DED9C
:101F90000D1A0FB05DF8044B704700BFB800002069
:101FA00010B52DED028B90B0F0EE408AB0EE608A55
:101FB000DFED327AB4EEE70AF1EE10FA14DDFDEE51
:101FC000C07A17EE903A2E4A82FB03121A44DB17AE
:101FD000C3EB22234FF4B47202FB03F307EE903AF3
:101FE000F8EEE77A70EE678AFCEEE87A17EE904A30
:101FF000244BA3FB043464090134E4B208AA0CA9FD
:102000002046FFF721FE07A906A8B0EE680A00F0F7
:1020100087F9DFED1D7AB4EEE78AF1EE10FA01DD03
:10202000B0EE678A9DED070A28EE000A8DED070ADB
:10203000DDED060A68EE200ACDED060A04AA05A920
:102040002046FFF74FFE08AB0FCB8DE80F0010AB1B
:1020500013E90F00DDED040A9DED050AFFF726FFE9
:102060000A4B83ED000AC3ED010A83ED021AFFF764
:10207000A1FE10B0BDEC028B10BD00BF0000B44348
:10208000B7600BB6898888883333733FEC0400202F
:1020900008B52DED048BB0EE409AF0EE608AB0EEFC
:1020A000418A20EE000A60EEA07A30EE270A09F09D
:1020B000C7FAF0EE409AF0EE490AB0EE680A09F06D
:1020C000BDFADFED117A60EE277A9FED107A87EE88
:1020D000870AB5EEC00AF1EE10FA10D438EE088A7D
:1020E000F0EE087AC8EE270ADFED097A60EEA70A5B
:1020F000C9EEA00AFFF754FFBDEC048B08BDDFED6D
:10210000057A30EE270AE9E700003443DA0F494048
:10211000F6285C3F0000B4432DE9F04385B0044647
:1021200001782A48FFF778F86068FEF70DFA024652
:102130000B462748FFF770F8217A2648FFF76CF81E
:10214000D4F81C80D4F818906069FEF7FDF90646B3
:102150000F46214D4846FEF7F7F9CDE9020140460A
:10216000FEF7F2F9CDE9000132463B461B4928460D
:10217000FFF752F8D4F84080D4F83C90A06BFEF7FB
:10218000E3F906460F464846FEF7DEF9CDE90201BF
:102190004046FEF7D9F9CDE9000132463B461049E9
:1021A0002846FFF739F8E06DFEF7CEF902460B46F8
:1021B0000C48FFF731F8206EFEF7C6F902460B46D1
:1021C0000948FFF729F805B0BDE8F08384BA000894
:1021D00098BA0008B0BA0008D4BA0008CCBA00080F
:1021E000ECBA0008F4BA00080CBB000870B5A0B047
:1021F00000261A9601AC1F4D0FCD0FC42B6823602B
:1022000006AC1D4D0FCD0FC40FCD0FC42B6823603E
:102210000FAC1A4D0FCD0FC40FCD0FC42B68236028
:10222000174B1B681893174B1B68199303F002FA9E
:102230001B9602231F9306231D9301231E931AA9A5
:102240001BA803F0F5FA10B901AD0F4C0AE0FEF738
:1022500069FFF9E755F8042B00232146022003F01B
:102260003BFA0434094B9C42F4D903F0FBF920B04B
:1022700070BD00BF24010020D4000020F800002021
:102280003C0100203801002000000408630004081D
:1022900030B59BB0044664221A4901A805F020FE1F
:1022A0009DF80430FF2B0BD11748FEF7B5FF3CB16A
:1022B000FFF79CFF6422134901A805F011FEEFE728
:1022C00001A8FFF729FF114D01AC0FCC0FC5236802
:1022D0002B600F4C06AD0FCD0FC40FCD0FC42B6874
:1022E00023600C4C0FAD0FCD0FC40FCD0FC42B6866
:1022F0002360199A084B1A60189A084B1A601BB091
:1023000030BD00BF0000040818BB000824010020F5
:10231000D4000020F8000020380100203C010020FB
:1023200030B4DFED467A20EE270AFDEEC07AB5EE36
:10233000C00AF1EE10FA7AD4F8EEE77A70EE677A16
:102340009FED3F0A67EE807ABCEEE77A17EE103A0F
:10235000C3F3080303F18002C2F3080207EE103A48
:10236000B8EE477A77EEC77A364C04EB820595EDE6
:10237000006A013204EB820292ED003A04EB830220
:1023800092ED004AF1EE444A013304EB8303D3EDAE
:10239000006A73EE465A34EEE67A9FED2B5A27EE2A
:1023A000057A75EEA53A37EE637A27EE877AF0EE76
:1023B000082A65EEA25A74EEA43A73EEE63A63EE8A
:1023C000853A75EEE35A37EE257A27EE877A64EE82
:1023D000854A37EE247A27EE877A37EE067A81ED42
:1023E000007A76EEC46A36EE037A27EE057A76EE48
:1023F000A65A37EE657A27EE877A66EEA26A76EEFF
:10240000065A75EE835A65EE855A76EEE56A37EE22
:10241000267A27EE877A26EE056A37EE067A67EE89
:10242000877A74EE277AC0ED007A30BC704717EED9
:10243000903A013B07EE903A7EE700BF610B363BD6
:102440000000004448BB0008DB0F493CDFED1E7A6A
:1024500020EE270AF5EE007A30EE270AFDEEC07A6C
:10246000B5EEC00AF1EE10FA28D4F8EEE77A70EE75
:10247000677A9FED160A67EE807ABCEEE77A17EE70
:10248000103AC3F3080307EE103AB8EE470A77EEA6
:10249000C07A0F4A02EB8301D1ED006A013302EBEF
:1024A000830393ED007AB7EE000A30EE670A20EE60
:1024B000260A67EE877A30EE270A704717EE903AC1
:1024C000013B07EE903AD0E783F9223E000000443A
:1024D00048BB00080000000070B52DED028B244BB6
:1024E00093ED008A234BD3ED007A78EE677A9FED67
:1024F000227AF4EEC77AF1EE10FA28D59FED1F7A12
:1025000077EE877A1E4ED6ED008A9FED1E7A67EE33
:10251000877A78EEE77A17EE900AFEF715F812A39D
:10252000D3E90023FEF768F804460D4618EE900A3A
:10253000FEF70AF822462B46FDF7A6FEFEF754FBEF
:1025400030600C4B83ED008ABDEC028B70BD9FEDBB
:102550000E7AF4EEC77AF1EE10FAD3DD9FED077A2A
:1025600077EEC77ACEE700BF9A9999999999D93FA2
:10257000A007002034050020000034C30000B4434D
:102580006807002000007A4500003443254BD3ED56
:10259000007A254B93ED007A77EEC77A9FED237A88
:1025A000F4EEC77AF1EE10FA30DD9FED217A77EE86
:1025B000C77AB0EEE77A1F4BD3ED086AB4EEE67A3D
:1025C000F1EE10FA05D593ED037A37EE277A83ED15
:1025D000037A184B93ED007A27EE277AD3ED016A40
:1025E00093ED046A37EEC66A66EE866A37EE267A9F
:1025F000D3ED036A93ED026A66EE866A37EE267AB9
:10260000C3ED047A0C4B83ED007A70479FED0B7A93
:10261000F4EEC77AF1EE10FACBD59FED057A77EE9E
:10262000877AC6E770070020A00700200000344327
:102630000000B44340010020B0010020000034C37A
:1026400008B5064BD3ED000A054B93ED000A05488B
:10265000FFF78CF9044B83ED000A08BD68070020E2
:10266000B00100208C0100201C0100200023044A3E
:10267000D360044AD360044AD360044AD3607047ED
:10268000F8000020D40000208C0100204001002030
:1026900030B583B005460024009401940A2003F06D
:1026A00047FDAC420FDA104AB2F90010009B0B4410
:1026B0000093B2F90220019B13440193012003F01F
:1026C00037FD0134EDE7009991FBF5F109B2074BB5
:1026D0001980019A92FBF5F212B25A800448FEF773
:1026E0009BFD03B030BD00BF240500202005002065
:1026F0004CC3000810B51D4B187AFFF7B5F800223F
:102700000221382003F058FC382003F089FC1848D7
:1027100002F0E8F8174802F0E5F8032216491748D6
:1027200002F008FB164803F0D0FD164C00212046AD
:1027300004F0C8F80421204604F0C4F8082120461B
:1027400004F0C0F80021204604F0EEF804212046F1
:1027500004F0EAF80821204604F0E6F81420FFF718
:1027600097FF094803F0C3FD10BD00BF24010020FE
:1027700048080020B8070020240500200008002099
:10278000F008002070090020B0090020B1EE400AD6
:1027900070EE600A80ED000A9FED067A60EEC77A5F
:1027A00030EE600A20EE070A37EE800A81ED000A5B
:1027B000704700BF3ACD133F30B52DED028B83B08B
:1027C000B0EE408AF0EE608A04460D460023009386
:1027D0000193694601A8B0EE410AFFF7A1FDDDEDC6
:1027E000000A68EE207A9DED010A28EE807A77EEE5
:1027F000877AC5ED007A28EE408A68EEA08A38EE26
:10280000288A84ED008A03B0BDEC028B30BD30B560
:102810002DED028B83B0F0EE408AB0EE608A044664
:102820000D46002300930193694601A8B0EE410ACA
:10283000FFF776FD9DED010A68EE007ADDED000AF6
:1028400028EEA07A77EE877AC5ED007A28EE208A06
:1028500068EE808A38EE688A84ED008A03B0BDECA9
:10286000028B30BD00B52DED028B83B02D4BD3ED27
:10287000000A2D4B93ED000A2C48FFF777F8B0EED5
:10288000408A2B4BD3ED000A2A4B93ED000A2A48CD
:10289000FFF76CF8694601A8284B93ED001AF0EE9B
:1028A000480AFFF7B4FF264B93ED001ADDED000A4E
:1028B0009DED010AFFF7ECFB224B1B7823B903B017
:1028C000BDEC028B5DF804FB9DED010A20EE000AD1
:1028D000DDED007A67EEA77A30EE270A08F0B0FE49
:1028E000B0EE408A124BD3ED007A27EEA70A0D4BCB
:1028F000D3ED007A67EEA77A30EE270A08F0A0FE43
:10290000114BD3ED007A77EE807AC3ED007AD3EDE8
:10291000017A37EE880A83ED010A9A6801329A60DB
:10292000CDE700BF7C07002010050020D400002068
:10293000780700201C010020F80000209C070020E0
:10294000300500201505002084070020F8B5224B33
:102950001D88224B1F7803221A700024264604E0AB
:10296000AB4200DA013E9DB20134B4F57A7F1CDA45
:102970001B4B83FB04231A19E317C3EB22234FF4E9
:10298000B47202FB1343DFED170A07EE903AB8EE7C
:10299000E70AFFF705FB012003F0CAFB0E4BB3F972
:1029A0000030AB42DCDD0136DDE70F4B9FED0D0A59
:1029B0000FCBFFF72DFA31460C48FEF72DFC002E09
:1029C00002DB064B1F70F8BD094A137AB3FA83F392
:1029D0005B091372F5E700BF6C070020D0000020F0
:1029E000B7600BB6CDCCCC3DF804002070C3000816
:1029F0002401002010B52DED028B84B09D4B93ED8A
:102A0000031A9D4AD2ED0B7AF8EE677A67EE817A67
:102A1000FCEEE77A02F58062C2ED0D7A00220292A6
:102A2000D3ED057AB1EE047AF4EEC77AF1EE10FA3E
:102A300000F18180B1EE047AF4EE477AF1EE10FAFB
:102A400000F08E80B1EE087AF4EE477AF1EE10FADB
:102A500000F08F80B2EE067AF4EE477AF1EE10FACB
:102A600000F0C080B2EE087AF4EE477AF1EE10FA88
:102A700000F0BF80B3EE017AF4EE477AF1EE10FA7F
:102A800000F0F080B3EE027AF4EE477AF1EE10FA3D
:102A900059D17A49B1F90030794AB2F900001B1ACC
:102AA00007EE103AB8EEC77A9FED765A27EE057A10
:102AB000DFED755A27EE257A9FED746AC7EE067A28
:102AC000DFED736A87EEA67AB0EEC77AB1F902300D
:102AD000B2F902209B1A07EE903AF8EEE77A67EE19
:102AE000857A67EEA57AC7EE865AC5EEA67AF0EE2D
:102AF000E77A77EE277A5F4C94ED007A77EE277AC3
:102B0000C4ED007AD4ED017A624B93ED007A77EE52
:102B1000877AC4ED017AA3680133A3609FED5E8AD2
:102B2000B0EE480AF0EE480AB0EE481AFFF742F954
:102B300084ED058A10E09FED581AB0EE410AF0EEE0
:102B4000410AFFF737F94B4BD3ED057AB7EE007A20
:102B500077EE877AC3ED057A04B0BDEC028B10BD29
:102B6000B0EE410ADDED020A9FED4B1AFFF722F9A4
:102B7000E9E7424BB3F90230414AB2F902209B1A0D
:102B800007EE903AF8EEE77A9FED3E7A67EE877AA5
:102B90009FED3D7A67EE877A9FED3C7AC7EE876AB4
:102BA0009FED3B7AC6EE877AB0EEE77A314BD3EDF4
:102BB000007A77EE877AC3ED007AD3ED017A354A51
:102BC00092ED007A77EE877AC3ED017A9A68013246
:102BD0009A609FED311AB0EE410AF0EE410AFFF71C
:102BE000E9F8B0E79FED2C0AF0EE410AFFF7E2F8B2
:102BF000A9E7224BB3F90030214AB2F900209B1A11
:102C000007EE903AF8EEE77A9FED1E7A67EE877A44
:102C10009FED1D7A67EE877A9FED1C7AC7EE876A73
:102C20009FED1B7AC6EE877AB0EEE77A114BD3EDB3
:102C3000007A77EE877AC3ED007AD3ED017A154AF0
:102C400092ED007A77EE877AC3ED017A9A680132C5
:102C50009A609FED111AB0EE410AF0EE410AFFF7BB
:102C6000A9F870E79FED0C0ADDED020AFFF7A2F864
:102C700069E700BF84070020000001402405002010
:102C800020050020000080393333534000004842C3
:102C9000A69B443B3005002000000000000000001F
:102CA0000268CF4B9A4200D070472DE9F0432DEDDA
:102CB000068B83B0CB4B1A78CB4B1B789A4240F0F3
:102CC0003181CA4B1B6813F0010F04D1C64B1B782E
:102CD000062B00F03881C54B1B6813F0010F04D19F
:102CE000C14B1B78042B00F23181C04A13680133B9
:102CF0001360B3F5FA6F00F02C81BD4E01224FF442
:102D00000071304602F0CBFEBA4C94ED008ABA4D09
:102D1000B5F90030B94FB7F900209B1A07EE903A89
:102D2000F8EEE77A9FEDB69A67EE897ADFEDB58A1D
:102D300067EEA87ADFEDB4AA87EEAA7A9FEDB3AA70
:102D4000C7EE0A7A78EE677A17EE900AFDF7FCFB79
:102D5000A1A3D3E90023FDF74FFC8046894618EE76
:102D6000100AFDF7F1FB42464B46FDF78DFAFDF7E1
:102D70003BFF08EE100A2060D4ED019AB5F902304D
:102D8000B7F902209B1A07EE903AF8EEE77A67EE61
:102D9000897A67EEA87A87EEAA7AC7EE0A7A79EE80
:102DA000E77A17EE900AFDF7CFFB8BA3D3E9002358
:102DB000FDF722FC8046894619EE900AFDF7C4FB18
:102DC00042464B46FDF760FAFDF70EFF00EE100A93
:102DD00060608F4BD3ED006AB5F9042007EE902AAE
:102DE000F8EEE77A67EE897A67EEA87A9FED897A3E
:102DF00067EE877A9FED886A87EE867A76EEC77AE5
:102E00009FED867A67EE877A76EEE77AC3ED007AF1
:102E1000834D844C29462046F0EE480AFFF7B6FC65
:102E2000FEF7F4FC804F3880FFF756FB012138880D
:102E3000FEF7FAFC7D4B83ED000A7D4B1A7801EE1C
:102E4000102AB8EEC11A21EE001A93ED010A31EEF4
:102E5000401A784B83ED001A694601A8D5ED000AA7
:102E600094ED000AFFF7A8FC734F97ED008ADDEDA3
:102E7000017A78EE677A17EE900AFDF765FB56A3A4
:102E8000D3E90023FDF7B8FB04460D4618EE100AFF
:102E9000FDF75AFB22462B46FDF7F6F9FDF7A4FE97
:102EA0003860664F97ED008ADDED007A78EE677A3C
:102EB00017EE900AFDF748FB47A3D3E90023FDF77F
:102EC0009BFB04460D4618EE100AFDF73DFB22461B
:102ED0002B46FDF7D9F9FDF787FE386000224FF445
:102EE0000071304602F0DBFD554B1B78002B00F0E3
:102EF000D5803D4B1B78032B2FD8022B30D0514867
:102F0000FEF78AFD5048FEF787FD5048FEF784FD26
:102F10004F4B1B78002B40F0CD8003B0BDEC068BEF
:102F2000BDE8F083304B1B7853B94A4B9FED3B0A09
:102F30000FCBFEF76DFF2C4B1A782A4B1A70C0E6A8
:102F4000FFF794FBF7E7FFF721FBC4E6FFF778FBF9
:102F5000CBE6134600221A60CFE6FFF783FCCEE7EC
:102F6000324BD3ED007A3C4B93ED007A77EEC77A83
:102F70003A4B93ED007A77EEC77A9FED397A87EE78
:102F8000870ADFED387A20EE270AFFF75FFA364B23
:102F900093ED008A20EE088A344BD3ED007A38EEA8
:102FA000278A264BD3ED000A9FED310A3148FEF700
:102FB000DDFCF3EE047AB4EEE70AF1EE10FA5DDC24
:102FC000FBEE047AB4EEE70AF1EE10FA58D5BBEE48
:102FD000040A55E0AFF300809A9999999999B93FFD
:102FE0000020014020010020D00000202C050020FE
:102FF00000080240180500202405002020050020BC
:10300000000080393333534000004842A69B443BC4
:103010003005002000D8D64700401C46CDCCCC3D22
:1030200074070020800700206C070020A007002004
:10303000240100209C070020780700207C07002046
:103040000C0500201C00002030000020440000205F
:1030500014050020F80400203C0100203801002065
:1030600000003443DA0F494008050020C800002062
:1030700000000000640100200000B442B3EE040A26
:103080005FED037A37EEC00A0C4BD3ED007AF0EE19
:10309000480A30EE270AFEF783FF30E7084B1B781B
:1030A000032B3FF42CAF074B9FED070A0FCBFEF726
:1030B000AFFE24E7FFF79EFC2FE700BF9C07002030
:1030C000D0000020F8040020CDCCCC3D2DE9F04FFD
:1030D0002DED028B9BB0DFF86CB19BF800300193B3
:1030E00015AC4F4E0FCE0FC433682360DFF858A1E4
:1030F00003AC55460FCD0FC40FCD0FC4D5F80090CB
:10310000C4F800900CAF474C0FCC0FC70FCC0FC7C3
:1031100023683B60444F00233B607B604FF0000816
:10312000C7F80880A6F1100282F8008053603F4A79
:1031300013604FF07C533E4A13604FF07E52CAF842
:103140000820CAF80030A4F1200CD646BEE80F00D3
:10315000ACE80F00BEE80F00ACE80F00C4F8009028
:1031600004238BF800304FF00109324B83F80090B4
:103170004FF4FA7002F0DCFF2F4A82F800904FF40F
:10318000FA7002F0D5FF2C4A82F80080294B83F8B0
:103190000080019B8BF80030A6F1100C0DF1540E4D
:1031A000BEE80F00ACE80F00DEF800303360564692
:1031B0000DF10C0CBCE80F000FC6BCE80F000FC6E9
:1031C000DCF800302B60A4F120050CAE0FCE0FC54B
:1031D0000FCE0FC53368236097ED017AD7ED007AE3
:1031E000C7EE277A17EE900AFDF7AEF902460B46B6
:1031F000FDF74CF80022114BFDF728FBFDF7F4FC1E
:1032000008EE100AFDF7A0F902460B460C48FEF73F
:1032100003F8B0EE480A1BB0BDEC028BBDE8F08F9E
:1032200024010020F8000020840700201005002061
:103230001C0100200C05002015050020000008409E
:103240008CC30008D0000020D40000202DE9F043FA
:103250002DED048B87B0794BDE6A794B1F78FFF731
:1032600035FFF6EE007A87EE808AF1EE047AB4EE4E
:10327000E78AF1EE10FA09DD7248FDF7CDFFF2EEB4
:10328000047AB4EEE78AF1EE10FA1ADC6E4C0023F1
:10329000236063600022A26023616361E360674B87
:1032A0004DF6C022DA62664B03221A700123674A88
:1032B0001370674A137002F035FF0546654BE360F3
:1032C00043E06548FDF7A8FFB3E05F4C94ED017A59
:1032D000F2EE087A87EE279AD4ED006A86EEA77A96
:1032E00084ED047A382002F0A9FE0023A3600023B5
:1032F00023606360382002F093FED4ED038AF7EE7A
:10330000087A68EEA78AC4ED038A2069FDF71CF9E4
:103310008046894618EE900AFDF716F9CDE90201BC
:1033200019EE100AFDF710F9CDE9000142464B46AF
:103330004A48FDF78FFF444BD3ED037AB6EE007A8F
:10334000F4EEC77AF1EE10FA12DC3F4BD3ED047ABB
:10335000F4EEC87AF1EE10FA14D502F0E3FE05F5AA
:10336000FA6398420ED2384B9B680C2BE3D1ACE742
:1033700017EE900AFDF7E8F802460B463848FDF7CD
:103380004BFF49E0382002F059FE2F4B00221A6013
:103390005A60002199605A61382002F041FE2A4BA0
:1033A0009B68632BFBDD284BD3ED006ADFED2D7AA4
:1033B00086EEA77AD3ED016A86EEA78A1F4AD2ED80
:1033C0000B7AD3ED036AF8EE677A67EEA67ADFED43
:1033D000266AC7EEA68A68EE287A87EE879A17EEE5
:1033E000100AFDF7B1F804460D4619EE100AFDF774
:1033F000ABF8CDE9040118EE900AFDF7A5F8CDE988
:10340000020118EE100AFDF79FF8CDE900012246EF
:103410002B461648FDF700FF00230D4A13700B4A98
:103420001370074B1F70054BDE62DB6A6C3B104A62
:10343000536307B0BDEC048BBDE8F083000001408E
:10344000D000002098C30008840700201405002045
:103450000C0500200AD7A33CF8C300082CC40008C0
:1034600050C400080000C842A037204D9CC400088A
:1034700000040140F0B52DED088B87B0704B1D782E
:1034800003221A706F4B00225A600024B4F57A7F31
:103490000ADA012002F04CFE6B4BB3F900106B48C6
:1034A000FDF7BAFE0134F1E79FED698A0CE0DFED2C
:1034B000690AB0EE480AFEF773FD012002F038FEFB
:1034C000DFED657A38EE278ADFED647AB4EEE78ABD
:1034D000F1EE10FAEBD4624B9FED620A0FCBFEF7D0
:1034E00097FC0A2002F024FE5F4B1868FDF72CF8C9
:1034F00002460B465D48FDF78FFE5D4B93ED009A4B
:1035000000249FED53AAB0EE4ABAF0EE4AAA37E083
:10351000554BD3ED007A77EEE88A05A904A8B0EE02
:10352000680AFEF7FDFE9DED048A7AEE88AADDEDBD
:10353000059A3BEE29BA18EE900AFDF705F8064603
:103540000F4619EE900AFCF7FFFFCDE9020118EED5
:10355000100AFCF7F9FFCDE9000132463B46454829
:10356000FDF75AFE424B93ED007A77EE497AF5EE7D
:10357000C07AF1EE10FA27D43AEE27AAB0EE479AB5
:10358000142C26DC07EE904AB8EEE78ADFED3A7A93
:1035900028EE278A013407EE104AF8EEC78A68EE53
:1035A000A78AF4EEC88AF1EE10FAB1DDDFED290A40
:1035B000B0EE480AFEF7F4FC012002F0B9FDDFEDA1
:1035C0002F7A38EE278AECE7DFED246A77EEA67AC9
:1035D000D2E7234B9FED230A0FCBFEF719FCF0EE49
:1035E0004B0AB0EE6A0A08F029F8DFED257A60EEA2
:1035F000277ADFED246A87EEA67A124C84ED017AF1
:10360000DFED216AC6EE8A7AF6EE006A77EEA67AD8
:10361000FDEEE77A17EE903A237017EE100AFCF7EA
:1036200093FF02460B461948FDF7F6FD217818482E
:10363000FDF7F2FD024B1D7007B0BDEC088BF0BD2D
:10364000D0000020240100206C070020B8C400082E
:1036500000000000C520B03DEC51383F0000B443ED
:10366000F8040020CDCCCC3D9C070020C4C4000849
:10367000A0070020F4C400080000F0428FC2753E8D
:1036800000003443DA0F494000801D451CC5000886
:1036900030C5000808B50B210148FEF701FA08BD46
:1036A0006C0B002008B558B90B4A1378B3FA83F3B2
:1036B0005B091370094B19780948FDF7CBFD08BD6C
:1036C0000128F7D1D2ED007AFCEEE77A17EE903AB6
:1036D000024A1370EEE700BFBE0400201A0000206B
:1036E00040C5000808B5054B1868FCF72DFF0246D9
:1036F0000B460348FDF7AEFD08BD00BFA007002044
:1037000050C5000800B583B0012811D1D2ED007A70
:10371000FCEEE77ACDED017A9DF8041006290BD86E
:10372000074B19700748FDF795FD03B05DF804FBE2
:103730000548FDF78FFDF8E70348FDF78BFDF4E73B
:10374000D000002074C5000860C5000808B558B94D
:10375000074B1868074B1860FCF7F6FE02460B464D
:103760000548FDF777FD08BD0448FDF773FDFAE74E
:10377000A00700203C01002090C5000860C500089B
:10378000F8B505460E4617461648FDF763FD29466F
:103790001548FDF75FFD0024EBB2A3420BDD07EBFC
:1037A00084031868FCF7D0FE02460B460F48FDF76D
:1037B00051FD0134F0E7002405E056F824100C48D0
:1037C000FDF748FD0134B4EB252FF6DB094C0A4B1D
:1037D00019682046FDF73EFD084B19682046FDF7A5
:1037E00039FDF8BDA4C50008B8C50008C8C5000863
:1037F000D4C50008ECC50008980200209C020020F7
:103800002DE9F041A0F50073012B13D80D461746A2
:1038100040F20123984211D04FF0000800240A2CF6
:1038200013D82968294B53F83400FDF761FE40B9DD
:103830000134F4E72648FDF70DFD1AE04FF00108CA
:10384000ECE7224B03EBC404666822496868FDF785
:103850004FFE80B1B8F1000F06D0D7ED007AFCEE34
:10386000E77A17EE903A3370327829681A48FDF7F4
:10387000F1FCBDE8F08119496868FDF739FE80B1B7
:10388000B8F1000F06D0D7ED007AFDEEE77A17EE1B
:10389000903A3380B6F9002029680F48FDF7DAFC2A
:1038A000E7E70F496868FDF723FE0028E1D0B8F18B
:1038B000000F01D03B6833603068FCF745FE0246DC
:1038C0000B4629680748FDF7C5FCD2E740020020F7
:1038D00060C50008F0C50008F4C5000808C6000867
:1038E000FCCA00080CC6000870B582B040F2012383
:1038F000984204D02748FDF7ADFC02B070BD0C46DD
:10390000164625492068FDF7F3FDA8B1234D002395
:10391000EB6023496068FDF7EBFD58B33068286021
:1039200065682468FCF710FECDE900012A462146AF
:103930001C48FDF78FFCE0E71B492068FDF7D8FD28
:1039400008B11A4DE3E71A492068FDF7D1FD08B127
:10395000184DDCE718492068FDF7CAFD08B1174D7E
:10396000D5E717492068FDF7C3FD08B90025CEE764
:10397000144DCCE708496068FDF7BAFD08B104357D
:10398000CCE711496068FDF7B3FD08B10835C5E71C
:103990000025C3E760C5000820C60008D400002049
:1039A00034C600083CC6000824C60008F800002001
:1039B00028C60008640100202CC600088C010020E5
:1039C00030C600084001002038C60008012800D099
:1039D000704710B584B0D2ED007AFCEEE77ACDEDF9
:1039E000037A9DF80C400D4BDA6800920ECBB6EED0
:1039F000000A2046FEF73AFA052002F099FB21461C
:103A00000748FDF709FC074B1868FCF79DFD0246C7
:103A10000B460548FDF700FC04B010BD88000020EF
:103A200054C60008A007002074C6000830B583B053
:103A3000084B1D88084B1C78084B1868FCF784FD60
:103A4000CDE900012A4621460548FDF7E5FB03B014
:103A500030BD00BF3A020020380200203C020020A6
:103A60008CC6000808B50348FDF7D6FBFEF76EFFCD
:103A700008BD00BFA4C6000808B50348FDF7CCFB8D
:103A8000FFF7F8FC08BD00BFC0C6000808B5012854
:103A90000FD1D2ED007AF5EEC07AF1EE10FA1DDD0D
:103AA000134B01221A70124B19781248FDF7B4FB20
:103AB00008BD0023104AD360104AD360104AD36077
:103AC000104AD360104AD360094B1978B1FA81F1DA
:103AD000490919700748FDF79FFBE9E7044B0022ED
:103AE0001A700A4B9FED0A0A0FCBFEF791F9DAE73D
:103AF0000C050020DCC60008F8000020D4000020DF
:103B00008C0100204001002064010020F804002006
:103B1000CDCCCC3D08B50348FDF77EFBFFF7D6FAC8
:103B200008BD00BFECC6000808B50348FDF774FBEC
:103B3000FFF78CFB08BD00BF08C7000808B5FEF7FB
:103B400055FB0248FDF786FB08BD00BF24C70008EF
:103B500008B51E491E48FDF79FFC1E491E48FDF78B
:103B60009BFC1E491E48FDF797FC1E491E48FDF7A9
:103B700093FC1E491E48FDF78FFC1E491E48FDF7A9
:103B80008BFC1E491E48FDF787FC1E491E48FDF7A9
:103B900083FC1E491E48FDF77FFC1E491E48FDF7A9
:103BA0007BFC1E491E48FDF777FC1E491E48FDF7A9
:103BB00073FC1E491E48FDF76FFC1E491E48FDF7A9
:103BC0006BFC1E491E48FDF767FC08BD81370008E5
:103BD00038C700080138000840C70008CD39000880
:103BE00044C70008653A00084CC70008793A000845
:103BF0005CC700088D3A000864C70008E93800086F
:103C00006CC700083D3B000874C70008A5360008D3
:103C10007CC700084D37000884C70008E536000857
:103C200030C600080537000894C70008153B000897
:103C3000A0C70008293B0008ACC700082D3A0008BF
:103C4000B8C7000810B582B0002300930193114853
:103C5000114B036000F0A8FFB0B93C230093002291
:103C6000019269460B4800F0E8FF80B9094C4FF417
:103C7000006300221146204601F004F8002120468E
:103C800000F0A4FF02B010BDFDF74CFAE5E7FDF728
:103C900049FAEBE7A40700200074004010B588B093
:103CA0000023039304930593069307930268174B2D
:103CB0009A4201D008B010BD0024019403F5E2330C
:103CC0001A6C42F000521A641A6C02F0005201920F
:103CD000019A02941A6B42F001021A631B6B03F003
:103CE00001030293029B102303930323049305947F
:103CF00003A9074801F0E6FD22462146362002F0DE
:103D00005BF9362002F08CF9D4E700BF0074004064
:103D10000000024000B589B0002305930693079385
:103D200001930293039304931D481E4A02604FF4CB
:103D300080324260836001220261037680F8203085
:103D40004FF08051C1624FF060618162C360C26117
:103D500080F83020436100F099FDC0B91623059327
:103D60004FF4804306930023079305A90C4801F004
:103D700071F878B90B23019301230293039301A9EE
:103D8000074800F049FE40B909B05DF804FBFDF7B3
:103D9000C9F9E3E7FDF7C6F9ECE7FDF7C3F9F3E787
:103DA000000800200020014000B585B000230093EA
:103DB0000193029303931348134A02604FF4803235
:103DC000426083600361037680F82030C360012283
:103DD000C26180F83030436100F058FD60B90C23B7
:103DE00000930123019302936946064800F014FEF4
:103DF00028B905B05DF804FBFDF794F9EFE7FDF78E
:103E000091F9F6E7B80700200021014000B585B020
:103E1000002300930193029303931348134A026013
:103E20004FF48032426083600361037680F8203073
:103E3000C3600122C26180F83030426100F026FD8B
:103E400060B90A230093012301930293694606484F
:103E500000F0E2FD28B905B05DF804FBFDF762F95A
:103E6000EFE7FDF75FF9F6E7480800200022014080
:103E700070B588B0002303930493059306930793CA
:103E80000368344A934207D0334A934247D0334AB7
:103E9000934251D008B070BD044600250095304BC8
:103EA0005A6C42F480725A645B6C03F48073009322
:103EB000009B01230393032304930595294E03A933
:103EC000304601F0FFFC0223039303A9304601F0C2
:103ED000F9FC0423039303A9304601F0F3FC2248C4
:103EE000224B036045608560C5604FF480630361C9
:103EF0004FF4006343614FF4005383614FF48073C8
:103F0000C3614FF400330362456201F05DFE18B9EE
:103F1000154BA3639C63BDE7FDF704F9F8E70023A5
:103F200001930F4B5A6C42F400725A645B6C03F4B9
:103F300000730193019BADE700230293084B5A6C79
:103F400042F480625A645B6C03F480630293029BC8
:103F5000A0E700BF002001400021014000220140F5
:103F6000003802400008024090080020106402401F
:103F700000B583B00023009301930D480D4A026001
:103F800043608360C360836102F0EAFA50B90023A2
:103F9000009301936946064802F0DEFC28B903B09D
:103FA0005DF804FBFDF7BEF8F1E7FDF7BBF8F6E7B7
:103FB000300900200010004000B583B000230093BA
:103FC00001930F480F4A026053224260836040F21F
:103FD000E732C260836102F0C3FA50B90023009354
:103FE00001936946064802F0B7FC28B903B05DF8B2
:103FF00004FBFDF797F8F1E7FDF794F8F6E700BF4B
:10400000B00900200014004010B596B000241194AF
:1040100012941394149415940F9410940894099482
:104020000A940B940C940D940E9420222146684619
:1040300003F064FF2C482D4B0360446084604FF60E
:10404000FF73C36004614461846102F089FA00284F
:1040500038D1254802F09EFA002836D10423119366
:104060000023129311A9204802F0F0FB00282FD161
:1040700040230F93002310930FA91B4802F06CFC00
:1040800048BB7023089342F65003099300220A921A
:104090000B920C920D920E9208A9134802F0E6FAC8
:1040A000E0B90023009301930293039304934FF428
:1040B00000520592079369460B4802F091FC80B9C3
:1040C00016B010BDFDF72EF8C3E7FDF72BF8C5E7D6
:1040D000FDF728F8CCE7FDF725F8D2E7FDF722F841
:1040E000DFE7FDF71FF8EBE7F008002000040140D0
:1040F00002680E4B9A4200D0704700B583B0002191
:10410000019103F59C335A6C42F001025A645B6CD6
:1041100003F001030193019B0A46192001F04CFFB3
:10412000192001F07DFF03B05DF804FB00000140A1
:1041300000B585B00368204A934208D01F4A9342D5
:1041400019D01F4A93422AD005B05DF804FB002124
:1041500001911C4B1A6C42F010021A641B6C03F0A4
:1041600010030193019B0A46362001F025FF3620FB
:1041700001F056FFE8E700210291124B1A6C42F061
:1041800020021A641B6C03F020030293029B0A4670
:10419000372001F011FF372001F042FFD4E7002360
:1041A0000393084B5A6C42F002025A645B6C03F0B2
:1041B00002030393039BC7E7001000400014004074
:1041C000000401400038024070B588B0002303931A
:1041D000049305930693079302681A4B9A4201D001
:1041E00008B070BD0024019403F59C331A6B42F0B3
:1041F00002021A631A6B02F002020192019A0294FF
:104200001A6B42F001021A631B6B03F00103029365
:10421000029B4FF460430393022604960594069490
:104220000125079503A9084801F04CFB4FF4E06312
:104230000393049605940694079503A9034801F097
:1042400041FBCDE7000001400004024000000240B5
:104250002DE9F04383B010EE109A10EE900AFCF7AF
:1042600073F95DA3D3E90023FCF7F0FA02460B468D
:1042700000205149FCF7EAFA0022504BFCF7BCF948
:10428000FCF7B2FC80464846FCF75EF904460D4652
:104290004046FCF759F906460F4643A3D3E90023ED
:1042A000FCF7AAF902460B4620462946FCF720FCFB
:1042B00070B107EE909A07EE108AC7EE877AFCEE8F
:1042C000E77ACDED017A9DF8040003B0BDE8F083F4
:1042D00037A3D3E9002330463946FCF78DF902466F
:1042E0000B4620462946FCF703FCA8B132463B4664
:1042F00030463946FBF7CAFF02460B4620462946A0
:10430000FCF7A4FA00222E4BFBF7BEFFFCF74CFC97
:1043100060F07F00C0B2D8E700222A4B3046394611
:10432000FCF76AF902460B4620462946FCF7E0FBFB
:10433000A8B10022244B30463946FCF75DF902460D
:104340000B4620462946FCF781FA00221F4BFBF75B
:104350009BFFFCF729FC60F03F00C0B2B5E70022EC
:104360001B4B30463946FCF747F902460B462046C0
:104370002946FCF7BDFBA8B10022164B3046394652
:10438000FCF73AF902460B4620462946FCF75EFA4E
:1043900000220E4BFBF778FFFCF706FC60F01F00D5
:1043A000C0B292E7FF2090E70000000000C05F402D
:1043B0000000000000C06F400000F03F00408F4050
:1043C0000000504000807F4000002040000040403E
:1043D00000808F40000030400000000080842E41AB
:1043E00030B593B000241094119409940A940B945E
:1043F0000C940D940E940F9420252A46214601A872
:1044000003F07CFD3048314B03604460856042F628
:104410000413C3600461012343618023836102F0BC
:10442000D3F800283DD1202310938023119310A9A5
:10443000254802F091FA002836D160230993002222
:104440000A920B920C920D920E920F9209A91E489D
:1044500002F03BF958BB042209A91B4802F035F9C8
:1044600040BB082209A9184802F02FF928BB0024F4
:10447000019402940394DFED160A9FED160AFFF7EC
:10448000E7FE049005944FF400530693089401A9A5
:104490000D4802F0A5FA98B90B48FFF795FE13B046
:1044A00030BDFCF73FFEBEE7FCF73CFEC5E7FCF77E
:1044B00039FED0E7FCF736FED3E7FCF733FED6E74C
:1044C000FCF730FEE8E700BF700900200000014063
:1044D000A037204D0000B44308B50A480A4B0360DA
:1044E0004FF4E133436000238360C36003610C2217
:1044F00042618361C36102F011FC00B908BDFCF7A1
:1045000011FEFBE7F0090020005000402DE9F043C8
:1045100089B00023039304930593069307930268DD
:10452000414B9A4202D009B0BDE8F0830446002511
:10453000009503F5F4331A6C42F480121A641A6C75
:1045400002F480120092009A01951A6B42F0040264
:104550001A631A6B02F004020192019A02951A6B17
:1045600042F008021A631B6B03F008030293029BDC
:104570004FF4805303934FF00209CDF810904FF0A1
:104580000108CDF81480032706970826079603A98B
:10459000264801F097F904230393CDF81090CDF845
:1045A00014800697079603A9214801F08BF921484A
:1045B000214B03604FF0006343608560C5604FF49A
:1045C0008063036145618561C5610562456201F0F3
:1045D000FBFA18BB174B63639C631848184B0360C6
:1045E0004FF000634360402383600023C3604FF4B7
:1045F0008062026143618361C3610362436201F0CF
:10460000E3FA70B90D4B23639C630022022135202D
:1046100001F0D2FC352001F003FD84E7FCF782FDB8
:10462000D8E7FCF77FFDEDE70050004000080240AE
:10463000000C0240300A002010600240900A002066
:10464000B86002407047FEE7FEE7FEE7FEE770470E
:104650007047704708B501F059FD08BD08B502481C
:1046600001F0AAFB08BD00BF300A002008B50248CF
:1046700001F054FE08BD00BF7009002008B50248D3
:1046800001F09AFB08BD00BF900A002010B5074C4E
:10469000204602F0CFFD23681B6813F0100F00D1F5
:1046A00010BD2046FCF71CFEFAE700BFF009002011
:1046B00008B5024801F032FE08BD00BF30090020F5
:1046C00008B5024801F02AFE08BD00BFB00900206D
:1046D00008B5024801F070FB08BD00BF900800203B
:1046E00008B5024801F068FB08BD00BFC40B0020FC
:1046F00008B5024801F060FB08BD00BF240C002093
:1047000008B5102001F0D2F91021034801F0C0F9DA
:10471000FDF7AEF908BD00BF000802407047000079
:1047200082B0002100910B4B5A6C42F480425A64D3
:104730005A6C02F480420092009A01911A6C42F085
:1047400080521A641B6C03F080530193019B02B0EA
:10475000704700BF003802404A4B5A6822F440328A
:104760005A605A6841680A435A600268536823F4E1
:104770008073536002685368016943EA0123536000
:104780000268536823F0407353600268536881687D
:104790000B4353600268936823F4006393600268DC
:1047A0009368C1680B439360826A374B9A4257D033
:1047B0000268936823F07063936002689368816A6B
:1047C0000B4393600268936823F040539360026840
:1047D0009368C16A0B4393600268936823F00203F5
:1047E000936002689368017E43EA4103936090F806
:1047F0002030002B3FD00268536843F400635360BD
:104800000268536823F46043536001684B68426A4E
:10481000013A43EA42334B600268D36A23F47003DF
:10482000D3620168CB6AC269013A43EA0253CB62A0
:104830000268936823F4007393600268936890F8A9
:10484000301043EA412393600268936823F4806345
:10485000936002689368416943EA812393607047DB
:104860000268936823F0706393600268936823F092
:1048700040539360B0E70268536823F400635360C9
:10488000CAE700BF002301400100000F38B310B594
:104890000446036C43B1236C13F0100F0BD00120BE
:1048A000002384F83C3010BDFFF7E2FA0023636474
:1048B00084F83C30EFE7236C23F4885323F00203A1
:1048C00043F0020323642046FFF746FF00206064A4
:1048D000236C23F0030343F001032364E0E701208A
:1048E0007047000082B00023019390F83C30012B08
:1048F0007DD0012380F83C3003689A6812F0010FE4
:1049000013D19A6842F001029A603D4B1B683D4A00
:10491000A2FB03239B0C03EB4303019302E0019BE7
:10492000013B0193019B002BF9D10268936813F0BE
:10493000010F5ED0036C23F4E06323F0010343F422
:1049400080730364536813F4806F05D0036C23F401
:10495000405343F480530364036C13F4805F1BD013
:10496000436C23F006034364002380F83C306FF06F
:1049700022031360244B5B6813F01F0F27D10368D9
:10498000224A934211D002F58072934207D0204A06
:10499000934214D000202DE000234364E4E702F5A5
:1049A0000072526812F01F0FF1D19A6812F0405F46
:1049B00022D19A6842F080429A6000201AE002F503
:1049C0008072526812F0100FEFD0002012E00368DE
:1049D0000E4A934201D000200CE09A6812F0405F2A
:1049E0000CD19A6842F080429A60002002E00220D6
:1049F00000E0002002B070470020FBE70020F9E74C
:104A0000A802002083DE1B43002301400020014058
:104A1000002201407047704730B482B000230193F8
:104A200090F83C30012B00F0B780012380F83C3037
:104A30000B68092B3ED90568EA689BB203EB430378
:104A40001E3B072404FA03F322EA0303EB60056824
:104A5000EA688C680B8803EB43031E3B04FA03F3FC
:104A60001343EB604B68062B3AD805686A6B03EB7F
:104A70008303053B1F2404FA03F322EA03036B6359
:104A800005686A6B4B6803EB8303053B0C8804FAEB
:104A900003F313436B630268404B9A4250D00268A1
:104AA0003E4B9A4255D0002380F83C30184602B065
:104AB00030BC704705682A699BB203EB43030724A7
:104AC00004FA03F322EA03032B6105682A698C6860
:104AD0000B8803EB430304FA03F313432B61C1E791
:104AE0000C2B16D805682A6B03EB8303233B1F248A
:104AF00004FA03F322EA03032B6305682A6B4B686D
:104B000003EB8303233B0C8804FA03F313432B6367
:104B1000C1E70568EA6A03EB8303413B1F2404FAFB
:104B200003F322EA0303EB620568EA6A4B6803EBCE
:104B30008303413B0C8804FA03F31343EB62AAE7B7
:104B40000B68122BABD1164A536843F480035360B1
:104B5000A5E70B68103B012BA5D8114A536843F415
:104B6000000353600B68102B9DD10E4B1B6802F1A4
:104B7000467202F52E3202F28332A2FB03239B0C13
:104B800003EB83035B00019302E0019B013B019374
:104B9000019B002BF9D186E7022088E70020014025
:104BA00000230140A802002070B110B5044603792B
:104BB00033B102232371002020610123237110BD32
:104BC0004371FFF76BF8F4E7012070474379012B3D
:104BD00031D010B4012343710222027104682268AB
:104BE0008B4013432360B1B902681168136803F066
:104BF000380311F0040F01D0382B07D001230371C3
:104C00000023437118465DF8044B7047536843F026
:104C100001035360F2E702681168136803F460133C
:104C200011F4802FEAD0B3F5601FE7D1536843F049
:104C300002035360E2E7022070474379012B1FD043
:104C400070B401254571022303710668336840F68C
:104C5000FE74944023EA04040B6849680B439340B4
:104C60002343336004682368C02101FA02F223EA77
:104C700002022260057100234371184670BC704720
:104C80000220704710B483B00024019400680190A2
:104C900051B901990A4408320192019A1360002027
:104CA00003B05DF8044B704701990A441432019235
:104CB000F3E708B5806B40230364436C43F00403BF
:104CC0004364FFF7A8FE08BD08B5806BFFF7A2FE9E
:104CD00008BD08B5836B1A6C12F0500F26D11A6C00
:104CE00042F400721A641A68916811F0405F19D199
:104CF000197EB9B9D16A11F4700F03D0916811F41B
:104D0000806F0FD1516821F0200151601A6C22F49C
:104D100080721A641A6C12F4805F03D11A6C42F02C
:104D200001021A641846FDF7BBFF08BD9B6BDB6CE4
:104D30009847FAE730B583B013460022019290F805
:104D40003C20012A71D00546012280F83C200268EF
:104D5000906810F0010F13D1906840F0010090604E
:104D6000354A1068354AA2FB0020800C00EB400059
:104D7000019002E0019C013C019401980028F9D1C6
:104D80002A68906810F0010F51D0286C20F4E06080
:104D900020F0010040F480702864526812F4806FA3
:104DA00005D02A6C22F4405242F480522A642A6CC4
:104DB00012F4805F30D06A6C22F006026A6400222E
:104DC00085F83C20AA6B1E48D063AA6B1D4810646E
:104DD000AA6B1D48D0642A686FF002001060286832
:104DE000426842F08062426095F83020BAB11748BC
:104DF000426842F4005242600A461549A86B00F02E
:104E000049FF2B689A6812F0405F13D19A6842F00C
:104E100080429A6000200BE000226A64CFE70B48D2
:104E2000426822F400524260E6E7022000E00020DF
:104E300003B030BD0020FBE7A802002083DE1B4347
:104E4000D34C0008C94C0008B34C000800230140B3
:104E50000823014090F83C30012B23D010B40123EB
:104E600080F83C30104B5A6822F01F025A605A6892
:104E70000C6822435A605A6822F440425A605A68C9
:104E80004C6822435A605A6822F470625A605A6829
:104E900089680A435A60002380F83C3018465DF860
:104EA000044B70470220704700230140002800F0A7
:104EB000D98170B582B00446036813F0010F3BD06E
:104EC000A64B9B6803F00C03042B2CD0A34B9B68D0
:104ED00003F00C03082B21D06368B3F5803F4FD05B
:104EE000B3F5A02F52D09D4B1A6822F480321A607D
:104EF0001A6822F480221A606368002B50D001F0F7
:104F000011F90546954B1B6813F4003F14D101F0CD
:104F100009F9401B6428F5D90320AAE18F4B5B688F
:104F200013F4800FD8D08D4B1B6813F4003F03D0CF
:104F30006368002B00F09881236813F0020F54D0AF
:104F4000864B9B6813F00C0F3ED0844B9B6803F09C
:104F50000C03082B33D0E368002B67D0804B012271
:104F60001A6001F0DFF805467C4B1B6813F0020F56
:104F700053D101F0D7F8401B0228F5D9032078E17E
:104F8000764A136843F480331360B5E7734B1A68AD
:104F900042F480221A601A6842F480321A60ABE749
:104FA00001F0C0F805466D4B1B6813F4003FC3D0F9
:104FB00001F0B8F8401B6428F5D9032059E1674B8C
:104FC0005B6813F4800FC6D1644B1B6813F0020FAB
:104FD00003D0E368012B40F04981604A136823F055
:104FE000F803216943EAC1031360236813F0080F33
:104FF00040D0636963B35B4B01221A6001F092F801
:105000000546564B5B6F13F0020F33D101F08AF85F
:10501000401B0228F5D903202BE1504A136823F0E6
:10502000F803216943EAC1031360DEE74C4B002219
:105030001A6001F077F80546484B1B6813F0020F21
:10504000D3D001F06FF8401B0228F5D9032010E1FE
:10505000444B00221A6001F065F805463F4B5B6F38
:1050600013F0020F06D001F05DF8401B0228F5D9BD
:105070000320FEE0236813F0040F78D0374B1B6C3D
:1050800013F0805F0DD100230193344B1A6C42F072
:1050900080521A641B6C03F080530193019B01251D
:1050A00000E00025304B1B6813F4807F21D0A368FB
:1050B000012B32D0052B36D0284B1A6F22F001027B
:1050C0001A671A6F22F004021A67A368002B34D003
:1050D00001F028F80646214B1B6F13F0020F45D153
:1050E00001F020F8801B41F288339842F3D9032065
:1050F000BFE01D4A136843F48073136001F012F897
:105100000646194B1B6813F4807FD0D101F00AF8D2
:10511000801B0228F5D90320ABE0104A136F43F03F
:1051200001031367D1E70D4B1A6F42F004021A67AF
:105130001A6F42F001021A67C7E700F0F3FF064654
:10514000064B1B6F13F0020F10D000F0EBFF801B1B
:1051500041F288339842F3D903208AE000380240B4
:1051600000004742800E474200700040E5B9A36945
:10517000002B7DD0464A926802F00C02082A51D0DA
:10518000022B17D0434B00221A6000F0CBFF0446DD
:105190003F4B1B6813F0007F42D000F0C3FF001BA1
:1051A0000228F5D9032064E0394A136C23F08053B8
:1051B0001364DCE7374B00221A6000F0B3FF0546AA
:1051C000334B1B6813F0007F06D000F0ABFF401B91
:1051D0000228F5D903204CE0E369226A1343626A8E
:1051E00043EA8213A26A5208013A43EA0243E26A9E
:1051F00043EA0263264A5360264B01221A6000F0FC
:1052000091FF0446224B1B6813F0007F06D100F08B
:1052100089FF001B0228F5D903202AE0002028E09E
:10522000002026E0012B26D0194B9B6803F4800157
:10523000E269914221D103F03F02216A8A421ED1E4
:10524000616A47F6C0721A408A421AD103F44032AA
:10525000A16A8A4217D103F07063E26A934214D1C3
:10526000002006E001207047012002E0012000E05C
:10527000002002B070BD0120FBE70120F9E701200A
:10528000F7E70120F5E70120F3E70120F1E700BF90
:105290000038024060004742F8B52F4B9B6803F08E
:1052A0000C03042B53D0082B53D12B4B5A6802F01C
:1052B0003F025B6813F4800F28D0274B5B68C3F371
:1052C000881358010021C01A61F100018E0146EADD
:1052D000906687013C1A66EB0105E90041EA5471CA
:1052E000E000C01841F100014B0243EAD0534402F0
:1052F000204619460023FBF7C7FC174B5B68C3F336
:10530000014301335B00B0FBF3F023E0124B5B6819
:10531000C3F388135C010025E41A65F10005AE01B2
:1053200046EA9466A701381B66EB0501CC0044EA07
:105330005074C500E81844F100018B0243EA905311
:105340008402204619460023FBF79EFCD5E703485C
:1053500000E00348F8BD00BF0038024000127A00A8
:105360000024F400002800F09B8070B50D46044630
:105370004F4B1B6803F00F038B4208D2CBB24C4A51
:105380001370136803F00F038B4240F08B80236887
:1053900013F0020F17D013F0040F04D0454A93689E
:1053A00043F4E0539360236813F0080F04D0414A9C
:1053B000936843F4604393603E4A936823F0F0039C
:1053C000A1680B439360236813F0010F32D0636828
:1053D000012B21D09A1E012A25D9364A126812F0D3
:1053E000020F61D033498A6822F0030213438B60B5
:1053F00000F098FE06462F4B9B6803F00C03626892
:10540000B3EB820F16D000F08DFE801B41F2883383
:105410009842F0D9032042E0264A126812F4003F75
:10542000E0D101203BE0234A126812F0007FD9D17D
:10543000012034E01E4B1B6803F00F03AB4207D979
:10544000EAB21B4B1A701B6803F00F03AB422DD15D
:10545000236813F0040F06D0164A936823F4E05330
:10546000E1680B439360236813F0080F07D0114ADB
:10547000936823F46043216943EAC1039360FFF713
:105480000BFF0C4B9B68C3F303130B4AD35CD84050
:105490000A4B18600A4B186800F0F8FD002070BD38
:1054A000012070470120FAE70120F8E70120F6E724
:1054B000003C02400038024020C80008A80200203A
:1054C000A4020020014B1868704700BFA80200200A
:1054D00008B5FFF7F7FF044B9B68C3F38223034A29
:1054E000D35CD84008BD00BF0038024030C8000877
:1054F00008B5FFF7E7FF044B9B68C3F34233034A49
:10550000D35CD84008BD00BF0038024030C8000856
:1055100010B40A490C6924F440740C610C6944F419
:1055200040740C610C6944F001040C610260BFF32B
:105530006F8F43605DF8044B704700BF003C024032
:10554000074B1A6922F440721A611A6942F4007218
:105550001A611A6942F001021A610160704700BFC6
:10556000003C0240074B1A6922F440721A611A6922
:1055700042F480721A611A6942F001021A610180D4
:10558000704700BF003C0240064B1A6922F440728B
:105590001A611A691A611A6942F001021A610170EE
:1055A000704700BF003C0240204BDB6813F0100F37
:1055B00007D01F4AD36943F01003D3611B4B10225D
:1055C000DA601A4BDB6813F0200F07D0184AD36952
:1055D00043F00803D361154B2022DA60134BDB68DC
:1055E00013F0400F07D0124AD36943F00403D3618C
:1055F0000E4B4022DA600D4BDB6813F0800F07D0B2
:105600000B4AD36943F00203D361084B8022DA606E
:10561000064BDB6813F0020F07D0054AD36943F04D
:105620002003D361014B0222DA607047003C024044
:10563000F00A0020094B1B69002B01DB002070479A
:10564000064B074A5A6002F188325A601B69002BE8
:1056500001DB002070470120704700BF003C024082
:1056600023016745034A136943F000431361002097
:10567000704700BF003C024038B50446144B00227E
:10568000DA6100F04FFD0546124BDB6813F4803FF2
:105690000AD0B4F1FF3FF7D024B100F043FD401B26
:1056A000A042F1D903200DE00A4BDB6813F0010F93
:1056B00002D0084B0122DA60064BDB6813F0F20FD0
:1056C00001D1002038BDFFF76FFF0120FAE700BFCE
:1056D000F00A0020003C0240F8B516461B4A127E34
:1056E000012A30D004460D461F46184B01221A7677
:1056F0004CF25030FFF7C0FF90B9ACB1012C18D07C
:10570000022C1BD032463B462846FFF701FF4CF2E5
:105710005030FFF7B1FF0E4A136923F00103136104
:105720000A4B00221A76F8BDF1B22846FFF72CFF8B
:10573000EDE7B1B22846FFF715FFE8E73146284606
:10574000FFF7FEFEE3E70220EDE700BFF00A0020CE
:10575000003C0240074B196921F440711961196935
:1057600041F0040119611A6942EA002242F48032D0
:105770001A617047003C024010B449B1012921D0A0
:10578000022902D04FF4407403E04FF4007400E0AB
:1057900000240E4B196921F4407119611A692243E2
:1057A0001A611A6922F0F8021A611A6942EAC00005
:1057B00040F0020018611A6942F480321A615DF803
:1057C000044B70474FF48074E3E700BF003C024095
:1057D000164B1B6813F4007F10D0144B1A6822F488
:1057E00000721A601A6842F400621A601A6822F4A1
:1057F00000621A601A6842F400721A600B4B1B6850
:1058000013F4806F10D0094B1A6822F480621A607A
:105810001A6842F480521A601A6822F480521A60A0
:105820001A6842F480621A60704700BF003C024070
:10583000F8B5224B1B7E012B3ED004460E461F4B73
:1058400001221A764CF25030FFF716FF074670BB64
:105850004FF0FF3333602368012B16D0A568E3684F
:10586000A2681344AB4220D9217C2846FFF784FF6D
:105870004CF25030FFF700FF114A136923F0FA038E
:105880001361074680B90135E9E76168207CFFF7BD
:1058900061FF4CF25030FFF7EFFE0746084A1369EC
:1058A00023F00403136100E03560FFF791FF034B21
:1058B00000221A763846F8BD0227FBE7F00A0020DE
:1058C000003C024000230F2B00F2D980F0B583B0DA
:1058D00039E0072200E00022B2403A430234684E29
:1058E00046F82420674A1468EA4324EA05064F680C
:1058F00017F4803F01D045EA0406624C26606468D4
:1059000002EA04064F6817F4003F01D045EA040696
:105910005C4C6660A46802EA04064F6817F4801FB6
:1059200001D045EA0406574CA660E46822404E6860
:1059300016F4001F01D045EA0402524CE260013324
:105940000F2B00F29A8001229A400C6804EA0205AB
:1059500032EA0404F3D14C68661E012E03D9112CDF
:1059600001D0122C12D186685F000324BC4026EAC5
:105970000406CC68BC4034438460466826EA0206CC
:105980004C68C4F300129A4032434260C7685E001C
:105990000324B440E24327EA04078C68B4403C4344
:1059A000C4604C68022C01D0122C13D1DF080837D8
:1059B00050F827E003F007044FEA840C0F2404FAA0
:1059C0000CF42EEA040E0C6904FA0CF444EA0E04FA
:1059D00040F82740046814404A6802F00302B240CD
:1059E000224302604A6812F0805FA8D00022019230
:1059F000254A546C44F480445464526C02F480424E
:105A00000192019A9C08A61C1D4A52F8267003F0C8
:105A1000030296000F22B24027EA02071B4A904277
:105A20003FF459AF02F5806290421AD002F58062CD
:105A3000904218D002F58062904216D002F5806242
:105A4000904214D002F58062904212D002F580623A
:105A5000904210D002F5806290423FF43AAF0822A3
:105A60003AE7012238E7022236E7032234E704222C
:105A700032E7052230E706222EE703B0F0BD70477B
:105A800000380140003C0140003802400000024064
:105A90000369194201D001207047002070470AB104
:105AA00081617047090481617047704708B5054BF3
:105AB0005B69034200D108BD024B5861FFF7F5FF57
:105AC000F9E700BF003C014030B405682C6824F4BD
:105AD00080242C60046863608368402B05D00368D1
